{"abi":[{"type":"constructor","inputs":[{"name":"name","type":"string","internalType":"string"},{"name":"symbol","type":"string","internalType":"string"},{"name":"decimals_","type":"uint8","internalType":"uint8"},{"name":"initialSupply","type":"uint256","internalType":"uint256"},{"name":"initialOwner","type":"address","internalType":"address"}],"stateMutability":"nonpayable"},{"type":"function","name":"allowance","inputs":[{"name":"owner","type":"address","internalType":"address"},{"name":"spender","type":"address","internalType":"address"}],"outputs":[{"name":"","type":"uint256","internalType":"uint256"}],"stateMutability":"view"},{"type":"function","name":"approve","inputs":[{"name":"spender","type":"address","internalType":"address"},{"name":"value","type":"uint256","internalType":"uint256"}],"outputs":[{"name":"","type":"bool","internalType":"bool"}],"stateMutability":"nonpayable"},{"type":"function","name":"balanceOf","inputs":[{"name":"account","type":"address","internalType":"address"}],"outputs":[{"name":"","type":"uint256","internalType":"uint256"}],"stateMutability":"view"},{"type":"function","name":"burn","inputs":[{"name":"from","type":"address","internalType":"address"},{"name":"amount","type":"uint256","internalType":"uint256"}],"outputs":[],"stateMutability":"nonpayable"},{"type":"function","name":"decimals","inputs":[],"outputs":[{"name":"","type":"uint8","internalType":"uint8"}],"stateMutability":"view"},{"type":"function","name":"faucet","inputs":[{"name":"amount","type":"uint256","internalType":"uint256"}],"outputs":[],"stateMutability":"nonpayable"},{"type":"function","name":"mint","inputs":[{"name":"to","type":"address","internalType":"address"},{"name":"amount","type":"uint256","internalType":"uint256"}],"outputs":[],"stateMutability":"nonpayable"},{"type":"function","name":"name","inputs":[],"outputs":[{"name":"","type":"string","internalType":"string"}],"stateMutability":"view"},{"type":"function","name":"owner","inputs":[],"outputs":[{"name":"","type":"address","internalType":"address"}],"stateMutability":"view"},{"type":"function","name":"renounceOwnership","inputs":[],"outputs":[],"stateMutability":"nonpayable"},{"type":"function","name":"symbol","inputs":[],"outputs":[{"name":"","type":"string","internalType":"string"}],"stateMutability":"view"},{"type":"function","name":"totalSupply","inputs":[],"outputs":[{"name":"","type":"uint256","internalType":"uint256"}],"stateMutability":"view"},{"type":"function","name":"transfer","inputs":[{"name":"to","type":"address","internalType":"address"},{"name":"value","type":"uint256","internalType":"uint256"}],"outputs":[{"name":"","type":"bool","internalType":"bool"}],"stateMutability":"nonpayable"},{"type":"function","name":"transferFrom","inputs":[{"name":"from","type":"address","internalType":"address"},{"name":"to","type":"address","internalType":"address"},{"name":"value","type":"uint256","internalType":"uint256"}],"outputs":[{"name":"","type":"bool","internalType":"bool"}],"stateMutability":"nonpayable"},{"type":"function","name":"transferOwnership","inputs":[{"name":"newOwner","type":"address","internalType":"address"}],"outputs":[],"stateMutability":"nonpayable"},{"type":"event","name":"Approval","inputs":[{"name":"owner","type":"address","indexed":true,"internalType":"address"},{"name":"spender","type":"address","indexed":true,"internalType":"address"},{"name":"value","type":"uint256","indexed":false,"internalType":"uint256"}],"anonymous":false},{"type":"event","name":"OwnershipTransferred","inputs":[{"name":"previousOwner","type":"address","indexed":true,"internalType":"address"},{"name":"newOwner","type":"address","indexed":true,"internalType":"address"}],"anonymous":false},{"type":"event","name":"Transfer","inputs":[{"name":"from","type":"address","indexed":true,"internalType":"address"},{"name":"to","type":"address","indexed":true,"internalType":"address"},{"name":"value","type":"uint256","indexed":false,"internalType":"uint256"}],"anonymous":false},{"type":"error","name":"ERC20InsufficientAllowance","inputs":[{"name":"spender","type":"address","internalType":"address"},{"name":"allowance","type":"uint256","internalType":"uint256"},{"name":"needed","type":"uint256","internalType":"uint256"}]},{"type":"error","name":"ERC20InsufficientBalance","inputs":[{"name":"sender","type":"address","internalType":"address"},{"name":"balance","type":"uint256","internalType":"uint256"},{"name":"needed","type":"uint256","internalType":"uint256"}]},{"type":"error","name":"ERC20InvalidApprover","inputs":[{"name":"approver","type":"address","internalType":"address"}]},{"type":"error","name":"ERC20InvalidReceiver","inputs":[{"name":"receiver","type":"address","internalType":"address"}]},{"type":"error","name":"ERC20InvalidSender","inputs":[{"name":"sender","type":"address","internalType":"address"}]},{"type":"error","name":"ERC20InvalidSpender","inputs":[{"name":"spender","type":"address","internalType":"address"}]},{"type":"error","name":"OwnableInvalidOwner","inputs":[{"name":"owner","type":"address","internalType":"address"}]},{"type":"error","name":"OwnableUnauthorizedAccount","inputs":[{"name":"account","type":"address","internalType":"address"}]}],"bytecode":{"object":"0x60406080815234620004185762000f2f803803806200001e816200041d565b928339810160a082820312620004185781516001600160401b0392908381116200041857826200005091830162000443565b92602092838301519082821162000418576200006e91840162000443565b908583015160ff811681036200041857608060608501519401519560018060a01b03928388168098036200041857815181811162000315576003908154906001948583811c931680156200040d575b8b841014620003f75781908b601f948581116200039e575b50508b9084831160011462000337576000926200032b575b505060001982851b1c191690851b1782555b8651928311620003155760049687548581811c911680156200030a575b8b821014620002f557828111620002aa575b50899184116001146200023f5793839491849260009562000233575b50501b92600019911b1c19161783555b85156200021c578590816005549384167f8be0079c531659141344cd1fd0a4f28419497f9722a3daafe3b4186f6b6457e0600080a36001600160a81b03199092161760a09190911b60ff60a01b16176005556002548281019190821062000207575060025560008381528083528481208054830190558451918252917fddf252ad1be2c89b69c2b068fc378daa952ba7f163c4a11628f55a4df523b3ef91a351610a799081620004b68239f35b601190634e487b7160e01b6000525260246000fd5b8651631e4fbdf760e01b8152600081850152602490fd5b0151935038806200014a565b9190601f1984169288600052848b6000209460005b8d8983831062000292575050501062000277575b50505050811b0183556200015a565b01519060f884600019921b161c191690553880808062000268565b86860151895590970196948501948893500162000254565b886000528a6000208380870160051c8201928d8810620002eb575b0160051c019086905b828110620002de5750506200012e565b60008155018690620002ce565b92508192620002c5565b602289634e487b7160e01b6000525260246000fd5b90607f16906200011c565b634e487b7160e01b600052604160045260246000fd5b015190503880620000ed565b60008681528d8120899550929190601f198516908f5b8282106200038657505084116200036d575b505050811b018255620000ff565b015160001983871b60f8161c191690553880806200035f565b8385015186558b979095019493840193018f6200034d565b909192508560005284826000209181860160051c8301938610620003ed575b918991869594930160051c01915b828110620003dd57508d9150620000d5565b60008155859450899101620003cb565b92508192620003bd565b634e487b7160e01b600052602260045260246000fd5b92607f1692620000bd565b600080fd5b6040519190601f01601f191682016001600160401b038111838210176200031557604052565b919080601f84011215620004185782516001600160401b038111620003155760209062000479601f8201601f191683016200041d565b92818452828287010111620004185760005b818110620004a157508260009394955001015290565b85810183015184820184015282016200048b56fe6080604081815260048036101561001557600080fd5b600092833560e01c90816306fdde031461075157508063095ea7b3146106a857806318160ddd1461068957806323b872dd14610596578063313ce5671461057157806340c10f1914610544578063579158971461049657806370a082311461045f578063715018a6146103ff5780638da5cb5b146103d657806395d89b41146102b45780639dc29fac146101d8578063a9059cbb146101a7578063dd62ed3e1461015a5763f2fde38b146100c857600080fd5b34610156576020366003190112610156576100e1610891565b906100ea6109a0565b6001600160a01b03918216928315610140575050600554826bffffffffffffffffffffffff60a01b821617600555167f8be0079c531659141344cd1fd0a4f28419497f9722a3daafe3b4186f6b6457e08380a380f35b51631e4fbdf760e01b8152908101849052602490fd5b8280fd5b5050346101a357806003193601126101a35780602092610178610891565b6101806108ac565b6001600160a01b0391821683526001865283832091168252845220549051908152f35b5080fd5b5050346101a357806003193601126101a3576020906101d16101c7610891565b60243590336108c2565b5160018152f35b508290346101a357826003193601126101a3576101f3610891565b90602435906102006109a0565b6001600160a01b03831692831561029d578385528460205285852054918383106102695750508184957fddf252ad1be2c89b69c2b068fc378daa952ba7f163c4a11628f55a4df523b3ef936020938688528785520381872055816002540360025551908152a380f35b865163391434e360e21b81526001600160a01b03909216908201908152602081018390526040810184905281906060010390fd5b8551634b637e8f60e11b8152808301869052602490fd5b509190346101a357816003193601126101a35780519082845460018160011c90600183169283156103cc575b60209384841081146103b95783885290811561039d5750600114610348575b505050829003601f01601f191682019267ffffffffffffffff8411838510176103355750829182610331925282610848565b0390f35b634e487b7160e01b815260418552602490fd5b8787529192508591837f8a35acfbc15ff81a39ae7d344fd709f28e8600b4aa8c65c6b64bfe7fe36bd19b5b83851061038957505050508301013880806102ff565b805488860183015293019284908201610373565b60ff1916878501525050151560051b84010190503880806102ff565b634e487b7160e01b895260228a52602489fd5b91607f16916102e0565b5050346101a357816003193601126101a35760055490516001600160a01b039091168152602090f35b833461045c578060031936011261045c576104186109a0565b600580546001600160a01b0319811690915581906001600160a01b03167f8be0079c531659141344cd1fd0a4f28419497f9722a3daafe3b4186f6b6457e08280a380f35b80fd5b5050346101a35760203660031901126101a35760209181906001600160a01b03610487610891565b16815280845220549051908152f35b50346101565760203660031901126101565780359160ff60055460a01c16604d811161053157600a0a6103e890808202918204036105315783116104e257836104df84336109cc565b80f35b906020608492519162461bcd60e51b83528201526024808201527f4d6f636b574c443a20416d6f756e74206578636565647320666175636574206c6044820152631a5b5a5d60e21b6064820152fd5b634e487b7160e01b855260118352602485fd5b5050346101a35736600319011261045c576104df610560610891565b6105686109a0565b602435906109cc565b5050346101a357816003193601126101a35760209060ff60055460a01c169051908152f35b50823461045c57606036600319011261045c576105b1610891565b6105b96108ac565b916044359360018060a01b0383168083526001602052868320338452602052868320549160001983106105f5575b6020886101d18989896108c2565b86831061065d57811561064657331561062f575082526001602090815286832033845281529186902090859003905582906101d1876105e7565b8751634a1406b160e11b8152908101849052602490fd5b875163e602df0560e01b8152908101849052602490fd5b8751637dc7a0d960e11b8152339181019182526020820193909352604081018790528291506060010390fd5b5050346101a357816003193601126101a3576020906002549051908152f35b50346101565781600319360112610156576106c1610891565b60243590331561073a576001600160a01b031691821561072357508083602095338152600187528181208582528752205582519081527f8c5be1e5ebec7d5bd14f71427d1e84f3dd0314c0f7b2291e5b200ac8c7c3b925843392a35160018152f35b8351634a1406b160e11b8152908101859052602490fd5b835163e602df0560e01b8152808401869052602490fd5b84915083346101565782600319360112610156578260035460018160011c906001831692831561083e575b60209384841081146103b95783885290811561082257506001146107cc57505050829003601f01601f191682019267ffffffffffffffff8411838510176103355750829182610331925282610848565b600387529192508591837fc2575a0e9e593c00f959f8c92f12db2869c3395a3b0502d05e2516446f71f85b5b83851061080e57505050508301018580806102ff565b8054888601830152930192849082016107f8565b60ff1916878501525050151560051b84010190508580806102ff565b91607f169161077c565b6020808252825181830181905290939260005b82811061087d57505060409293506000838284010152601f8019910116010190565b81810186015184820160400152850161085b565b600435906001600160a01b03821682036108a757565b600080fd5b602435906001600160a01b03821682036108a757565b916001600160a01b03808416928315610987571692831561096e576000908382528160205260408220549083821061093c575091604082827fddf252ad1be2c89b69c2b068fc378daa952ba7f163c4a11628f55a4df523b3ef958760209652828652038282205586815220818154019055604051908152a3565b60405163391434e360e21b81526001600160a01b03919091166004820152602481019190915260448101839052606490fd5b60405163ec442f0560e01b815260006004820152602490fd5b604051634b637e8f60e11b815260006004820152602490fd5b6005546001600160a01b031633036109b457565b60405163118cdaa760e01b8152336004820152602490fd5b6001600160a01b031690811561096e5760025490808201809211610a2d5760207fddf252ad1be2c89b69c2b068fc378daa952ba7f163c4a11628f55a4df523b3ef9160009360025584845283825260408420818154019055604051908152a3565b634e487b7160e01b600052601160045260246000fdfea2646970667358221220ffae7098de19a585af78c9eb77a5151ee8088c52f8159aa6c533f65d172f38c464736f6c63430008180033","linkReferences":{}},"methodIdentifiers":{"allowance(address,address)":"dd62ed3e","approve(address,uint256)":"095ea7b3","balanceOf(address)":"70a08231","burn(address,uint256)":"9dc29fac","decimals()":"313ce567","faucet(uint256)":"57915897","mint(address,uint256)":"40c10f19","name()":"06fdde03","owner()":"8da5cb5b","renounceOwnership()":"715018a6","symbol()":"95d89b41","totalSupply()":"18160ddd","transfer(address,uint256)":"a9059cbb","transferFrom(address,address,uint256)":"23b872dd","transferOwnership(address)":"f2fde38b"},"id":9}