{"abi":[{"type":"constructor","inputs":[{"name":"_wldToken","type":"address","internalType":"address"},{"name":"_worldId","type":"address","internalType":"address"},{"name":"_worldIdGroupId","type":"uint256","internalType":"uint256"},{"name":"_initialOwner","type":"address","internalType":"address"}],"stateMutability":"nonpayable"},{"type":"function","name":"WORLD_ID_ACTION","inputs":[],"outputs":[{"name":"","type":"string","internalType":"string"}],"stateMutability":"view"},{"type":"function","name":"accrueYield","inputs":[],"outputs":[],"stateMutability":"nonpayable"},{"type":"function","name":"addAdmin","inputs":[{"name":"admin","type":"address","internalType":"address"}],"outputs":[],"stateMutability":"nonpayable"},{"type":"function","name":"addOperator","inputs":[{"name":"operator","type":"address","internalType":"address"}],"outputs":[],"stateMutability":"nonpayable"},{"type":"function","name":"admins","inputs":[{"name":"","type":"address","internalType":"address"}],"outputs":[{"name":"","type":"bool","internalType":"bool"}],"stateMutability":"view"},{"type":"function","name":"deposit","inputs":[{"name":"amount","type":"uint256","internalType":"uint256"}],"outputs":[],"stateMutability":"nonpayable"},{"type":"function","name":"emergencyWithdraw","inputs":[{"name":"token","type":"address","internalType":"address"},{"name":"amount","type":"uint256","internalType":"uint256"},{"name":"to","type":"address","internalType":"address"}],"outputs":[],"stateMutability":"nonpayable"},{"type":"function","name":"getCurrentAPY","inputs":[],"outputs":[{"name":"","type":"uint256","internalType":"uint256"}],"stateMutability":"view"},{"type":"function","name":"getPoolInfo","inputs":[],"outputs":[{"name":"totalDeposits_","type":"uint256","internalType":"uint256"},{"name":"totalYield","type":"uint256","internalType":"uint256"},{"name":"participantCount_","type":"uint256","internalType":"uint256"},{"name":"currentAPY","type":"uint256","internalType":"uint256"},{"name":"prizeBalance","type":"uint256","internalType":"uint256"}],"stateMutability":"view"},{"type":"function","name":"getPoolStats","inputs":[],"outputs":[{"name":"totalDeposits_","type":"uint256","internalType":"uint256"},{"name":"totalYield","type":"uint256","internalType":"uint256"},{"name":"participantCount_","type":"uint256","internalType":"uint256"},{"name":"currentAPY","type":"uint256","internalType":"uint256"}],"stateMutability":"view"},{"type":"function","name":"getTotalDeposits","inputs":[],"outputs":[{"name":"","type":"uint256","internalType":"uint256"}],"stateMutability":"view"},{"type":"function","name":"getTotalYieldGenerated","inputs":[],"outputs":[{"name":"","type":"uint256","internalType":"uint256"}],"stateMutability":"view"},{"type":"function","name":"getUserBalance","inputs":[{"name":"user","type":"address","internalType":"address"}],"outputs":[{"name":"","type":"uint256","internalType":"uint256"}],"stateMutability":"view"},{"type":"function","name":"harvestAndFundPrize","inputs":[],"outputs":[],"stateMutability":"nonpayable"},{"type":"function","name":"isAdmin","inputs":[{"name":"account","type":"address","internalType":"address"}],"outputs":[{"name":"","type":"bool","internalType":"bool"}],"stateMutability":"view"},{"type":"function","name":"isOperator","inputs":[{"name":"account","type":"address","internalType":"address"}],"outputs":[{"name":"","type":"bool","internalType":"bool"}],"stateMutability":"view"},{"type":"function","name":"isUserVerified","inputs":[{"name":"user","type":"address","internalType":"address"}],"outputs":[{"name":"","type":"bool","internalType":"bool"}],"stateMutability":"view"},{"type":"function","name":"operators","inputs":[{"name":"","type":"address","internalType":"address"}],"outputs":[{"name":"","type":"bool","internalType":"bool"}],"stateMutability":"view"},{"type":"function","name":"owner","inputs":[],"outputs":[{"name":"","type":"address","internalType":"address"}],"stateMutability":"view"},{"type":"function","name":"pause","inputs":[],"outputs":[],"stateMutability":"nonpayable"},{"type":"function","name":"paused","inputs":[],"outputs":[{"name":"","type":"bool","internalType":"bool"}],"stateMutability":"view"},{"type":"function","name":"prizePool","inputs":[],"outputs":[{"name":"","type":"address","internalType":"contract IPrizePool"}],"stateMutability":"view"},{"type":"function","name":"removeAdmin","inputs":[{"name":"admin","type":"address","internalType":"address"}],"outputs":[],"stateMutability":"nonpayable"},{"type":"function","name":"removeOperator","inputs":[{"name":"operator","type":"address","internalType":"address"}],"outputs":[],"stateMutability":"nonpayable"},{"type":"function","name":"removeYieldAdapter","inputs":[],"outputs":[],"stateMutability":"nonpayable"},{"type":"function","name":"renounceOwnership","inputs":[],"outputs":[],"stateMutability":"nonpayable"},{"type":"function","name":"setPrizePool","inputs":[{"name":"_prizePool","type":"address","internalType":"address"}],"outputs":[],"stateMutability":"nonpayable"},{"type":"function","name":"setYieldAdapter","inputs":[{"name":"adapter","type":"address","internalType":"address"}],"outputs":[],"stateMutability":"nonpayable"},{"type":"function","name":"setYieldHarvestInterval","inputs":[{"name":"interval","type":"uint256","internalType":"uint256"}],"outputs":[],"stateMutability":"nonpayable"},{"type":"function","name":"setYieldHarvestThreshold","inputs":[{"name":"threshold","type":"uint256","internalType":"uint256"}],"outputs":[],"stateMutability":"nonpayable"},{"type":"function","name":"transferOwnership","inputs":[{"name":"newOwner","type":"address","internalType":"address"}],"outputs":[],"stateMutability":"nonpayable"},{"type":"function","name":"unpause","inputs":[],"outputs":[],"stateMutability":"nonpayable"},{"type":"function","name":"updateWorldId","inputs":[{"name":"_worldId","type":"address","internalType":"address"}],"outputs":[],"stateMutability":"nonpayable"},{"type":"function","name":"verifyUser","inputs":[{"name":"user","type":"address","internalType":"address"},{"name":"root","type":"uint256","internalType":"uint256"},{"name":"nullifierHash","type":"uint256","internalType":"uint256"},{"name":"proof","type":"uint256[8]","internalType":"uint256[8]"}],"outputs":[],"stateMutability":"nonpayable"},{"type":"function","name":"withdraw","inputs":[{"name":"amount","type":"uint256","internalType":"uint256"}],"outputs":[],"stateMutability":"nonpayable"},{"type":"function","name":"wldToken","inputs":[],"outputs":[{"name":"","type":"address","internalType":"contract IERC20"}],"stateMutability":"view"},{"type":"function","name":"worldId","inputs":[],"outputs":[{"name":"","type":"address","internalType":"contract IWorldID"}],"stateMutability":"view"},{"type":"function","name":"worldIdGroupId","inputs":[],"outputs":[{"name":"","type":"uint256","internalType":"uint256"}],"stateMutability":"view"},{"type":"function","name":"yieldAdapter","inputs":[],"outputs":[{"name":"","type":"address","internalType":"contract IYieldAdapter"}],"stateMutability":"view"},{"type":"function","name":"yieldHarvestInterval","inputs":[],"outputs":[{"name":"","type":"uint256","internalType":"uint256"}],"stateMutability":"view"},{"type":"function","name":"yieldHarvestThreshold","inputs":[],"outputs":[{"name":"","type":"uint256","internalType":"uint256"}],"stateMutability":"view"},{"type":"event","name":"AdminAdded","inputs":[{"name":"admin","type":"address","indexed":true,"internalType":"address"}],"anonymous":false},{"type":"event","name":"AdminRemoved","inputs":[{"name":"admin","type":"address","indexed":true,"internalType":"address"}],"anonymous":false},{"type":"event","name":"Deposit","inputs":[{"name":"user","type":"address","indexed":true,"internalType":"address"},{"name":"amount","type":"uint256","indexed":false,"internalType":"uint256"},{"name":"newBalance","type":"uint256","indexed":false,"internalType":"uint256"}],"anonymous":false},{"type":"event","name":"OperatorAdded","inputs":[{"name":"operator","type":"address","indexed":true,"internalType":"address"}],"anonymous":false},{"type":"event","name":"OperatorRemoved","inputs":[{"name":"operator","type":"address","indexed":true,"internalType":"address"}],"anonymous":false},{"type":"event","name":"OwnershipTransferred","inputs":[{"name":"previousOwner","type":"address","indexed":true,"internalType":"address"},{"name":"newOwner","type":"address","indexed":true,"internalType":"address"}],"anonymous":false},{"type":"event","name":"Paused","inputs":[{"name":"account","type":"address","indexed":false,"internalType":"address"}],"anonymous":false},{"type":"event","name":"Unpaused","inputs":[{"name":"account","type":"address","indexed":false,"internalType":"address"}],"anonymous":false},{"type":"event","name":"UserVerified","inputs":[{"name":"user","type":"address","indexed":true,"internalType":"address"}],"anonymous":false},{"type":"event","name":"Withdraw","inputs":[{"name":"user","type":"address","indexed":true,"internalType":"address"},{"name":"amount","type":"uint256","indexed":false,"internalType":"uint256"},{"name":"newBalance","type":"uint256","indexed":false,"internalType":"uint256"}],"anonymous":false},{"type":"event","name":"YieldAccrued","inputs":[{"name":"amount","type":"uint256","indexed":false,"internalType":"uint256"},{"name":"totalYield","type":"uint256","indexed":false,"internalType":"uint256"}],"anonymous":false},{"type":"error","name":"BelowMinLimit","inputs":[{"name":"value","type":"uint256","internalType":"uint256"},{"name":"limit","type":"uint256","internalType":"uint256"}]},{"type":"error","name":"EnforcedPause","inputs":[]},{"type":"error","name":"ExceedsMaxLimit","inputs":[{"name":"value","type":"uint256","internalType":"uint256"},{"name":"limit","type":"uint256","internalType":"uint256"}]},{"type":"error","name":"ExpectedPause","inputs":[]},{"type":"error","name":"InsufficientBalance","inputs":[{"name":"requested","type":"uint256","internalType":"uint256"},{"name":"available","type":"uint256","internalType":"uint256"}]},{"type":"error","name":"InvalidAmount","inputs":[{"name":"amount","type":"uint256","internalType":"uint256"}]},{"type":"error","name":"InvalidConfiguration","inputs":[]},{"type":"error","name":"InvalidWorldIdProof","inputs":[]},{"type":"error","name":"NotAdmin","inputs":[{"name":"caller","type":"address","internalType":"address"}]},{"type":"error","name":"NotWorldIdVerified","inputs":[{"name":"user","type":"address","internalType":"address"}]},{"type":"error","name":"OwnableInvalidOwner","inputs":[{"name":"owner","type":"address","internalType":"address"}]},{"type":"error","name":"OwnableUnauthorizedAccount","inputs":[{"name":"account","type":"address","internalType":"address"}]},{"type":"error","name":"ReentrancyGuardReentrantCall","inputs":[]},{"type":"error","name":"StrategyNotSet","inputs":[]},{"type":"error","name":"TransferFailed","inputs":[]},{"type":"error","name":"Unauthorized","inputs":[{"name":"caller","type":"address","internalType":"address"}]},{"type":"error","name":"UserAlreadyVerified","inputs":[{"name":"user","type":"address","internalType":"address"}]},{"type":"error","name":"WithdrawalExceedsDeposit","inputs":[{"name":"amount","type":"uint256","internalType":"uint256"},{"name":"deposit","type":"uint256","internalType":"uint256"}]},{"type":"error","name":"ZeroAddress","inputs":[]}],"bytecode":{"object":"0x60c0346200018357601f620024e038819003918201601f191683019291906001600160401b0384118385101762000188578160809284926040968752833981010312620001835762000051816200019e565b6200005f602083016200019e565b82840151929091906001600160a01b0390819062000080906060016200019e565b169182156200016b57600080546001600160a01b0319808216861783559484939290918416907f8be0079c531659141344cd1fd0a4f28419497f9722a3daafe3b4186f6b6457e09080a36001805568056bc75e2d63100000600e5562015180600f55169283156200015a57169182156200014957608052600454161760045560a05242600c555161232c9081620001b482396080518181816104f501528181610c47015281816114cd01528181611b8a0152612195015260a051818181610a530152610e780152f35b845163d92e233d60e01b8152600490fd5b855163d92e233d60e01b8152600490fd5b8551631e4fbdf760e01b815260006004820152602490fd5b600080fd5b634e487b7160e01b600052604160045260246000fd5b51906001600160a01b0382168203620001835756fe6080604081815260048036101561001557600080fd5b600092833560e01c908163039a68a114611d2057508063059d9c7514611aa85780630c2a424f14611a5457806313e7c9d814611a16578063168a4822146119f757806316fa34141461197c5780631785f53c146119165780631e85b02a146118cb57806324d7806c146118815780632e1a7d4d14611458578063336c6d39146113e857806339c1a8e8146113c95780633f4ba83a14611336578063429b62e5146112f857806343d0c32d146112cf5780634773489214611297578063551512de1461121a5780635c975abb146111f557806360246c88146110d15780636937275d146110455780636cb29f5f146110265780636d70f7ae14610fb55780637048027514610f45578063715018a614610eeb578063719ce73e14610ec2578063753e9ef014610e9b57806379ee5e3314610e605780638456cb5914610dc557806385da082b14610d7c5780638da5cb5b14610d54578063962ca49614610d305780639870d7fe14610c765780639be3783d14610c32578063ac8a584a14610b8e578063ace417e014610b50578063b4ca1b1b146108da578063b6b55f2514610471578063bbb85188146103ac578063d6eb552014610318578063ee5c0f51146102745763f2fde38b146101e657600080fd5b34610270576020366003190112610270576101ff611d3c565b90610208611f17565b6001600160a01b0391821692831561025a575050600054826001600160601b0360a01b821617600055167f8be0079c531659141344cd1fd0a4f28419497f9722a3daafe3b4186f6b6457e0600080a380f35b51631e4fbdf760e01b8152908101849052602490fd5b8280fd5b509034610270578260031936011261027057338352600260205260ff81842054161580610304575b6102ed57908291303b156102e957828151809363059d9c7560e01b82528183305af19081156102e057506102cd5750f35b6102d690611d52565b6102dd5780f35b80fd5b513d84823e3d90fd5b5050fd5b602492505190630bd4212160e11b82523390820152fd5b5082546001600160a01b031633141561029c565b503461027057602036600319011261027057610332611d3c565b338452600260205260ff83852054161580610398575b610381576001600160a01b03169182156103745750506001600160601b0360a01b600554161760055580f35b5163d92e233d60e01b8152fd5b506024915190630bd4212160e11b82523390820152fd5b5083546001600160a01b0316331415610348565b5091903461046d578160031936011261046d57600a54600b54600d546005549294919390929091906001600160a01b031680156104625760209083519788809263d2cbf7ad60e01b82525afa908115610457579061041f575b60809550925b815194855260208501528301526060820152f35b506020853d60201161044f575b8161043960209383611d98565b8101031261044a5760809451610405565b600080fd5b3d915061042c565b8251903d90823e3d90fd5b50608095509261040b565b5080fd5b509034610270576020908160031936011261069357823592610491611ed3565b610499611ef4565b83156108c5573385526008835260ff8286205416156108af57670de0b6b3a7640000808510610895575069d3c21bcecceda100000080851161087b575081516370a0823160e01b815233828201526001600160a01b03906024907f000000000000000000000000000000000000000000000000000000000000000083169086818481855afa908115610871578991610844575b50878110610829575033158015610821575b610811578451868101906323b872dd60e01b825233848201523060448201528860648201526064815260a0810181811067ffffffffffffffff8211176107fd57875251899182919082855af1610592611f8e565b90159081156107cc575b506107bc579087939291338552600787528585208054906105bd8a83611e0e565b90556105cb89600a54611e0e565b600a5515610789575b8688846005541692836106a1575b5050505050600654168061063c575b5050507f90890809c654f11d6e72a28fa60149770a0d11ec6c92319d6ceb2bb0a4ea1a159161061e6120b0565b33855260078152818520549082519485528401523392a26001805580f35b803b1561027057835162f3ff7f60e11b81523392810192835260208301879052918391839182908490829060400103925af180156106975761067f575b806105f1565b61068890611d52565b610693578338610679565b8380fd5b83513d84823e3d90fd5b885163095ea7b360e01b81526001600160a01b039094168785019081526020810192909252839182908990829060400103925af1801561077f579187918693610752575b5083600554169087518094819363b6b55f2560e01b83528c898401525af1801561074857908691610719575b8188826105e2565b90809294503d8311610741575b6107308183611d98565b8101031261044a5785918438610711565b503d610726565b85513d86823e3d90fd5b61077190833d8511610778575b6107698183611d98565b810190611e31565b50386106e5565b503d61075f565b86513d87823e3d90fd5b9091929350600d5460001981146107aa57600101600d5587939291906105d4565b634e487b7160e01b8952601185528289fd5b84516312171d8360e31b81528490fd5b805180151592508890836107e4575b5050503861059c565b6107f49350820181019101611e31565b153887816107db565b84604188634e487b7160e01b600052526000fd5b845163d92e233d60e01b81528490fd5b50301561053e565b92505085604494519363cf47918160e01b8552840152820152fd5b90508681813d831161086a575b61085b8183611d98565b8101031261044a57513861052c565b503d610851565b86513d8b823e3d90fd5b846044935192636c3f3ed360e01b84528301526024820152fd5b8460449351926327b0f12160e01b84528301526024820152fd5b602491519063176944cd60e11b82523390820152fd5b836024925191633728b83d60e01b8352820152fd5b503461027057610160366003190112610270576108f5611d3c565b91604435913661016411610ad85761090b611ed3565b60018060a01b0390818516948587526020926008845260ff8589205416610b39578588526009845260ff8589205416610b2957825416908161099b575b505050906009600192858752600881528287209460ff199585878254161790558752528420918254161790557fa6625d2d26e786e2f473111bea4b2fcdbbf1863d883a2359989ce3a103d2972a8280a280f35b84969497959392975163b9209e3360e01b815285898201528381602481865afa879181610b0a575b50610ae057506109d1611dba565b87516109f98582816109ec8183019687815193849201611deb565b8101038084520182611d98565b51902060081c908751848101916001600160601b03199060601b16825260148152610a2381611d7c565b51902060081c91803b15610adc5786916101a48a84938b519687948593633bc778e360e01b8552602435908501527f0000000000000000000000000000000000000000000000000000000000000000602485015260448401528960648401526084830152610100606460a48401375afa9182610ac4575b5050610ab0578451630495fbcd60e11b81528690fd5b60019294919395506009905b919238610948565b610acd90611d52565b610ad8578438610a9a565b8480fd5b8680fd5b915050959091939594929415610afc5750906009600192610abc565b8251630495fbcd60e11b8152fd5b610b22919250853d8711610778576107698183611d98565b90386109c3565b8451630495fbcd60e11b81528390fd5b84516323a6222360e11b8152808401889052602490fd5b50503461046d57602036600319011261046d5760209160ff9082906001600160a01b03610b7b611d3c565b1681526008855220541690519015158152f35b503461027057602036600319011261027057610ba8611d3c565b90338452600260205260ff83852054161580610c1e575b610c0757506001600160a01b03168083526003602052908220805460ff191690557f80c0b871b97b595b16a7741c1b06fed0c6f6f558639f18ccbce50724325dc40d8280a280f35b602490835190630bd4212160e11b82523390820152fd5b5083546001600160a01b0316331415610bbf565b50503461046d578160031936011261046d57517f00000000000000000000000000000000000000000000000000000000000000006001600160a01b03168152602090f35b50903461027057602036600319011261027057610c91611d3c565b338452600260205260ff82852054161580610d1c575b610d06576001600160a01b0316918215610cf8575081835260036020528220805460ff191660011790557fac6fa858e9350a46cec16539926e0fde25b7629f84b5a72bffaae4df888ae86d8280a280f35b905163d92e233d60e01b8152fd5b8151630bd4212160e11b81523381850152602490fd5b5083546001600160a01b0316331415610ca7565b50503461046d578160031936011261046d57602090610d4d611e56565b9051908152f35b50503461046d578160031936011261046d57905490516001600160a01b039091168152602090f35b50903461027057602036600319011261027057338352600260205260ff81842054161580610db1575b6102ed575035600e5580f35b5082546001600160a01b0316331415610da5565b5034610270578260031936011261027057338352600260205260ff82842054161580610e4c575b610e36575060207f62e78cea01bee320cd4e420270b5ea74000d11b0c9f74754ebdbfc544b05a25891610e1d611ed3565b835460ff60a01b1916600160a01b17845551338152a180f35b6024915190630bd4212160e11b82523390820152fd5b5082546001600160a01b0316331415610dec565b50503461046d578160031936011261046d57602090517f00000000000000000000000000000000000000000000000000000000000000008152f35b50346102705782600319360112610270575490516001600160a01b03909116815260209150f35b50503461046d578160031936011261046d5760065490516001600160a01b039091168152602090f35b83346102dd57806003193601126102dd57610f04611f17565b600080546001600160a01b0319811682556001600160a01b03167f8be0079c531659141344cd1fd0a4f28419497f9722a3daafe3b4186f6b6457e08280a380f35b50903461027057602036600319011261027057610f60611d3c565b610f68611f17565b6001600160a01b0316918215610cf8575081835260026020528220805460ff191660011790557f44d6d25963f097ad14f29f06854a01f575648a1ef82f30e562ccd3889717e3398280a280f35b50503461046d57602036600319011261046d57602091906001600160a01b0380610fdd611d3c565b16908184526003855260ff8385205416938415611014575b8415611007575b505050519015158152f35b5416149150388080610ffc565b600286528381205460ff169450610ff5565b50503461046d578160031936011261046d57602090600f549051908152f35b503461027057602036600319011261027057803591338452600260205260ff818520541615806110bd575b6102ed57610e108310611085575050600f5580f35b906020606492519162461bcd60e51b83528201526012602482015271125b9d195c9d985b081d1bdbc81cda1bdc9d60721b6044820152fd5b5083546001600160a01b0316331415611070565b5091903461046d578160031936011261046d57600a54600b54600d54600554929491936001600160a01b0393919290918790851680156111ec5760209084519283809263d2cbf7ad60e01b82525afa9081156106975782916111ba575b50935b6006541680156111af576020908351988980926301d8636360e11b82525afa908115610457579061117c575b60a09650935b8151958652602086015284015260608301526080820152f35b506020863d6020116111a7575b8161119660209383611d98565b8101031261044a5760a0955161115d565b3d9150611189565b5060a0965093611163565b90506020813d6020116111e4575b816111d560209383611d98565b8101031261044a57513861112e565b3d91506111c8565b50508093611131565b50503461046d578160031936011261046d5760ff6020925460a01c1690519015158152f35b5082903461046d57606036600319011261046d57611236611d3c565b6024359160443591906001600160a01b03831680840361044a57611258611f17565b15611289578315611272575061126f939450611fce565b80f35b8551633728b83d60e01b8152908101849052602490fd5b855163d92e233d60e01b8152fd5b50503461046d57602036600319011261046d5760209181906001600160a01b036112bf611d3c565b1681526007845220549051908152f35b50503461046d578160031936011261046d5760055490516001600160a01b039091168152602090f35b50503461046d57602036600319011261046d5760209160ff9082906001600160a01b03611323611d3c565b1681526002855220541690519015158152f35b5034610270578260031936011261027057338352600260205260ff828420541615806113b5575b610e365782549060ff8260a01c16156113a7575060ff60a01b19168255513381527f5db9ee0a495bf2e6ff9c91a7834c1ba4fdd244a5e8aa4e537bd38aeae4b073aa90602090a180f35b8251638dfc202b60e01b8152fd5b5082546001600160a01b031633141561135d565b50503461046d578160031936011261046d57602090600b549051908152f35b503461027057602036600319011261027057611402611d3c565b338452600260205260ff83852054161580611444575b610381576001600160a01b03169182156103745750506001600160601b0360a01b600654161760065580f35b5083546001600160a01b0316331415611418565b509034610270576020908160031936011261069357823592611478611ed3565b611480611ef4565b83156108c55733855260078352818520548481106118675766038d7ea4c6800080861061184b5750808511611831575081516370a0823160e01b80825230838301526001600160a01b03917f00000000000000000000000000000000000000000000000000000000000000008316919088908781602481875afa9081156118275782916117f6575b50888110806117e9575b6116ad575b5050845190815230848201528581602481855afa9081156116a3578891611676575b5086811061165a57509085879392338552600787528186862080549061155f8383611e49565b905561156d82600a54611e49565b600a5514611627575b90611582913390611fce565b60065416806115cf575b5050507ff279e6a1f5e320cca91135676d9cb6e44ca8a08c0b88342bcdb1144f6511b5689133855260078152818520549082519485528401523392a26001805580f35b803b15610270578351630d2c593160e11b81523392810192835260208301879052918391839182908490829060400103925af1801561069757611613575b8061158c565b61161c90611d52565b61069357833861160d565b9192935050600d5480156116475760001901600d55869291908690611576565b634e487b7160e01b885260118452602488fd5b836044918887519263cf47918160e01b84528301526024820152fd5b90508581813d831161169c575b61168d8183611d98565b8101031261044a575138611539565b503d611683565b85513d8a823e3d90fd5b8460055416908751636a80179760e11b815289818981865afa9081156117df5784916117ae575b50885163b68ef55960e01b8152918a838a81875afa9283156117a457908c8c95949392879461176b575b50916117106024949261171594611e49565b611f43565b89519485938492632e1a7d4d60e01b84528b8401525af1801561087157908791611742575b899150611517565b813d8311611764575b6117558183611d98565b8101031261044a57853861173a565b503d61174b565b9650509390915084813d831161179d575b6117868183611d98565b8101031261044a5792518b938a938c6117106116fe565b503d61177c565b8a513d87823e3d90fd5b8094508a8092503d83116117d8575b6117c78183611d98565b8101031261044a578a9251386116d4565b503d6117bd565b89513d86823e3d90fd5b5084600554161515611512565b809250888092503d8311611820575b61180f8183611d98565b8101031261044a5788905138611508565b503d611805565b87513d84823e3d90fd5b84604493519263dfe960e560e01b84528301526024820152fd5b90508460449351926327b0f12160e01b84528301526024820152fd5b84604493519263cf47918160e01b84528301526024820152fd5b50503461046d57602036600319011261046d57602091906001600160a01b03806118a9611d3c565b16908184526002855260ff838520541693841561100757505050519015158152f35b8284346102dd57806003193601126102dd57506118e6611dba565b9080518092602082526119088151809281602086015260208686019101611deb565b601f01601f19168101030190f35b50503461046d57602036600319011261046d57611931611d3c565b611939611f17565b6001600160a01b03168083526002602052908220805460ff191690557fa3b62bc36326052d97ea62d63c3d60308ed4c3ea8ac079dd8499f1e9c4f80c0f8280a280f35b50903461027057602036600319011261027057611997611d3c565b338452600260205260ff828520541615806119e3575b610d06576001600160a01b03169081156119d4575081546001600160a01b03191617905580f35b5163d92e233d60e01b81529050fd5b5083546001600160a01b03163314156119ad565b50503461046d578160031936011261046d57602090600a549051908152f35b50503461046d57602036600319011261046d5760209160ff9082906001600160a01b03611a41611d3c565b1681526003855220541690519015158152f35b509034610270578260031936011261027057338352600260205260ff81842054161580611a94575b6102ed57600580546001600160a01b03191690558280f35b5082546001600160a01b0316331415611a7c565b5091903461046d578160031936011261046d573382526020926003845260ff82842054161580611d0e575b80611cfa575b611ce457611ae5611ed3565b611aed611ef4565b6005546001600160a01b039081168015611cd457816006541615611cc45790858392869486518096819363e8d991d160e01b83525af1928315611cba578593611c8b575b5082611b40575b846001805580f35b611b4c83600b54611e0e565b600b5542600c55600654845163095ea7b360e01b81529082166001600160a01b031683820190815260208101859052879082908190604001038189867f0000000000000000000000000000000000000000000000000000000000000000165af18015611c8157611c64575b506006541690813b15610ad857826024869283875195869485936364595aa360e11b85528401525af18015611c5757611c26575b507ffe2ebf53456a69d7b70affc98b9021c791a9bce3af6fa5d24dfbc2db0f817b549293600b54908351928352820152a18038808080611b38565b92611c517ffe2ebf53456a69d7b70affc98b9021c791a9bce3af6fa5d24dfbc2db0f817b5494611d52565b92611beb565b50505051903d90823e3d90fd5b611c7a90873d8911610778576107698183611d98565b5038611bb7565b85513d88823e3d90fd5b9092508581813d8311611cb3575b611ca38183611d98565b81010312610ad857519138611b31565b503d611c99565b84513d87823e3d90fd5b835163c52a9bd360e01b81528390fd5b8351630fb1a74560e41b81528390fd5b602491519063472511eb60e11b82523390820152fd5b5082546001600160a01b0316331415611ad9565b506002845260ff828420541615611ad3565b84903461046d578160031936011261046d57602090600e548152f35b600435906001600160a01b038216820361044a57565b67ffffffffffffffff8111611d6657604052565b634e487b7160e01b600052604160045260246000fd5b6040810190811067ffffffffffffffff821117611d6657604052565b90601f8019910116810190811067ffffffffffffffff821117611d6657604052565b60405190611dc782611d7c565b60158252741c1bdbdb0b5d1bd9d95d1a195c8b59195c1bdcda5d605a1b6020830152565b60005b838110611dfe5750506000910152565b8181015183820152602001611dee565b91908201809211611e1b57565b634e487b7160e01b600052601160045260246000fd5b9081602091031261044a5751801515810361044a5790565b91908203918211611e1b57565b6005546001600160a01b03168015611ecd5760206004916040519283809263d2cbf7ad60e01b82525afa908115611ec157600091611e92575090565b90506020813d602011611eb9575b81611ead60209383611d98565b8101031261044a575190565b3d9150611ea0565b6040513d6000823e3d90fd5b50600090565b60ff60005460a01c16611ee257565b60405163d93c066560e01b8152600490fd5b600260015414611f05576002600155565b604051633ee5aeb560e01b8152600490fd5b6000546001600160a01b03163303611f2b57565b60405163118cdaa760e01b8152336004820152602490fd5b81158015611f86575b611f8057818102918183041490151715611e1b578115611f6a570490565b634e487b7160e01b600052601260045260246000fd5b91505090565b508215611f4c565b3d15611fc9573d9067ffffffffffffffff8211611d665760405191611fbd601f8201601f191660200184611d98565b82523d6000602084013e565b606090565b916001600160a01b0382161561209e5780156120865760405163a9059cbb60e01b602082019081526001600160a01b03939093166024820152604480820192909252908152600092839290918390612027606482611d98565b51925af1612033611f8e565b9015908115612056575b5061204457565b6040516312171d8360e31b8152600490fd5b805180151592508261206b575b50503861203d565b61207e9250602080918301019101611e31565b153880612063565b60249060405190633728b83d60e01b82526004820152fd5b60405163d92e233d60e01b8152600490fd5b6005546001600160a01b0391908216801580156122ea575b6122e5576120db600c54600f5490611e0e565b421092604091825194637c26287160e01b86526020958681600481865afa9081156122da576000916122ad575b50600e5411158115916122a5575b50612123575b5050509050565b9084600092600485518095819363e8d991d160e01b83525af191821561224357600092612276575b50811561211c5761215e82600b54611e0e565b600b5542600c55600654835163095ea7b360e01b81529082166001600160a01b0316600482015260248101839052858160448160007f000000000000000000000000000000000000000000000000000000000000000087165af1801561226b5761224e575b506006541693843b1561044a576000809560248551809881936364595aa360e11b83528760048401525af1948515612243577ffe2ebf53456a69d7b70affc98b9021c791a9bce3af6fa5d24dfbc2db0f817b549495612234575b50600b54908351928352820152a18038808061211c565b61223d90611d52565b3861221d565b83513d6000823e3d90fd5b61226490863d8811610778576107698183611d98565b50386121c3565b84513d6000823e3d90fd5b90918582813d831161229e575b61228d8183611d98565b810103126102dd575051903861214b565b503d612283565b905038612116565b90508681813d83116122d3575b6122c48183611d98565b8101031261044a575138612108565b503d6122ba565b85513d6000823e3d90fd5b509050565b508260065416156120c856fea264697066735822122089fa02c4b66f36d1b159fc88172ba8e2c75f8071a5e965f93a7c5e46b02eba7164736f6c63430008180033","linkReferences":{}},"methodIdentifiers":{"WORLD_ID_ACTION()":"1e85b02a","accrueYield()":"059d9c75","addAdmin(address)":"70480275","addOperator(address)":"9870d7fe","admins(address)":"429b62e5","deposit(uint256)":"b6b55f25","emergencyWithdraw(address,uint256,address)":"551512de","getCurrentAPY()":"962ca496","getPoolInfo()":"60246c88","getPoolStats()":"bbb85188","getTotalDeposits()":"168a4822","getTotalYieldGenerated()":"39c1a8e8","getUserBalance(address)":"47734892","harvestAndFundPrize()":"ee5c0f51","isAdmin(address)":"24d7806c","isOperator(address)":"6d70f7ae","isUserVerified(address)":"ace417e0","operators(address)":"13e7c9d8","owner()":"8da5cb5b","pause()":"8456cb59","paused()":"5c975abb","prizePool()":"719ce73e","removeAdmin(address)":"1785f53c","removeOperator(address)":"ac8a584a","removeYieldAdapter()":"0c2a424f","renounceOwnership()":"715018a6","setPrizePool(address)":"336c6d39","setYieldAdapter(address)":"d6eb5520","setYieldHarvestInterval(uint256)":"6937275d","setYieldHarvestThreshold(uint256)":"85da082b","transferOwnership(address)":"f2fde38b","unpause()":"3f4ba83a","updateWorldId(address)":"16fa3414","verifyUser(address,uint256,uint256,uint256[8])":"b4ca1b1b","withdraw(uint256)":"2e1a7d4d","wldToken()":"9be3783d","worldId()":"753e9ef0","worldIdGroupId()":"79ee5e33","yieldAdapter()":"43d0c32d","yieldHarvestInterval()":"6cb29f5f","yieldHarvestThreshold()":"039a68a1"},"id":1}