{"abi":[{"type":"constructor","inputs":[{"name":"_wldToken","type":"address","internalType":"address"},{"name":"_usdcToken","type":"address","internalType":"address"},{"name":"_factory","type":"address","internalType":"address"},{"name":"_swapRouter","type":"address","internalType":"address"},{"name":"_tickLower","type":"int24","internalType":"int24"},{"name":"_tickUpper","type":"int24","internalType":"int24"},{"name":"initialOwner","type":"address","internalType":"address"}],"stateMutability":"nonpayable"},{"type":"function","name":"POOL_FEE","inputs":[],"outputs":[{"name":"","type":"uint24","internalType":"uint24"}],"stateMutability":"view"},{"type":"function","name":"addAdmin","inputs":[{"name":"admin","type":"address","internalType":"address"}],"outputs":[],"stateMutability":"nonpayable"},{"type":"function","name":"addOperator","inputs":[{"name":"operator","type":"address","internalType":"address"}],"outputs":[],"stateMutability":"nonpayable"},{"type":"function","name":"admins","inputs":[{"name":"","type":"address","internalType":"address"}],"outputs":[{"name":"","type":"bool","internalType":"bool"}],"stateMutability":"view"},{"type":"function","name":"deposit","inputs":[{"name":"amount","type":"uint256","internalType":"uint256"}],"outputs":[{"name":"shares","type":"uint256","internalType":"uint256"}],"stateMutability":"nonpayable"},{"type":"function","name":"emergencyWithdraw","inputs":[],"outputs":[{"name":"","type":"uint256","internalType":"uint256"}],"stateMutability":"nonpayable"},{"type":"function","name":"factory","inputs":[],"outputs":[{"name":"","type":"address","internalType":"contract IUniswapV3Factory"}],"stateMutability":"view"},{"type":"function","name":"getAPY","inputs":[],"outputs":[{"name":"","type":"uint256","internalType":"uint256"}],"stateMutability":"view"},{"type":"function","name":"getShareValue","inputs":[],"outputs":[{"name":"","type":"uint256","internalType":"uint256"}],"stateMutability":"view"},{"type":"function","name":"getTotalDeposited","inputs":[],"outputs":[{"name":"","type":"uint256","internalType":"uint256"}],"stateMutability":"view"},{"type":"function","name":"getTotalShares","inputs":[],"outputs":[{"name":"","type":"uint256","internalType":"uint256"}],"stateMutability":"view"},{"type":"function","name":"getYield","inputs":[],"outputs":[{"name":"","type":"uint256","internalType":"uint256"}],"stateMutability":"view"},{"type":"function","name":"harvestYield","inputs":[],"outputs":[{"name":"","type":"uint256","internalType":"uint256"}],"stateMutability":"nonpayable"},{"type":"function","name":"isAdmin","inputs":[{"name":"account","type":"address","internalType":"address"}],"outputs":[{"name":"","type":"bool","internalType":"bool"}],"stateMutability":"view"},{"type":"function","name":"isOperator","inputs":[{"name":"account","type":"address","internalType":"address"}],"outputs":[{"name":"","type":"bool","internalType":"bool"}],"stateMutability":"view"},{"type":"function","name":"liquidityAmount","inputs":[],"outputs":[{"name":"","type":"uint128","internalType":"uint128"}],"stateMutability":"view"},{"type":"function","name":"migrateStrategy","inputs":[{"name":"newStrategy","type":"address","internalType":"address"}],"outputs":[],"stateMutability":"nonpayable"},{"type":"function","name":"operators","inputs":[{"name":"","type":"address","internalType":"address"}],"outputs":[{"name":"","type":"bool","internalType":"bool"}],"stateMutability":"view"},{"type":"function","name":"owner","inputs":[],"outputs":[{"name":"","type":"address","internalType":"address"}],"stateMutability":"view"},{"type":"function","name":"pause","inputs":[],"outputs":[],"stateMutability":"nonpayable"},{"type":"function","name":"paused","inputs":[],"outputs":[{"name":"","type":"bool","internalType":"bool"}],"stateMutability":"view"},{"type":"function","name":"pool","inputs":[],"outputs":[{"name":"","type":"address","internalType":"contract IUniswapV3Pool"}],"stateMutability":"view"},{"type":"function","name":"removeAdmin","inputs":[{"name":"admin","type":"address","internalType":"address"}],"outputs":[],"stateMutability":"nonpayable"},{"type":"function","name":"removeOperator","inputs":[{"name":"operator","type":"address","internalType":"address"}],"outputs":[],"stateMutability":"nonpayable"},{"type":"function","name":"renounceOwnership","inputs":[],"outputs":[],"stateMutability":"nonpayable"},{"type":"function","name":"setStrategy","inputs":[{"name":"strategy","type":"address","internalType":"address"}],"outputs":[],"stateMutability":"nonpayable"},{"type":"function","name":"sharesOf","inputs":[{"name":"account","type":"address","internalType":"address"}],"outputs":[{"name":"","type":"uint256","internalType":"uint256"}],"stateMutability":"view"},{"type":"function","name":"swapRouter","inputs":[],"outputs":[{"name":"","type":"address","internalType":"contract ISwapRouter"}],"stateMutability":"view"},{"type":"function","name":"tickLower","inputs":[],"outputs":[{"name":"","type":"int24","internalType":"int24"}],"stateMutability":"view"},{"type":"function","name":"tickUpper","inputs":[],"outputs":[{"name":"","type":"int24","internalType":"int24"}],"stateMutability":"view"},{"type":"function","name":"totalDeposited","inputs":[],"outputs":[{"name":"","type":"uint256","internalType":"uint256"}],"stateMutability":"view"},{"type":"function","name":"totalShares","inputs":[],"outputs":[{"name":"","type":"uint256","internalType":"uint256"}],"stateMutability":"view"},{"type":"function","name":"transferOwnership","inputs":[{"name":"newOwner","type":"address","internalType":"address"}],"outputs":[],"stateMutability":"nonpayable"},{"type":"function","name":"uniswapV3MintCallback","inputs":[{"name":"amount0Owed","type":"uint256","internalType":"uint256"},{"name":"amount1Owed","type":"uint256","internalType":"uint256"},{"name":"data","type":"bytes","internalType":"bytes"}],"outputs":[],"stateMutability":"nonpayable"},{"type":"function","name":"unpause","inputs":[],"outputs":[],"stateMutability":"nonpayable"},{"type":"function","name":"updateTickRange","inputs":[{"name":"_tickLower","type":"int24","internalType":"int24"},{"name":"_tickUpper","type":"int24","internalType":"int24"}],"outputs":[],"stateMutability":"nonpayable"},{"type":"function","name":"usdcToken","inputs":[],"outputs":[{"name":"","type":"address","internalType":"contract IERC20"}],"stateMutability":"view"},{"type":"function","name":"withdraw","inputs":[{"name":"shares","type":"uint256","internalType":"uint256"}],"outputs":[{"name":"amount","type":"uint256","internalType":"uint256"}],"stateMutability":"nonpayable"},{"type":"function","name":"wldToken","inputs":[],"outputs":[{"name":"","type":"address","internalType":"contract IERC20"}],"stateMutability":"view"},{"type":"function","name":"yieldAmount","inputs":[],"outputs":[{"name":"","type":"uint256","internalType":"uint256"}],"stateMutability":"view"},{"type":"event","name":"AdminAdded","inputs":[{"name":"admin","type":"address","indexed":true,"internalType":"address"}],"anonymous":false},{"type":"event","name":"AdminRemoved","inputs":[{"name":"admin","type":"address","indexed":true,"internalType":"address"}],"anonymous":false},{"type":"event","name":"FeesCollected","inputs":[{"name":"wldFees","type":"uint256","indexed":false,"internalType":"uint256"},{"name":"usdcFees","type":"uint256","indexed":false,"internalType":"uint256"}],"anonymous":false},{"type":"event","name":"FundsDeposited","inputs":[{"name":"amount","type":"uint256","indexed":false,"internalType":"uint256"},{"name":"shares","type":"uint256","indexed":false,"internalType":"uint256"}],"anonymous":false},{"type":"event","name":"FundsWithdrawn","inputs":[{"name":"shares","type":"uint256","indexed":false,"internalType":"uint256"},{"name":"amount","type":"uint256","indexed":false,"internalType":"uint256"}],"anonymous":false},{"type":"event","name":"LiquidityAdded","inputs":[{"name":"wldAmount","type":"uint256","indexed":false,"internalType":"uint256"},{"name":"usdcAmount","type":"uint256","indexed":false,"internalType":"uint256"},{"name":"liquidity","type":"uint128","indexed":false,"internalType":"uint128"}],"anonymous":false},{"type":"event","name":"LiquidityRemoved","inputs":[{"name":"wldAmount","type":"uint256","indexed":false,"internalType":"uint256"},{"name":"usdcAmount","type":"uint256","indexed":false,"internalType":"uint256"},{"name":"liquidity","type":"uint128","indexed":false,"internalType":"uint128"}],"anonymous":false},{"type":"event","name":"OperatorAdded","inputs":[{"name":"operator","type":"address","indexed":true,"internalType":"address"}],"anonymous":false},{"type":"event","name":"OperatorRemoved","inputs":[{"name":"operator","type":"address","indexed":true,"internalType":"address"}],"anonymous":false},{"type":"event","name":"OwnershipTransferred","inputs":[{"name":"previousOwner","type":"address","indexed":true,"internalType":"address"},{"name":"newOwner","type":"address","indexed":true,"internalType":"address"}],"anonymous":false},{"type":"event","name":"Paused","inputs":[{"name":"account","type":"address","indexed":false,"internalType":"address"}],"anonymous":false},{"type":"event","name":"StrategyChanged","inputs":[{"name":"oldStrategy","type":"address","indexed":false,"internalType":"address"},{"name":"newStrategy","type":"address","indexed":false,"internalType":"address"}],"anonymous":false},{"type":"event","name":"Unpaused","inputs":[{"name":"account","type":"address","indexed":false,"internalType":"address"}],"anonymous":false},{"type":"event","name":"YieldHarvested","inputs":[{"name":"amount","type":"uint256","indexed":false,"internalType":"uint256"}],"anonymous":false},{"type":"error","name":"EnforcedPause","inputs":[]},{"type":"error","name":"ExpectedPause","inputs":[]},{"type":"error","name":"InsufficientBalance","inputs":[{"name":"requested","type":"uint256","internalType":"uint256"},{"name":"available","type":"uint256","internalType":"uint256"}]},{"type":"error","name":"InvalidAmount","inputs":[{"name":"amount","type":"uint256","internalType":"uint256"}]},{"type":"error","name":"InvalidConfiguration","inputs":[]},{"type":"error","name":"NotAdmin","inputs":[{"name":"caller","type":"address","internalType":"address"}]},{"type":"error","name":"OwnableInvalidOwner","inputs":[{"name":"owner","type":"address","internalType":"address"}]},{"type":"error","name":"OwnableUnauthorizedAccount","inputs":[{"name":"account","type":"address","internalType":"address"}]},{"type":"error","name":"ReentrancyGuardReentrantCall","inputs":[]},{"type":"error","name":"SafeERC20FailedOperation","inputs":[{"name":"token","type":"address","internalType":"address"}]},{"type":"error","name":"ZeroAddress","inputs":[]}],"bytecode":{"object":"0x61010060409080825234620002ab5760e081620022008038038091620000268285620002b0565b833981010312620002ab576200003c81620002ea565b6200004a60208301620002ea565b62000057848401620002ea565b60c06200006760608601620002ea565b936200007660808701620002ff565b946200008560a08801620002ff565b966001600160a01b039384916200009d9101620002ea565b16918215620002935783808080936000968288548260018060a01b03198216178a55167f8be0079c531659141344cd1fd0a4f28419497f9722a3daafe3b4186f6b6457e08980a36001805516978860805216958660a05216918260c0521660e05260206004549760b81b9662ffffff60a01b9060a01b1694606462ffffff60b81b978989168865ffffffffffff60a01b198d1617176004558b519485938492630b4c774160e11b845260048401526024830152610bb860448301525afa9182156200028857809262000240575b5050169384156200022f5760018060d01b031916179116171760045551611ef190816200030f82396080518181816104530152818161065a01528181610725015281816109a701528181610b0001528181610d860152818161137c0152818161198001528181611af70152611be1015260a05181818161049a0152818161078501528181610976015281816115090152818161193501528181611b420152611c0c015260c05181610a46015260e051818181610a8a015281816119110152611ad30152f35b855163c52a9bd360e01b8152600490fd5b9091506020823d6020116200027f575b816200025f60209383620002b0565b810103126200027c57506200027490620002ea565b38806200016a565b80fd5b3d915062000250565b8851903d90823e3d90fd5b8851631e4fbdf760e01b815260006004820152602490fd5b600080fd5b601f909101601f19168101906001600160401b03821190821017620002d457604052565b634e487b7160e01b600052604160045260246000fd5b51906001600160a01b0382168203620002ab57565b51908160020b8203620002ab5756fe608060408181526004918236101561001657600080fd5b600092833560e01c91826311eac855146114f55750816313e7c9d8146114b657816316f0115b1461148e5781631785f53c1461142657816324d7806c146113d95781632e1a7d4d1461125f57816333a100ca146111d95781633a98ef39146108d85781633f4ba83a14611145578163429b62e514611106578163437c3289146110e257816355b812a8146110be57816359c4f9051461109a5781635c975abb146110755781636d70f7ae146110015781637048027514610f8d57816370baed4314610f65578163715018a614610f085781637c26287114610d525781638456cb5914610e825781638da5cb5b14610e5a5781639870d7fe14610db55781639be3783d14610d71578163a04f663914610d52578163ac8a584a14610cc4578163b68ef55914610ca5578163b6b55f2514610ab9578163c31c9c0714610a75578163c45a015514610a31578163d2cbf7ad14610a14578163d3487997146108f7578163d5002f2e146108d8578163db2e21bc146106b4578163dd1b9c4a14610697578163e8d991d1146105a7578163effe48891461039f578163f2fde38b14610310578163f5eb42dc146102d2578163fafa6c69146101fe575063ff50abdc146101dd57600080fd5b346101fa57816003193601126101fa576020906007549051908152f35b5080fd5b8383346101fa5760203660031901126101fa5782356001600160a01b0381811694918590036102ce5761022f611655565b338452600260205260ff83852054161590816102c0575b506102aa57507f254c88e7a2ea123aeeb89b7cc413fb949188fefcdb7584c4f3d493294daf65c591926001600160801b03600954168061029b575b5061028a611d07565b50508151903082526020820152a180f35b6102a4906116e9565b50610281565b6024915190630bd4212160e11b82523390820152fd5b905083541633141585610246565b8380fd5b90503461030c57602036600319011261030c57356001600160a01b0381169081900361030c57828291602094526005845220549051908152f35b8280fd5b9190503461030c57602036600319011261030c576001600160a01b0382358181169391929084900361039b57610344611629565b831561038557505082546001600160a01b0319811683178455167f8be0079c531659141344cd1fd0a4f28419497f9722a3daafe3b4186f6b6457e08380a380f35b51631e4fbdf760e01b8152908101849052602490fd5b8480fd5b9190503461030c578060031936011261030c5781358060020b81036102ce57602435908160020b820361039b573385526020916002835260ff84872054161580610593575b61057d576001600160801b03600954168061056e575b50845460b89190911b62ffffff60b81b1662ffffff60a01b60a09390931b9290921665ffffffffffff60a01b199091161717835581516370a0823160e01b808252308286015290936001600160a01b03929182866024817f000000000000000000000000000000000000000000000000000000000000000088165afa95861561056457879661052e575b50906024839286519586938492835230908301527f0000000000000000000000000000000000000000000000000000000000000000165afa928315610525575084926104f7575b5050811515806104ee575b6104de578280f35b6104e791611bb1565b5038808280f35b508015156104d6565b90809250813d831161051e575b61050e8183611607565b8101031261030c575138806104cb565b503d610504565b513d86823e3d90fd5b919095508282813d831161055d575b6105478183611607565b81010312610559579051946024610484565b8680fd5b503d61053d565b85513d89823e3d90fd5b610577906116e9565b506103fa565b8351630bd4212160e11b81523381870152602490fd5b5085546001600160a01b03163314156103e4565b5050346101fa57816003193601126101fa57806020926105c5611655565b6105cd611676565b7f49d512bf9cb224241c05691e73eb9fab078cf350c7dbcbcf66788f1fc0cc8b0b6105f6611d07565b94908386610683575b6106099082611581565b958660085586610653575b7feb2d114a827fe0da3db4c0e374010959cf461f7ed76987aeff51666dea9add9b888451898152a1825191825287820152a16008556001805551908152f35b61067e87337f0000000000000000000000000000000000000000000000000000000000000000611a42565b610614565b5061060961069087611901565b90506105ff565b5050346101fa57816003193601126101fa5760209051610bb88152f35b9190503461030c578260031936011261030c576106cf611655565b6106d7611676565b3383526020926002845260ff828220541615806108c4575b6108ae576001600160801b03600954168061089f575b5061070e611d07565b505081516370a0823160e01b8082523085830152937f000000000000000000000000000000000000000000000000000000000000000091906001600160a01b039087836024818588165afa928315610895579088918694610864575b506024849885610854575b88519485938492835230908301527f0000000000000000000000000000000000000000000000000000000000000000165afa90811561084a57849161081d575b50806107e4575b50505080600755806006556008556001600160801b0319600954166009556001805551908152f35b6108029395506107f390611901565b91828061080b575b5050611581565b913880806107bc565b610816913390611a42565b38826107fb565b90508681813d8311610843575b6108348183611607565b810103126102ce5751386107b5565b503d61082a565b85513d86823e3d90fd5b61085f863389611a42565b610775565b8281939295503d831161088e575b61087c8183611607565b8101031261039b57879051923861076a565b503d610872565b86513d87823e3d90fd5b6108a8906116e9565b50610705565b8151630bd4212160e11b81523381850152602490fd5b5080546001600160a01b03163314156106ef565b5050346101fa57816003193601126101fa576020906006549051908152f35b9190503461030c57606036600319011261030c5781356024359160443567ffffffffffffffff80821161055957366023830112156105595781860135908111610559573691016024011161039b5783546001600160a01b039290831691338390036109d25750806109a1575b50508161096e578380f35b61099a9254167f0000000000000000000000000000000000000000000000000000000000000000611a42565b3880808380f35b6109cb917f0000000000000000000000000000000000000000000000000000000000000000611a42565b3880610963565b5162461bcd60e51b8152602081870181905260248201527f556e69737761705633416461707465723a20496e76616c69642063616c6c65726044820152606490fd5b5050346101fa57816003193601126101fa576020905161012c8152f35b5050346101fa57816003193601126101fa57517f00000000000000000000000000000000000000000000000000000000000000006001600160a01b03168152602090f35b5050346101fa57816003193601126101fa57517f00000000000000000000000000000000000000000000000000000000000000006001600160a01b03168152602090f35b9190503461030c57602036600319011261030c57813592610ad8611655565b610ae0611676565b8315610c8f5781516323b872dd60e01b82523384523060245260448590527f000000000000000000000000000000000000000000000000000000000000000060208360648180855af16001845114811615610c70575b8285528360605215610c54575050610b648460011c610b5e610b58828861158e565b91611ac3565b90611bb1565b600654939084610c2857610b926001600160801b03821680965b610b8a89600754611581565b600755611581565b600655600954916001600160801b038092168284160190828211610c1557507f26679fa1f3868c950e9362f1106cf73f3318de0280e0411a3c68e4b463eadd4f93859360209893859316906001600160801b031916176009553381526005885220610bfe868254611581565b905581519081528486820152a16001805551908152f35b634e487b7160e01b855260119052602484fd5b610b92610c4d6001600160801b03610c4288828616611538565b906009541690611561565b8096610b7e565b635274afe760e01b82526001600160a01b031684820152602490fd5b6001811516610c8657813b15153d151616610b36565b823d85823e3d90fd5b50916024925191633728b83d60e01b8352820152fd5b5050346101fa57816003193601126101fa576020906007549051908152f35b9190503461030c57602036600319011261030c5781356001600160a01b03818116939184900361039b57338552600260205260ff8386205416159081610d44575b506102aa575081835260036020528220805460ff191690557f80c0b871b97b595b16a7741c1b06fed0c6f6f558639f18ccbce50724325dc40d8280a280f35b905084541633141538610d05565b5050346101fa57816003193601126101fa576020906008549051908152f35b5050346101fa57816003193601126101fa57517f00000000000000000000000000000000000000000000000000000000000000006001600160a01b03168152602090f35b9190503461030c57602036600319011261030c5781356001600160a01b03818116939184900361039b57338552600260205260ff8386205416159081610e4c575b506102aa578215610e3e575081835260036020528220805460ff191660011790557fac6fa858e9350a46cec16539926e0fde25b7629f84b5a72bffaae4df888ae86d8280a280f35b905163d92e233d60e01b8152fd5b905084541633141538610df6565b5050346101fa57816003193601126101fa57905490516001600160a01b039091168152602090f35b90503461030c578260031936011261030c57338352600260205260ff82842054161580610ef4575b6102aa575060207f62e78cea01bee320cd4e420270b5ea74000d11b0c9f74754ebdbfc544b05a25891610edb611655565b835460ff60a01b1916600160a01b17845551338152a180f35b5082546001600160a01b0316331415610eaa565b8334610f625780600319360112610f6257610f21611629565b80546001600160a01b03198116825581906001600160a01b03167f8be0079c531659141344cd1fd0a4f28419497f9722a3daafe3b4186f6b6457e08280a380f35b80fd5b5050346101fa57816003193601126101fa576020906001600160801b03600954169051908152f35b9190503461030c57602036600319011261030c5781356001600160a01b03811692908390036102ce57610fbe611629565b8215610e3e575081835260026020528220805460ff191660011790557f44d6d25963f097ad14f29f06854a01f575648a1ef82f30e562ccd3889717e3398280a280f35b839150346101fa5760203660031901126101fa576001600160a01b039290358381169081900361030c576020938184526003855260ff8385205416938415611063575b8415611056575b505050519015158152f35b541614915083808061104b565b600286528381205460ff169450611044565b5050346101fa57816003193601126101fa5760ff6020925460a01c1690519015158152f35b90503461030c578260031936011261030c57602092505460a01c60020b9051908152f35b90503461030c578260031936011261030c57602092505460b81c60020b9051908152f35b5050346101fa57816003193601126101fa576020906110ff61159b565b9051908152f35b90503461030c57602036600319011261030c57356001600160a01b0381169081900361030c57818360ff92602095526002855220541690519015158152f35b90503461030c578260031936011261030c57338352600260205260ff828420541615806111c5575b6102aa5782549060ff8260a01c16156111b7575060ff60a01b19168255513381527f5db9ee0a495bf2e6ff9c91a7834c1ba4fdd244a5e8aa4e537bd38aeae4b073aa90602090a180f35b8251638dfc202b60e01b8152fd5b5082546001600160a01b031633141561116d565b8383346101fa5760203660031901126101fa5782356001600160a01b0381811694918590036102ce57338452600260205260ff8385205416159081611251575b506102aa57507f254c88e7a2ea123aeeb89b7cc413fb949188fefcdb7584c4f3d493294daf65c591928151908482526020820152a180f35b905083541633141585611219565b9190503461030c57602036600319011261030c5781359261127e611655565b611286611676565b8315610c8f573381526005602052818120548085116113bd57506006548085116113bd576112cc906001600160801b039182916112c7836009541689611538565b611561565b16906112eb6112e56112dd846116e9565b919091611901565b90611581565b94600754868082116000146113b5576113039161158e565b6007556113128760065461158e565b600655600954928284160390828211610c1557507fd66662c0ded9e58fd31d5e44944bcfd07ffc15e6927ecc1382e7941cb7bd24c493859360209893859316906001600160801b03191617600955338152600588522061137382825461158e565b90556113a085337f0000000000000000000000000000000000000000000000000000000000000000611a42565b81519081528486820152a16001805551908152f35b505083611303565b916044949150519263cf47918160e01b84528301526024820152fd5b839150346101fa5760203660031901126101fa576001600160a01b039290358381169081900361030c576020938184526002855260ff838520541693841561105657505050519015158152f35b90503461030c57602036600319011261030c57356001600160a01b038116919082900361030c57611455611629565b81835260026020528220805460ff191690557fa3b62bc36326052d97ea62d63c3d60308ed4c3ea8ac079dd8499f1e9c4f80c0f8280a280f35b90503461030c578260031936011261030c575490516001600160a01b03909116815260209150f35b90503461030c57602036600319011261030c57356001600160a01b0381169081900361030c57818360ff92602095526003855220541690519015158152f35b8490346101fa57816003193601126101fa577f00000000000000000000000000000000000000000000000000000000000000006001600160a01b03168152602090f35b8181029291811591840414171561154b57565b634e487b7160e01b600052601160045260246000fd5b811561156b570490565b634e487b7160e01b600052601260045260246000fd5b9190820180921161154b57565b9190820391821161154b57565b60065480156115ce5760075490670de0b6b3a76400009182810292818404149015171561154b576115cb91611561565b90565b50600090565b610100810190811067ffffffffffffffff8211176115f157604052565b634e487b7160e01b600052604160045260246000fd5b90601f8019910116810190811067ffffffffffffffff8211176115f157604052565b6000546001600160a01b0316330361163d57565b60405163118cdaa760e01b8152336004820152602490fd5b60ff60005460a01c1661166457565b60405163d93c066560e01b8152600490fd5b600260015414611687576002600155565b604051633ee5aeb560e01b8152600490fd5b91908260409103126116af576020825192015190565b600080fd5b51906001600160801b03821682036116af57565b91908260409103126116af576115cb60206116e2846116b4565b93016116b4565b906001600160801b03809216918215611891576004549260018060a01b03809160646040809781519283809263a34123a760e01b82528060a01c60020b60048301528060b81c60020b60248301528660448301526000978891165af193841561188757879186918591869761184f575b50908560a4926004548587519a8b9788966309e3d67b60e31b88523060048901528460a01c60020b60248901528460b81c60020b6044890152166064870152166084850152165af19283156118455782936117f0575b5090606091847f703377a611e9efe8ea84a30f6ed2631cbd0b85ce5d1e2b66d7ca44cd488d2562949588519316958684521696876020840152820152a19190565b7f703377a611e9efe8ea84a30f6ed2631cbd0b85ce5d1e2b66d7ca44cd488d256293506060925061183690873d891161183e575b61182e8183611607565b8101906116c8565b9350916117af565b503d611824565b86513d84823e3d90fd5b8691975060a4925061187690853d8711611880575b61186e8183611607565b810190611699565b9790925090611759565b503d611864565b87513d85823e3d90fd5b50600091508190565b91909160e06101008201938160018060a01b039182815116855282602082015116602086015262ffffff60408201511660408601528260608201511660608601526080810151608086015260a081015160a086015260c081015160c0860152015116910152565b80156115ce576001600160a01b037f00000000000000000000000000000000000000000000000000000000000000008116917f000000000000000000000000000000000000000000000000000000000000000091611960828585611da6565b61012c42019081421161154b57806040519461197b866115d4565b1684527f0000000000000000000000000000000000000000000000000000000000000000166020840152610bb86040840152306060840152608083015260a082015260206119ef600093838560c0819601528460e082015260405194858094819363414bf38960e01b83526004830161189a565b03925af1918215611a36578092611a0557505090565b9091506020823d602011611a2e575b81611a2160209383611607565b81010312610f6257505190565b3d9150611a14565b604051903d90823e3d90fd5b60405163a9059cbb60e01b60009081526001600160a01b039384166004526024949094529260209060448180855af1600160005114811615611aa3575b8360405215611a8d57505050565b635274afe760e01b835216600482015260249150fd5b6001811516611ab957813b15153d151616611a7f565b833d6000823e3d90fd5b80156115ce576001600160a01b037f00000000000000000000000000000000000000000000000000000000000000008116917f000000000000000000000000000000000000000000000000000000000000000091611b22828585611da6565b61012c42019081421161154b578060405194611b3d866115d4565b1684527f0000000000000000000000000000000000000000000000000000000000000000166020840152610bb86040840152306060840152608083015260a082015260206119ef600093838560c0819601528460e082015260405194858094819363414bf38960e01b83526004830161189a565b80158015611cff575b611cf85760c46001600160801b03600092611c3060018060a01b0395611c058388600454167f0000000000000000000000000000000000000000000000000000000000000000611da6565b86600454167f0000000000000000000000000000000000000000000000000000000000000000611da6565b169260045490604092839283519586938492633c8a7d8d60e01b84523060048501528060a01c60020b60248501528060b81c60020b604485015289606485015260a060848501528260a4850152165af18015611ced5791836060927f2e14f1e424c994a2875aa3f744f2627c2adeb02974cfa360587bde90385ddfa994600093600091611cca575b5081519384526020840152820152a190565b905081611ce49294503d85116118805761186e8183611607565b92909238611cb8565b50513d6000823e3d90fd5b5050600090565b508115611bba565b60045490604051916309e3d67b60e31b83523060048401528060a01c60020b60248401528060b81c60020b604484015260408360a48160006001600160801b039586606484015286608484015260018060a01b03165af1928315611d9a57600090600094611d78575b508116921690565b829450611d94915060403d60401161183e5761182e8183611607565b93611d70565b6040513d6000823e3d90fd5b60405163095ea7b360e01b60008181526001600160a01b0394851660048190526024879052919591929060209060448180885af1600160005114811615611eae575b8160405215611dfa575b505050505050565b60206000878152846004528060245260448180885af1600160005114811615611e8e575b8160405215611e7757509060209160009160405196835260045260245260448180855af1600160005114811615611e61575b8360405215611a8d57808080611df2565b6001811516611ab957813b15153d151616611e50565b635274afe760e01b81528385166004820152602490fd5b6001811516611ea457843b15153d151616611e1e565b503d6000823e3d90fd5b843b15153d151616611de856fea2646970667358221220ef6a827dde86c75555de2b40638b89511a0875a2bb7bbd799928a3f1808354bc64736f6c63430008180033","linkReferences":{}},"methodIdentifiers":{"POOL_FEE()":"dd1b9c4a","addAdmin(address)":"70480275","addOperator(address)":"9870d7fe","admins(address)":"429b62e5","deposit(uint256)":"b6b55f25","emergencyWithdraw()":"db2e21bc","factory()":"c45a0155","getAPY()":"d2cbf7ad","getShareValue()":"437c3289","getTotalDeposited()":"b68ef559","getTotalShares()":"d5002f2e","getYield()":"7c262871","harvestYield()":"e8d991d1","isAdmin(address)":"24d7806c","isOperator(address)":"6d70f7ae","liquidityAmount()":"70baed43","migrateStrategy(address)":"fafa6c69","operators(address)":"13e7c9d8","owner()":"8da5cb5b","pause()":"8456cb59","paused()":"5c975abb","pool()":"16f0115b","removeAdmin(address)":"1785f53c","removeOperator(address)":"ac8a584a","renounceOwnership()":"715018a6","setStrategy(address)":"33a100ca","sharesOf(address)":"f5eb42dc","swapRouter()":"c31c9c07","tickLower()":"59c4f905","tickUpper()":"55b812a8","totalDeposited()":"ff50abdc","totalShares()":"3a98ef39","transferOwnership(address)":"f2fde38b","uniswapV3MintCallback(uint256,uint256,bytes)":"d3487997","unpause()":"3f4ba83a","updateTickRange(int24,int24)":"effe4889","usdcToken()":"11eac855","withdraw(uint256)":"2e1a7d4d","wldToken()":"9be3783d","yieldAmount()":"a04f6639"},"id":6}