{"abi":[{"type":"constructor","inputs":[{"name":"initialOwner","type":"address","internalType":"address"}],"stateMutability":"nonpayable"},{"type":"function","name":"addAdmin","inputs":[{"name":"admin","type":"address","internalType":"address"}],"outputs":[],"stateMutability":"nonpayable"},{"type":"function","name":"addOperator","inputs":[{"name":"operator","type":"address","internalType":"address"}],"outputs":[],"stateMutability":"nonpayable"},{"type":"function","name":"admins","inputs":[{"name":"","type":"address","internalType":"address"}],"outputs":[{"name":"","type":"bool","internalType":"bool"}],"stateMutability":"view"},{"type":"function","name":"deployYieldAdapter","inputs":[{"name":"implementation","type":"uint8","internalType":"enum YieldAdapterFactory.YieldImplementation"},{"name":"wldToken","type":"address","internalType":"address"},{"name":"usdcToken","type":"address","internalType":"address"}],"outputs":[{"name":"adapter","type":"address","internalType":"address"}],"stateMutability":"nonpayable"},{"type":"function","name":"deployYieldAdapterCreate2","inputs":[{"name":"implementation","type":"uint8","internalType":"enum YieldAdapterFactory.YieldImplementation"},{"name":"wldToken","type":"address","internalType":"address"},{"name":"usdcToken","type":"address","internalType":"address"},{"name":"salt","type":"bytes32","internalType":"bytes32"}],"outputs":[{"name":"adapter","type":"address","internalType":"address"}],"stateMutability":"nonpayable"},{"type":"function","name":"getImplementationConfig","inputs":[{"name":"implementation","type":"uint8","internalType":"enum YieldAdapterFactory.YieldImplementation"}],"outputs":[{"name":"enabled","type":"bool","internalType":"bool"}],"stateMutability":"view"},{"type":"function","name":"getUniswapV3Config","inputs":[],"outputs":[{"name":"config","type":"tuple","internalType":"struct YieldAdapterFactory.UniswapV3Config","components":[{"name":"factory","type":"address","internalType":"address"},{"name":"swapRouter","type":"address","internalType":"address"},{"name":"tickLower","type":"int24","internalType":"int24"},{"name":"tickUpper","type":"int24","internalType":"int24"}]}],"stateMutability":"view"},{"type":"function","name":"isAdmin","inputs":[{"name":"account","type":"address","internalType":"address"}],"outputs":[{"name":"","type":"bool","internalType":"bool"}],"stateMutability":"view"},{"type":"function","name":"isOperator","inputs":[{"name":"account","type":"address","internalType":"address"}],"outputs":[{"name":"","type":"bool","internalType":"bool"}],"stateMutability":"view"},{"type":"function","name":"operators","inputs":[{"name":"","type":"address","internalType":"address"}],"outputs":[{"name":"","type":"bool","internalType":"bool"}],"stateMutability":"view"},{"type":"function","name":"owner","inputs":[],"outputs":[{"name":"","type":"address","internalType":"address"}],"stateMutability":"view"},{"type":"function","name":"pause","inputs":[],"outputs":[],"stateMutability":"nonpayable"},{"type":"function","name":"paused","inputs":[],"outputs":[{"name":"","type":"bool","internalType":"bool"}],"stateMutability":"view"},{"type":"function","name":"predictYieldAdapterAddress","inputs":[{"name":"implementation","type":"uint8","internalType":"enum YieldAdapterFactory.YieldImplementation"},{"name":"wldToken","type":"address","internalType":"address"},{"name":"usdcToken","type":"address","internalType":"address"},{"name":"salt","type":"bytes32","internalType":"bytes32"}],"outputs":[{"name":"adapter","type":"address","internalType":"address"}],"stateMutability":"view"},{"type":"function","name":"removeAdmin","inputs":[{"name":"admin","type":"address","internalType":"address"}],"outputs":[],"stateMutability":"nonpayable"},{"type":"function","name":"removeOperator","inputs":[{"name":"operator","type":"address","internalType":"address"}],"outputs":[],"stateMutability":"nonpayable"},{"type":"function","name":"renounceOwnership","inputs":[],"outputs":[],"stateMutability":"nonpayable"},{"type":"function","name":"setImplementationEnabled","inputs":[{"name":"implementation","type":"uint8","internalType":"enum YieldAdapterFactory.YieldImplementation"},{"name":"enabled","type":"bool","internalType":"bool"}],"outputs":[],"stateMutability":"nonpayable"},{"type":"function","name":"setUniswapV3Config","inputs":[{"name":"factory","type":"address","internalType":"address"},{"name":"swapRouter","type":"address","internalType":"address"},{"name":"tickLower","type":"int24","internalType":"int24"},{"name":"tickUpper","type":"int24","internalType":"int24"}],"outputs":[],"stateMutability":"nonpayable"},{"type":"function","name":"supportedImplementations","inputs":[{"name":"","type":"uint8","internalType":"enum YieldAdapterFactory.YieldImplementation"}],"outputs":[{"name":"","type":"bool","internalType":"bool"}],"stateMutability":"view"},{"type":"function","name":"transferOwnership","inputs":[{"name":"newOwner","type":"address","internalType":"address"}],"outputs":[],"stateMutability":"nonpayable"},{"type":"function","name":"uniswapV3Config","inputs":[],"outputs":[{"name":"factory","type":"address","internalType":"address"},{"name":"swapRouter","type":"address","internalType":"address"},{"name":"tickLower","type":"int24","internalType":"int24"},{"name":"tickUpper","type":"int24","internalType":"int24"}],"stateMutability":"view"},{"type":"function","name":"unpause","inputs":[],"outputs":[],"stateMutability":"nonpayable"},{"type":"event","name":"AdminAdded","inputs":[{"name":"admin","type":"address","indexed":true,"internalType":"address"}],"anonymous":false},{"type":"event","name":"AdminRemoved","inputs":[{"name":"admin","type":"address","indexed":true,"internalType":"address"}],"anonymous":false},{"type":"event","name":"OperatorAdded","inputs":[{"name":"operator","type":"address","indexed":true,"internalType":"address"}],"anonymous":false},{"type":"event","name":"OperatorRemoved","inputs":[{"name":"operator","type":"address","indexed":true,"internalType":"address"}],"anonymous":false},{"type":"event","name":"OwnershipTransferred","inputs":[{"name":"previousOwner","type":"address","indexed":true,"internalType":"address"},{"name":"newOwner","type":"address","indexed":true,"internalType":"address"}],"anonymous":false},{"type":"event","name":"Paused","inputs":[{"name":"account","type":"address","indexed":false,"internalType":"address"}],"anonymous":false},{"type":"event","name":"Unpaused","inputs":[{"name":"account","type":"address","indexed":false,"internalType":"address"}],"anonymous":false},{"type":"event","name":"YieldAdapterDeployed","inputs":[{"name":"adapter","type":"address","indexed":true,"internalType":"address"},{"name":"implementation","type":"uint8","indexed":false,"internalType":"enum YieldAdapterFactory.YieldImplementation"},{"name":"wldToken","type":"address","indexed":false,"internalType":"address"},{"name":"usdcToken","type":"address","indexed":false,"internalType":"address"}],"anonymous":false},{"type":"error","name":"EnforcedPause","inputs":[]},{"type":"error","name":"ExpectedPause","inputs":[]},{"type":"error","name":"InvalidConfiguration","inputs":[]},{"type":"error","name":"NotAdmin","inputs":[{"name":"caller","type":"address","internalType":"address"}]},{"type":"error","name":"OwnableInvalidOwner","inputs":[{"name":"owner","type":"address","internalType":"address"}]},{"type":"error","name":"OwnableUnauthorizedAccount","inputs":[{"name":"account","type":"address","internalType":"address"}]},{"type":"error","name":"ReentrancyGuardReentrantCall","inputs":[]},{"type":"error","name":"ZeroAddress","inputs":[]}],"bytecode":{"object":"0x6080346100e657601f614bd038819003918201601f19168301916001600160401b038311848410176100eb578084926020946040528339810103126100e657516001600160a01b0390818116908190036100e65780156100cd57600080546001600160a01b03198116831782559092167f8be0079c531659141344cd1fd0a4f28419497f9722a3daafe3b4186f6b6457e08380a3600180558080526004602052600160408083209260ff199383858254161790558281522091825416179055604051614ace90816101028239f35b604051631e4fbdf760e01b815260006004820152602490fd5b600080fd5b634e487b7160e01b600052604160045260246000fdfe608060405260043610156200001357600080fd5b60003560e01c80630b8b851b14620001af578063109e6f7a14620001a957806313e7c9d814620001a35780631785f53c146200019d57806324d7806c14620001975780632a9d65fa14620001915780633f4ba83a146200018b578063429b62e514620001855780634870ae10146200013d5780635c975abb146200017f578063676464f914620001795780636bbac34914620001735780636d70f7ae146200016d578063704802751462000167578063715018a614620001615780638456cb59146200015b5780638da5cb5b14620001555780639870d7fe146200014f578063a7d3e9a51462000149578063ac8a584a1462000143578063d25ba194146200013d578063f03f3f3214620001375763f2fde38b146200013157600080fd5b62000f81565b62000f35565b62000860565b62000e64565b62000de8565b62000d26565b62000cfb565b62000c57565b62000bf8565b62000b6e565b62000b03565b62000a97565b620008bf565b62000897565b6200081d565b6200077e565b620004cc565b62000428565b620003ba565b62000377565b620002bc565b6200020f565b600435906004821015620001c557565b600080fd5b602435906001600160a01b0382168203620001c557565b604435906001600160a01b0382168203620001c557565b600435906001600160a01b0382168203620001c557565b34620001c5576060366003190112620001c5576200022c620001b5565b62000236620001ca565b9062000241620001e1565b33600052600260205260ff604060002054161580620002a6575b6200028e576200028a926200027092620010a6565b6040516001600160a01b0390911681529081906020820190565b0390f35b604051630bd4212160e11b8152336004820152602490fd5b506000546001600160a01b03163314156200025b565b34620001c55760008060031936011262000374576060604051620002e08162001281565b82815282602082015282604082015201526200028a604051620003038162001281565b60018060a01b038060055416825260065490811660208301528060a01c60020b604083015260b81c60020b606082015260405191829182919091606080608083019460018060a01b038082511685526020820151166020850152604081015160020b6040850152015160020b910152565b80fd5b34620001c5576020366003190112620001c5576001600160a01b036200039c620001f8565b166000526003602052602060ff604060002054166040519015158152f35b34620001c5576020366003190112620001c557620003d7620001f8565b620003e1620013c3565b6001600160a01b03166000818152600260205260408120805460ff19169055907fa3b62bc36326052d97ea62d63c3d60308ed4c3ea8ac079dd8499f1e9c4f80c0f8280a280f35b34620001c5576020366003190112620001c55760206001600160a01b038062000450620001f8565b16806000526002835260ff6040600020541691821562000477575b50506040519015158152f35b6000541614905038806200046b565b6080906003190112620001c5576004356004811015620001c557906001600160a01b03906024358281168103620001c557916044359081168103620001c5579060643590565b34620001c557620004dd3662000486565b906000939293923384526020926002845260409360ff8587205416158062000769575b6200075257620005236200051f620005188562000f1b565b5460ff1690565b1590565b62000741576001600160a01b039587871615801562000736575b62000725576200054d8462000efa565b836200065c57620005d1620005e5866114a86200056c868201620012c1565b90808252620013f18783013984548a516001600160a01b038e81168983019081529481166020860152918d16909116604084015291620005d89083906060015b0392620005c2601f19948581018352826200129e565b8b5195869389850190620012d3565b90620012d3565b039081018352826200129e565b915b8251920190f59384169182156200064b57947fd5fc78384d4a8da4d5b2b3a6404b53e5f3e6cb5e0d2ed32ef39572d27b638fa591620006306200028a9786519384938462001077565b0390a2516001600160a01b0390911681529081906020820190565b835163c52a9bd360e01b8152600490fd5b620006678462000efa565b6001840362000725576005546001600160a01b0316878116158015620006ff575b620006ee57620006e786620005d192620005d88c620005ac8c8e61220095620006b38c8801620012c1565b96808852620028998d8901398b60065491838d54169451998a978460b81c60020b958560a01c60020b951693890162001026565b91620005e7565b865163c52a9bd360e01b8152600490fd5b506006546200071e906001600160a01b03165b6001600160a01b031690565b1562000688565b855163c52a9bd360e01b8152600490fd5b50868516156200053d565b845163c52a9bd360e01b8152600490fd5b8451630bd4212160e11b8152336004820152602490fd5b5085546001600160a01b031633141562000500565b34620001c5576000806003193601126200037457338152600260205260ff604082205416158062000808575b6200028e57805460ff8160a01c1615620007f65760ff60a01b191681556040513381527f5db9ee0a495bf2e6ff9c91a7834c1ba4fdd244a5e8aa4e537bd38aeae4b073aa90602090a180f35b604051638dfc202b60e01b8152600490fd5b5080546001600160a01b0316331415620007aa565b34620001c5576020366003190112620001c5576001600160a01b0362000842620001f8565b166000526002602052602060ff604060002054166040519015158152f35b34620001c5576020366003190112620001c557602060ff6200088b62000885620001b5565b62000f1b565b54166040519015158152f35b34620001c5576000366003190112620001c557602060ff60005460a01c166040519015158152f35b34620001c557620008d03662000486565b92909190620008df8162000efa565b80620009e157506200028a92620009c3620009d2620005d16200097962000270966200071296620005d86114a8916200091b60208401620012c1565b92808452620013f16020850139600054604080516001600160a01b0393841660208201529583169086015216606084015282608081015b039262000968601f19948581018352826200129e565b6040519586936020850190620012d3565b80516020918201206040516001600160f81b03199281019283523060601b6bffffffffffffffffffffffff1916602182015260358101959095526055850152929182906075820190565b03601f1981018352826200129e565b5190206001600160a01b031690565b80620009f260019294939462000efa565b0362000a85576200028a92620009c3620009d2620005d162000a7f62000270966200071296620005d86122009162000a2d60208401620012c1565b9280845262002899602085013960055462000952906001600160a01b03169460065460018060a01b03908160005416926040519889968360b81c60020b948460a01c60020b9416926020890162001026565b62000979565b60405163c52a9bd360e01b8152600490fd5b34620001c5576040366003190112620001c55762000ab4620001b5565b6024358015158103620001c55733600052600260205260ff60406000205416158062000aed575b6200028e5762000aeb9162001300565b005b506000546001600160a01b031633141562000adb565b34620001c5576020366003190112620001c55760206001600160a01b038062000b2b620001f8565b16806000526003835260ff6040600020541691821562000b59575b8215620004775750506040519015158152f35b6002845260406000205460ff16925062000b46565b34620001c5576020366003190112620001c55762000b8b620001f8565b62000b95620013c3565b6001600160a01b0316801562000be6576000818152600260205260408120805460ff19166001179055907f44d6d25963f097ad14f29f06854a01f575648a1ef82f30e562ccd3889717e3398280a280f35b60405163d92e233d60e01b8152600490fd5b34620001c557600080600319360112620003745762000c16620013c3565b80546001600160a01b03198116825581906001600160a01b03167f8be0079c531659141344cd1fd0a4f28419497f9722a3daafe3b4186f6b6457e08280a380f35b34620001c5576000806003193601126200037457338152600260205260ff604082205416158062000ce6575b6200028e57805460ff8160a01c1662000cd45760ff60a01b1916600160a01b1781556040513381527f62e78cea01bee320cd4e420270b5ea74000d11b0c9f74754ebdbfc544b05a25890602090a180f35b60405163d93c066560e01b8152600490fd5b5080546001600160a01b031633141562000c83565b34620001c5576000366003190112620001c5576000546040516001600160a01b039091168152602090f35b34620001c5576020366003190112620001c55762000d43620001f8565b600090338252600260205260ff604083205416158062000db1575b6200028e576001600160a01b0316801562000be657808252600360205260408220805460ff191660011790557fac6fa858e9350a46cec16539926e0fde25b7629f84b5a72bffaae4df888ae86d8280a280f35b5081546001600160a01b031633141562000d5e565b604435908160020b8203620001c557565b606435908160020b8203620001c557565b34620001c5576080366003190112620001c55762000e05620001f8565b62000e0f620001ca565b62000e1962000dc6565b62000e2362000dd7565b9133600052600260205260ff60406000205416158062000e4e575b6200028e5762000aeb936200131c565b506000546001600160a01b031633141562000e3e565b34620001c5576020366003190112620001c55762000e81620001f8565b600090338252600260205260ff604083205416158062000ee5575b6200028e576001600160a01b0316808252600360205260408220805460ff191690557f80c0b871b97b595b16a7741c1b06fed0c6f6f558639f18ccbce50724325dc40d8280a280f35b5081546001600160a01b031633141562000e9c565b6004111562000f0557565b634e487b7160e01b600052602160045260246000fd5b600481101562000f05576000526004602052604060002090565b34620001c5576000366003190112620001c557608060018060a01b0380600554169060065490604051928352811660208301528060a01c60020b604083015260b81c60020b6060820152f35b34620001c5576020366003190112620001c55762000f9e620001f8565b62000fa8620013c3565b6001600160a01b03908116801562000ff757600080546001600160a01b03198116831782559092167f8be0079c531659141344cd1fd0a4f28419497f9722a3daafe3b4186f6b6457e08380a380f35b604051631e4fbdf760e01b815260006004820152602490fd5b634e487b7160e01b600052604160045260246000fd5b6001600160a01b039182168152918116602083015291821660408201529181166060830152600292830b60808301529290910b60a0820152911660c082015260e00190565b6040513d6000823e3d90fd5b919392936060830194600483101562000f05579183526001600160a01b03908116602084015216604090910152565b90620010ba6200051f620005188462000f1b565b62000a85576001600160a01b039080821615801562001276575b62000a8557620010e48362000efa565b8262001199578160005416604051906114a88083019183831067ffffffffffffffff8411176200119357878585946200114094620013f187396001600160a01b0391821681529181166020830152909116604082015260600190565b03906000f09182156200118d5762001187817fd5fc78384d4a8da4d5b2b3a6404b53e5f3e6cb5e0d2ed32ef39572d27b638fa59416955b6040519384938816968462001077565b0390a290565b6200106b565b62001010565b620011a48362000efa565b6001830362000a85576005546001600160a01b031682811615801562001257575b62000a855760065483600054169160405192612200918285019385851067ffffffffffffffff861117620011935785946200121b946200289987398160b81c60020b928b898b8560a01c60020b95169362001026565b03906000f09182156200118d5762001187817fd5fc78384d4a8da4d5b2b3a6404b53e5f3e6cb5e0d2ed32ef39572d27b638fa594169562001177565b506006546200126f906001600160a01b031662000712565b15620011c5565b5081841615620010d4565b6080810190811067ffffffffffffffff8211176200119357604052565b90601f8019910116810190811067ffffffffffffffff8211176200119357604052565b90620012d160405192836200129e565b565b9081519160005b838110620012ec575050016000815290565b8060208092840101518185015201620012da565b6200130b9062000f1b565b9060ff801983541691151516179055565b9192916001600160a01b039081169081158015620013b8575b62000a85578360020b908560020b938285121562000a8557606091604051916200135f8362001281565b8583521694856020830152604082015201526bffffffffffffffffffffffff60a01b60055416176005556006549160b81b62ffffff60b81b169260a01b62ffffff60a01b169165ffffffffffff60d01b16171717600655565b508083161562001335565b6000546001600160a01b03163303620013d857565b60405163118cdaa760e01b8152336004820152602490fdfe6080346100fd57601f6114a838819003918201601f19168301916001600160401b03831184841017610102578084926060946040528339810103126100fd578061004a604092610118565b61005660208301610118565b6001600160a01b03939092849161006d9101610118565b169081156100e457600080546001600160a01b0319808216851783559386939290918416907f8be0079c531659141344cd1fd0a4f28419497f9722a3daafe3b4186f6b6457e09080a360018055169060045416176004551660018060a81b0319600554161760055560405161137b908161012d8239f35b604051631e4fbdf760e01b815260006004820152602490fd5b600080fd5b634e487b7160e01b600052604160045260246000fd5b51906001600160a01b03821682036100fd5756fe608060408181526004918236101561001657600080fd5b600092833560e01c91826311eac8551461114b5750816313e7c9d81461110c5781631785f53c146110a457816324d7806c146110575781632e1a7d4d14610eb157816333a100ca14610e2f578163373d613214610e105781633a98ef39146105e85781633f4ba83a14610d7c578163429b62e514610d3d578163437c328914610d19578163458e551e14610cab5781635c975abb14610c865781636a1ceb2d14610c445781636d70f7ae14610bd05781637048027514610b5c578163715018a614610aff5781637c262871146108d35781638456cb5914610a795781638da5cb5b14610a515781639870d7fe146109ac5781639a03230d1461091a5781639be3783d146108f2578163a04f6639146108d3578163ac8a584a1461082f578163b68ef55914610810578163b6b55f251461064d578163bc6b74ab14610624578163d2cbf7ad14610607578163d5002f2e146105e8578163db2e21bc146104b4578163dc18a4c014610495578163e8d991d114610389578163f2fde38b146102fe578163f5eb42dc146102c4578163fafa6c69146101dd575063ff50abdc146101bc57600080fd5b346101d957816003193601126101d9576020906009549051908152f35b5080fd5b919050346102c05760203660031901126102c0576001600160a01b0391803583811691908290036102bc57610210611238565b338552600260205260ff838620541615806102af575b6102985750906102927f254c88e7a2ea123aeeb89b7cc413fb949188fefcdb7584c4f3d493294daf65c5939261025a6112fd565b600680546001600160a01b0319811683179091559251939092166001600160a01b039081168452909116602083015281906040820190565b0390a180f35b602490835190630bd4212160e11b82523390820152fd5b5083855416331415610226565b8480fd5b8280fd5b9050346102c05760203660031901126102c057356001600160a01b038116908190036102c057828291602094526007845220549051908152f35b919050346102c05760203660031901126102c0576001600160a01b038235818116939192908490036102bc5761033261120c565b831561037357505082546001600160a01b0319811683178455167f8be0079c531659141344cd1fd0a4f28419497f9722a3daafe3b4186f6b6457e08380a380f35b51631e4fbdf760e01b8152908101849052602490fd5b8383346101d957816003193601126101d9576103a3611238565b6103ab611259565b60ff60055460a01c16600381101561048257600181036104555750600a54670de0b6b3a7640000810180911161044257600a556020925b600a5492600a558280610424575b50507feb2d114a827fe0da3db4c0e374010959cf461f7ed76987aeff51666dea9add9b838251848152a16001805551908152f35b905461043b919033906001600160a01b031661127c565b83826103f0565b634e487b7160e01b835260118452602483fd5b600214610465575b6020926103e2565b600a54670de0b6b3a7640000810180911161044257600a5561045d565b634e487b7160e01b835260218452602483fd5b5050346101d957816003193601126101d957602090600b549051908152f35b919050346102c057826003193601126102c0576104cf611238565b6104d7611259565b3383526020926002845260ff828220541615806105d4575b6105be576104fb6112fd565b825482516370a0823160e01b815230818601526001600160a01b03909116908581602481855afa9485156105b4578395610553575b50508361053e91339061127c565b8060095580600855600a556001805551908152f35b9091945085903d87116105ac575b601f8201601f191683019067ffffffffffffffff8211848310176105995750869183918652810103126101d957519261053e38610530565b634e487b7160e01b855260419052602484fd5b3d9150610561565b84513d85823e3d90fd5b8151630bd4212160e11b81523381850152602490fd5b5080546001600160a01b03163314156104ef565b5050346101d957816003193601126101d9576020906008549051908152f35b5050346101d957816003193601126101d957602090516101f48152f35b5050346101d957816003193601126101d95760065490516001600160a01b039091168152602090f35b8383346101d95760203660031901126101d957823561066a611238565b610672611259565b80156107fa57835482516323b872dd60e01b85523386523060245260448390526001600160a01b03909116919060208560648180875af192600193848751148116156107dc575b82865286606052156107c857505060085493846107a8576106eb8280965b6106e3856009546111ff565b6009556111ff565b60085533815260076020528381206107048682546111ff565b905560ff60055460a01c169060038210156107955750602095507f26679fa1f3868c950e9362f1106cf73f3318de0280e0411a3c68e4b463eadd4f91849184810361077a575061076381851c61075a81846111b9565b50600b546111ff565b600b555b81519081528587820152a1805551908152f35b6002036107675761078d81600c546111ff565b600c55610767565b634e487b7160e01b815260218752602490fd5b6106eb6107c16107b88785611170565b60095490611199565b80966106d7565b635274afe760e01b82528187015260249150fd5b848115166107f157813b15153d1516166106b9565b823d88823e3d90fd5b83906024925191633728b83d60e01b8352820152fd5b5050346101d957816003193601126101d9576020906009549051908152f35b919050346102c05760203660031901126102c05781356001600160a01b0381811693918490036102bc57338552600260205260ff83862054161590816108c5575b506108af575081835260036020528220805460ff191690557f80c0b871b97b595b16a7741c1b06fed0c6f6f558639f18ccbce50724325dc40d8280a280f35b6024915190630bd4212160e11b82523390820152fd5b905084541633141538610870565b5050346101d957816003193601126101d957602090600a549051908152f35b9050346102c057826003193601126102c0575490516001600160a01b03909116815260209150f35b9050346102c05760203660031901126102c05780359160038310156109a857338452600260205260ff81852054161580610994575b61097d57505061095d611238565b6005805460ff60a01b191660a09290921b60ff60a01b1691909117905580f35b602492505190630bd4212160e11b82523390820152fd5b5083546001600160a01b031633141561094f565b8380fd5b919050346102c05760203660031901126102c05781356001600160a01b0381811693918490036102bc57338552600260205260ff8386205416159081610a43575b506108af578215610a35575081835260036020528220805460ff191660011790557fac6fa858e9350a46cec16539926e0fde25b7629f84b5a72bffaae4df888ae86d8280a280f35b905163d92e233d60e01b8152fd5b9050845416331415386109ed565b5050346101d957816003193601126101d957905490516001600160a01b039091168152602090f35b9050346102c057826003193601126102c057338352600260205260ff82842054161580610aeb575b6108af575060207f62e78cea01bee320cd4e420270b5ea74000d11b0c9f74754ebdbfc544b05a25891610ad2611238565b835460ff60a01b1916600160a01b17845551338152a180f35b5082546001600160a01b0316331415610aa1565b8334610b595780600319360112610b5957610b1861120c565b80546001600160a01b03198116825581906001600160a01b03167f8be0079c531659141344cd1fd0a4f28419497f9722a3daafe3b4186f6b6457e08280a380f35b80fd5b919050346102c05760203660031901126102c05781356001600160a01b03811692908390036109a857610b8d61120c565b8215610a35575081835260026020528220805460ff191660011790557f44d6d25963f097ad14f29f06854a01f575648a1ef82f30e562ccd3889717e3398280a280f35b839150346101d95760203660031901126101d9576001600160a01b03929035838116908190036102c0576020938184526003855260ff8385205416938415610c32575b8415610c25575b505050519015158152f35b5416149150838080610c1a565b600286528381205460ff169450610c13565b8383346101d957816003193601126101d95760ff60055460a01c169051916003821015610c7357602083838152f35b634e487b7160e01b815260218452602490fd5b5050346101d957816003193601126101d95760ff6020925460a01c1690519015158152f35b9050346102c05760203660031901126102c057803591338452600260205260ff81852054161580610d05575b61097d5783610cff84610ce8611238565b610cf481600a546111ff565b600a556009546111ff565b60095580f35b5083546001600160a01b0316331415610cd7565b5050346101d957816003193601126101d957602090610d366111c6565b9051908152f35b9050346102c05760203660031901126102c057356001600160a01b038116908190036102c057818360ff92602095526002855220541690519015158152f35b9050346102c057826003193601126102c057338352600260205260ff82842054161580610dfc575b6108af5782549060ff8260a01c1615610dee575060ff60a01b19168255513381527f5db9ee0a495bf2e6ff9c91a7834c1ba4fdd244a5e8aa4e537bd38aeae4b073aa90602090a180f35b8251638dfc202b60e01b8152fd5b5082546001600160a01b0316331415610da4565b5050346101d957816003193601126101d957602090600c549051908152f35b919050346102c05760203660031901126102c0576001600160a01b0391803583811691908290036102bc57338552600260205260ff83862054161580610ea4575b6102985750906102927f254c88e7a2ea123aeeb89b7cc413fb949188fefcdb7584c4f3d493294daf65c5939261025a611238565b5083855416331415610e70565b90508234610b59576020366003190112610b5957813591610ed0611238565b610ed8611259565b82156110405733825260076020528382205480841161102457506008548084116110245760ff60055460a01c1660038110156110115793610fcb86947fd66662c0ded9e58fd31d5e44944bcfd07ffc15e6927ecc1382e7941cb7bd24c49460209894886001610f9a9a14600014610fe0575050610f6d600b54610f67610f5e8288611170565b60085490611199565b906111b9565b600b555b8460095492610fa286610f848682611170565b610f916008548092611199565b9c8d80986111b9565b6009556111b9565b60085533815260078b5220610fb88582546111b9565b90555433906001600160a01b031661127c565b81519081528486820152a16001805551908152f35b600214610fee575b50610f71565b61100890610f67600c54916110038389611170565b611199565b600c5589610fe8565b634e487b7160e01b845260218352602484fd5b915091604493519263cf47918160e01b84528301526024820152fd5b8351633728b83d60e01b8152908101839052602490fd5b839150346101d95760203660031901126101d9576001600160a01b03929035838116908190036102c0576020938184526002855260ff8385205416938415610c2557505050519015158152f35b9050346102c05760203660031901126102c057356001600160a01b03811691908290036102c0576110d361120c565b81835260026020528220805460ff191690557fa3b62bc36326052d97ea62d63c3d60308ed4c3ea8ac079dd8499f1e9c4f80c0f8280a280f35b9050346102c05760203660031901126102c057356001600160a01b038116908190036102c057818360ff92602095526003855220541690519015158152f35b8490346101d957816003193601126101d9576005546001600160a01b03168152602090f35b8181029291811591840414171561118357565b634e487b7160e01b600052601160045260246000fd5b81156111a3570490565b634e487b7160e01b600052601260045260246000fd5b9190820391821161118357565b60085480156111f95760095490670de0b6b3a764000091828102928184041490151715611183576111f691611199565b90565b50600090565b9190820180921161118357565b6000546001600160a01b0316330361122057565b60405163118cdaa760e01b8152336004820152602490fd5b60ff60005460a01c1661124757565b60405163d93c066560e01b8152600490fd5b60026001541461126a576002600155565b604051633ee5aeb560e01b8152600490fd5b60405163a9059cbb60e01b60009081526001600160a01b039384166004526024949094529260209060448180855af16001600051148116156112dd575b83604052156112c757505050565b635274afe760e01b835216600482015260249150fd5b60018115166112f357813b15153d1516166112b9565b833d6000823e3d90fd5b60ff60055460a01c16600381101561132f576001810361131f57506000600b55565b60021461132857565b6000600c55565b634e487b7160e01b600052602160045260246000fdfea264697066735822122039eb8e35811a79b6c9084ea7eeb4224eb7659e21d4e0620829407f273d02582564736f6c6343000818003361010060409080825234620002ab5760e081620022008038038091620000268285620002b0565b833981010312620002ab576200003c81620002ea565b6200004a60208301620002ea565b62000057848401620002ea565b60c06200006760608601620002ea565b936200007660808701620002ff565b946200008560a08801620002ff565b966001600160a01b039384916200009d9101620002ea565b16918215620002935783808080936000968288548260018060a01b03198216178a55167f8be0079c531659141344cd1fd0a4f28419497f9722a3daafe3b4186f6b6457e08980a36001805516978860805216958660a05216918260c0521660e05260206004549760b81b9662ffffff60a01b9060a01b1694606462ffffff60b81b978989168865ffffffffffff60a01b198d1617176004558b519485938492630b4c774160e11b845260048401526024830152610bb860448301525afa9182156200028857809262000240575b5050169384156200022f5760018060d01b031916179116171760045551611ef190816200030f82396080518181816104530152818161065a01528181610725015281816109a701528181610b0001528181610d860152818161137c0152818161198001528181611af70152611be1015260a05181818161049a0152818161078501528181610976015281816115090152818161193501528181611b420152611c0c015260c05181610a46015260e051818181610a8a015281816119110152611ad30152f35b855163c52a9bd360e01b8152600490fd5b9091506020823d6020116200027f575b816200025f60209383620002b0565b810103126200027c57506200027490620002ea565b38806200016a565b80fd5b3d915062000250565b8851903d90823e3d90fd5b8851631e4fbdf760e01b815260006004820152602490fd5b600080fd5b601f909101601f19168101906001600160401b03821190821017620002d457604052565b634e487b7160e01b600052604160045260246000fd5b51906001600160a01b0382168203620002ab57565b51908160020b8203620002ab5756fe608060408181526004918236101561001657600080fd5b600092833560e01c91826311eac855146114f55750816313e7c9d8146114b657816316f0115b1461148e5781631785f53c1461142657816324d7806c146113d95781632e1a7d4d1461125f57816333a100ca146111d95781633a98ef39146108d85781633f4ba83a14611145578163429b62e514611106578163437c3289146110e257816355b812a8146110be57816359c4f9051461109a5781635c975abb146110755781636d70f7ae146110015781637048027514610f8d57816370baed4314610f65578163715018a614610f085781637c26287114610d525781638456cb5914610e825781638da5cb5b14610e5a5781639870d7fe14610db55781639be3783d14610d71578163a04f663914610d52578163ac8a584a14610cc4578163b68ef55914610ca5578163b6b55f2514610ab9578163c31c9c0714610a75578163c45a015514610a31578163d2cbf7ad14610a14578163d3487997146108f7578163d5002f2e146108d8578163db2e21bc146106b4578163dd1b9c4a14610697578163e8d991d1146105a7578163effe48891461039f578163f2fde38b14610310578163f5eb42dc146102d2578163fafa6c69146101fe575063ff50abdc146101dd57600080fd5b346101fa57816003193601126101fa576020906007549051908152f35b5080fd5b8383346101fa5760203660031901126101fa5782356001600160a01b0381811694918590036102ce5761022f611655565b338452600260205260ff83852054161590816102c0575b506102aa57507f254c88e7a2ea123aeeb89b7cc413fb949188fefcdb7584c4f3d493294daf65c591926001600160801b03600954168061029b575b5061028a611d07565b50508151903082526020820152a180f35b6102a4906116e9565b50610281565b6024915190630bd4212160e11b82523390820152fd5b905083541633141585610246565b8380fd5b90503461030c57602036600319011261030c57356001600160a01b0381169081900361030c57828291602094526005845220549051908152f35b8280fd5b9190503461030c57602036600319011261030c576001600160a01b0382358181169391929084900361039b57610344611629565b831561038557505082546001600160a01b0319811683178455167f8be0079c531659141344cd1fd0a4f28419497f9722a3daafe3b4186f6b6457e08380a380f35b51631e4fbdf760e01b8152908101849052602490fd5b8480fd5b9190503461030c578060031936011261030c5781358060020b81036102ce57602435908160020b820361039b573385526020916002835260ff84872054161580610593575b61057d576001600160801b03600954168061056e575b50845460b89190911b62ffffff60b81b1662ffffff60a01b60a09390931b9290921665ffffffffffff60a01b199091161717835581516370a0823160e01b808252308286015290936001600160a01b03929182866024817f000000000000000000000000000000000000000000000000000000000000000088165afa95861561056457879661052e575b50906024839286519586938492835230908301527f0000000000000000000000000000000000000000000000000000000000000000165afa928315610525575084926104f7575b5050811515806104ee575b6104de578280f35b6104e791611bb1565b5038808280f35b508015156104d6565b90809250813d831161051e575b61050e8183611607565b8101031261030c575138806104cb565b503d610504565b513d86823e3d90fd5b919095508282813d831161055d575b6105478183611607565b81010312610559579051946024610484565b8680fd5b503d61053d565b85513d89823e3d90fd5b610577906116e9565b506103fa565b8351630bd4212160e11b81523381870152602490fd5b5085546001600160a01b03163314156103e4565b5050346101fa57816003193601126101fa57806020926105c5611655565b6105cd611676565b7f49d512bf9cb224241c05691e73eb9fab078cf350c7dbcbcf66788f1fc0cc8b0b6105f6611d07565b94908386610683575b6106099082611581565b958660085586610653575b7feb2d114a827fe0da3db4c0e374010959cf461f7ed76987aeff51666dea9add9b888451898152a1825191825287820152a16008556001805551908152f35b61067e87337f0000000000000000000000000000000000000000000000000000000000000000611a42565b610614565b5061060961069087611901565b90506105ff565b5050346101fa57816003193601126101fa5760209051610bb88152f35b9190503461030c578260031936011261030c576106cf611655565b6106d7611676565b3383526020926002845260ff828220541615806108c4575b6108ae576001600160801b03600954168061089f575b5061070e611d07565b505081516370a0823160e01b8082523085830152937f000000000000000000000000000000000000000000000000000000000000000091906001600160a01b039087836024818588165afa928315610895579088918694610864575b506024849885610854575b88519485938492835230908301527f0000000000000000000000000000000000000000000000000000000000000000165afa90811561084a57849161081d575b50806107e4575b50505080600755806006556008556001600160801b0319600954166009556001805551908152f35b6108029395506107f390611901565b91828061080b575b5050611581565b913880806107bc565b610816913390611a42565b38826107fb565b90508681813d8311610843575b6108348183611607565b810103126102ce5751386107b5565b503d61082a565b85513d86823e3d90fd5b61085f863389611a42565b610775565b8281939295503d831161088e575b61087c8183611607565b8101031261039b57879051923861076a565b503d610872565b86513d87823e3d90fd5b6108a8906116e9565b50610705565b8151630bd4212160e11b81523381850152602490fd5b5080546001600160a01b03163314156106ef565b5050346101fa57816003193601126101fa576020906006549051908152f35b9190503461030c57606036600319011261030c5781356024359160443567ffffffffffffffff80821161055957366023830112156105595781860135908111610559573691016024011161039b5783546001600160a01b039290831691338390036109d25750806109a1575b50508161096e578380f35b61099a9254167f0000000000000000000000000000000000000000000000000000000000000000611a42565b3880808380f35b6109cb917f0000000000000000000000000000000000000000000000000000000000000000611a42565b3880610963565b5162461bcd60e51b8152602081870181905260248201527f556e69737761705633416461707465723a20496e76616c69642063616c6c65726044820152606490fd5b5050346101fa57816003193601126101fa576020905161012c8152f35b5050346101fa57816003193601126101fa57517f00000000000000000000000000000000000000000000000000000000000000006001600160a01b03168152602090f35b5050346101fa57816003193601126101fa57517f00000000000000000000000000000000000000000000000000000000000000006001600160a01b03168152602090f35b9190503461030c57602036600319011261030c57813592610ad8611655565b610ae0611676565b8315610c8f5781516323b872dd60e01b82523384523060245260448590527f000000000000000000000000000000000000000000000000000000000000000060208360648180855af16001845114811615610c70575b8285528360605215610c54575050610b648460011c610b5e610b58828861158e565b91611ac3565b90611bb1565b600654939084610c2857610b926001600160801b03821680965b610b8a89600754611581565b600755611581565b600655600954916001600160801b038092168284160190828211610c1557507f26679fa1f3868c950e9362f1106cf73f3318de0280e0411a3c68e4b463eadd4f93859360209893859316906001600160801b031916176009553381526005885220610bfe868254611581565b905581519081528486820152a16001805551908152f35b634e487b7160e01b855260119052602484fd5b610b92610c4d6001600160801b03610c4288828616611538565b906009541690611561565b8096610b7e565b635274afe760e01b82526001600160a01b031684820152602490fd5b6001811516610c8657813b15153d151616610b36565b823d85823e3d90fd5b50916024925191633728b83d60e01b8352820152fd5b5050346101fa57816003193601126101fa576020906007549051908152f35b9190503461030c57602036600319011261030c5781356001600160a01b03818116939184900361039b57338552600260205260ff8386205416159081610d44575b506102aa575081835260036020528220805460ff191690557f80c0b871b97b595b16a7741c1b06fed0c6f6f558639f18ccbce50724325dc40d8280a280f35b905084541633141538610d05565b5050346101fa57816003193601126101fa576020906008549051908152f35b5050346101fa57816003193601126101fa57517f00000000000000000000000000000000000000000000000000000000000000006001600160a01b03168152602090f35b9190503461030c57602036600319011261030c5781356001600160a01b03818116939184900361039b57338552600260205260ff8386205416159081610e4c575b506102aa578215610e3e575081835260036020528220805460ff191660011790557fac6fa858e9350a46cec16539926e0fde25b7629f84b5a72bffaae4df888ae86d8280a280f35b905163d92e233d60e01b8152fd5b905084541633141538610df6565b5050346101fa57816003193601126101fa57905490516001600160a01b039091168152602090f35b90503461030c578260031936011261030c57338352600260205260ff82842054161580610ef4575b6102aa575060207f62e78cea01bee320cd4e420270b5ea74000d11b0c9f74754ebdbfc544b05a25891610edb611655565b835460ff60a01b1916600160a01b17845551338152a180f35b5082546001600160a01b0316331415610eaa565b8334610f625780600319360112610f6257610f21611629565b80546001600160a01b03198116825581906001600160a01b03167f8be0079c531659141344cd1fd0a4f28419497f9722a3daafe3b4186f6b6457e08280a380f35b80fd5b5050346101fa57816003193601126101fa576020906001600160801b03600954169051908152f35b9190503461030c57602036600319011261030c5781356001600160a01b03811692908390036102ce57610fbe611629565b8215610e3e575081835260026020528220805460ff191660011790557f44d6d25963f097ad14f29f06854a01f575648a1ef82f30e562ccd3889717e3398280a280f35b839150346101fa5760203660031901126101fa576001600160a01b039290358381169081900361030c576020938184526003855260ff8385205416938415611063575b8415611056575b505050519015158152f35b541614915083808061104b565b600286528381205460ff169450611044565b5050346101fa57816003193601126101fa5760ff6020925460a01c1690519015158152f35b90503461030c578260031936011261030c57602092505460a01c60020b9051908152f35b90503461030c578260031936011261030c57602092505460b81c60020b9051908152f35b5050346101fa57816003193601126101fa576020906110ff61159b565b9051908152f35b90503461030c57602036600319011261030c57356001600160a01b0381169081900361030c57818360ff92602095526002855220541690519015158152f35b90503461030c578260031936011261030c57338352600260205260ff828420541615806111c5575b6102aa5782549060ff8260a01c16156111b7575060ff60a01b19168255513381527f5db9ee0a495bf2e6ff9c91a7834c1ba4fdd244a5e8aa4e537bd38aeae4b073aa90602090a180f35b8251638dfc202b60e01b8152fd5b5082546001600160a01b031633141561116d565b8383346101fa5760203660031901126101fa5782356001600160a01b0381811694918590036102ce57338452600260205260ff8385205416159081611251575b506102aa57507f254c88e7a2ea123aeeb89b7cc413fb949188fefcdb7584c4f3d493294daf65c591928151908482526020820152a180f35b905083541633141585611219565b9190503461030c57602036600319011261030c5781359261127e611655565b611286611676565b8315610c8f573381526005602052818120548085116113bd57506006548085116113bd576112cc906001600160801b039182916112c7836009541689611538565b611561565b16906112eb6112e56112dd846116e9565b919091611901565b90611581565b94600754868082116000146113b5576113039161158e565b6007556113128760065461158e565b600655600954928284160390828211610c1557507fd66662c0ded9e58fd31d5e44944bcfd07ffc15e6927ecc1382e7941cb7bd24c493859360209893859316906001600160801b03191617600955338152600588522061137382825461158e565b90556113a085337f0000000000000000000000000000000000000000000000000000000000000000611a42565b81519081528486820152a16001805551908152f35b505083611303565b916044949150519263cf47918160e01b84528301526024820152fd5b839150346101fa5760203660031901126101fa576001600160a01b039290358381169081900361030c576020938184526002855260ff838520541693841561105657505050519015158152f35b90503461030c57602036600319011261030c57356001600160a01b038116919082900361030c57611455611629565b81835260026020528220805460ff191690557fa3b62bc36326052d97ea62d63c3d60308ed4c3ea8ac079dd8499f1e9c4f80c0f8280a280f35b90503461030c578260031936011261030c575490516001600160a01b03909116815260209150f35b90503461030c57602036600319011261030c57356001600160a01b0381169081900361030c57818360ff92602095526003855220541690519015158152f35b8490346101fa57816003193601126101fa577f00000000000000000000000000000000000000000000000000000000000000006001600160a01b03168152602090f35b8181029291811591840414171561154b57565b634e487b7160e01b600052601160045260246000fd5b811561156b570490565b634e487b7160e01b600052601260045260246000fd5b9190820180921161154b57565b9190820391821161154b57565b60065480156115ce5760075490670de0b6b3a76400009182810292818404149015171561154b576115cb91611561565b90565b50600090565b610100810190811067ffffffffffffffff8211176115f157604052565b634e487b7160e01b600052604160045260246000fd5b90601f8019910116810190811067ffffffffffffffff8211176115f157604052565b6000546001600160a01b0316330361163d57565b60405163118cdaa760e01b8152336004820152602490fd5b60ff60005460a01c1661166457565b60405163d93c066560e01b8152600490fd5b600260015414611687576002600155565b604051633ee5aeb560e01b8152600490fd5b91908260409103126116af576020825192015190565b600080fd5b51906001600160801b03821682036116af57565b91908260409103126116af576115cb60206116e2846116b4565b93016116b4565b906001600160801b03809216918215611891576004549260018060a01b03809160646040809781519283809263a34123a760e01b82528060a01c60020b60048301528060b81c60020b60248301528660448301526000978891165af193841561188757879186918591869761184f575b50908560a4926004548587519a8b9788966309e3d67b60e31b88523060048901528460a01c60020b60248901528460b81c60020b6044890152166064870152166084850152165af19283156118455782936117f0575b5090606091847f703377a611e9efe8ea84a30f6ed2631cbd0b85ce5d1e2b66d7ca44cd488d2562949588519316958684521696876020840152820152a19190565b7f703377a611e9efe8ea84a30f6ed2631cbd0b85ce5d1e2b66d7ca44cd488d256293506060925061183690873d891161183e575b61182e8183611607565b8101906116c8565b9350916117af565b503d611824565b86513d84823e3d90fd5b8691975060a4925061187690853d8711611880575b61186e8183611607565b810190611699565b9790925090611759565b503d611864565b87513d85823e3d90fd5b50600091508190565b91909160e06101008201938160018060a01b039182815116855282602082015116602086015262ffffff60408201511660408601528260608201511660608601526080810151608086015260a081015160a086015260c081015160c0860152015116910152565b80156115ce576001600160a01b037f00000000000000000000000000000000000000000000000000000000000000008116917f000000000000000000000000000000000000000000000000000000000000000091611960828585611da6565b61012c42019081421161154b57806040519461197b866115d4565b1684527f0000000000000000000000000000000000000000000000000000000000000000166020840152610bb86040840152306060840152608083015260a082015260206119ef600093838560c0819601528460e082015260405194858094819363414bf38960e01b83526004830161189a565b03925af1918215611a36578092611a0557505090565b9091506020823d602011611a2e575b81611a2160209383611607565b81010312610f6257505190565b3d9150611a14565b604051903d90823e3d90fd5b60405163a9059cbb60e01b60009081526001600160a01b039384166004526024949094529260209060448180855af1600160005114811615611aa3575b8360405215611a8d57505050565b635274afe760e01b835216600482015260249150fd5b6001811516611ab957813b15153d151616611a7f565b833d6000823e3d90fd5b80156115ce576001600160a01b037f00000000000000000000000000000000000000000000000000000000000000008116917f000000000000000000000000000000000000000000000000000000000000000091611b22828585611da6565b61012c42019081421161154b578060405194611b3d866115d4565b1684527f0000000000000000000000000000000000000000000000000000000000000000166020840152610bb86040840152306060840152608083015260a082015260206119ef600093838560c0819601528460e082015260405194858094819363414bf38960e01b83526004830161189a565b80158015611cff575b611cf85760c46001600160801b03600092611c3060018060a01b0395611c058388600454167f0000000000000000000000000000000000000000000000000000000000000000611da6565b86600454167f0000000000000000000000000000000000000000000000000000000000000000611da6565b169260045490604092839283519586938492633c8a7d8d60e01b84523060048501528060a01c60020b60248501528060b81c60020b604485015289606485015260a060848501528260a4850152165af18015611ced5791836060927f2e14f1e424c994a2875aa3f744f2627c2adeb02974cfa360587bde90385ddfa994600093600091611cca575b5081519384526020840152820152a190565b905081611ce49294503d85116118805761186e8183611607565b92909238611cb8565b50513d6000823e3d90fd5b5050600090565b508115611bba565b60045490604051916309e3d67b60e31b83523060048401528060a01c60020b60248401528060b81c60020b604484015260408360a48160006001600160801b039586606484015286608484015260018060a01b03165af1928315611d9a57600090600094611d78575b508116921690565b829450611d94915060403d60401161183e5761182e8183611607565b93611d70565b6040513d6000823e3d90fd5b60405163095ea7b360e01b60008181526001600160a01b0394851660048190526024879052919591929060209060448180885af1600160005114811615611eae575b8160405215611dfa575b505050505050565b60206000878152846004528060245260448180885af1600160005114811615611e8e575b8160405215611e7757509060209160009160405196835260045260245260448180855af1600160005114811615611e61575b8360405215611a8d57808080611df2565b6001811516611ab957813b15153d151616611e50565b635274afe760e01b81528385166004820152602490fd5b6001811516611ea457843b15153d151616611e1e565b503d6000823e3d90fd5b843b15153d151616611de856fea2646970667358221220ef6a827dde86c75555de2b40638b89511a0875a2bb7bbd799928a3f1808354bc64736f6c63430008180033a2646970667358221220a4073e54a4ba43a07f04bf4844c4b7c8f8cc8477d92f6231bab0ed7ab85f42c764736f6c63430008180033","linkReferences":{}},"methodIdentifiers":{"addAdmin(address)":"70480275","addOperator(address)":"9870d7fe","admins(address)":"429b62e5","deployYieldAdapter(uint8,address,address)":"0b8b851b","deployYieldAdapterCreate2(uint8,address,address,bytes32)":"2a9d65fa","getImplementationConfig(uint8)":"4870ae10","getUniswapV3Config()":"109e6f7a","isAdmin(address)":"24d7806c","isOperator(address)":"6d70f7ae","operators(address)":"13e7c9d8","owner()":"8da5cb5b","pause()":"8456cb59","paused()":"5c975abb","predictYieldAdapterAddress(uint8,address,address,bytes32)":"676464f9","removeAdmin(address)":"1785f53c","removeOperator(address)":"ac8a584a","renounceOwnership()":"715018a6","setImplementationEnabled(uint8,bool)":"6bbac349","setUniswapV3Config(address,address,int24,int24)":"a7d3e9a5","supportedImplementations(uint8)":"d25ba194","transferOwnership(address)":"f2fde38b","uniswapV3Config()":"f03f3f32","unpause()":"3f4ba83a"},"id":7}