{"abi":[{"type":"constructor","inputs":[{"name":"_wldToken","type":"address","internalType":"address"},{"name":"_vrfAdapter","type":"address","internalType":"address"},{"name":"_initialOwner","type":"address","internalType":"address"}],"stateMutability":"nonpayable"},{"type":"function","name":"addParticipant","inputs":[{"name":"user","type":"address","internalType":"address"},{"name":"tickets","type":"uint256","internalType":"uint256"}],"outputs":[],"stateMutability":"nonpayable"},{"type":"function","name":"addYield","inputs":[{"name":"amount","type":"uint256","internalType":"uint256"}],"outputs":[],"stateMutability":"nonpayable"},{"type":"function","name":"claimPrize","inputs":[{"name":"drawId","type":"uint256","internalType":"uint256"}],"outputs":[],"stateMutability":"nonpayable"},{"type":"function","name":"drawInProgress","inputs":[],"outputs":[{"name":"","type":"bool","internalType":"bool"}],"stateMutability":"view"},{"type":"function","name":"drawInterval","inputs":[],"outputs":[{"name":"","type":"uint256","internalType":"uint256"}],"stateMutability":"view"},{"type":"function","name":"drawStartTime","inputs":[],"outputs":[{"name":"","type":"uint256","internalType":"uint256"}],"stateMutability":"view"},{"type":"function","name":"drawWinner","inputs":[],"outputs":[{"name":"winner","type":"address","internalType":"address"}],"stateMutability":"nonpayable"},{"type":"function","name":"emergencyWithdraw","inputs":[],"outputs":[],"stateMutability":"nonpayable"},{"type":"function","name":"fulfillRandomness","inputs":[{"name":"requestId","type":"bytes32","internalType":"bytes32"},{"name":"randomness","type":"uint256","internalType":"uint256"}],"outputs":[],"stateMutability":"nonpayable"},{"type":"function","name":"getCurrentDrawId","inputs":[],"outputs":[{"name":"","type":"uint256","internalType":"uint256"}],"stateMutability":"view"},{"type":"function","name":"getCurrentPrizeAmount","inputs":[],"outputs":[{"name":"","type":"uint256","internalType":"uint256"}],"stateMutability":"view"},{"type":"function","name":"getDrawInfo","inputs":[{"name":"drawId","type":"uint256","internalType":"uint256"}],"outputs":[{"name":"prizeAmount","type":"uint256","internalType":"uint256"},{"name":"winner","type":"address","internalType":"address"},{"name":"drawTime","type":"uint256","internalType":"uint256"},{"name":"completed","type":"bool","internalType":"bool"},{"name":"participants","type":"uint256","internalType":"uint256"}],"stateMutability":"view"},{"type":"function","name":"getNextDrawTime","inputs":[],"outputs":[{"name":"","type":"uint256","internalType":"uint256"}],"stateMutability":"view"},{"type":"function","name":"getPrizeInfo","inputs":[],"outputs":[{"name":"balance","type":"uint256","internalType":"uint256"},{"name":"nextDraw","type":"uint256","internalType":"uint256"},{"name":"winner","type":"address","internalType":"address"}],"stateMutability":"view"},{"type":"function","name":"getUserParticipation","inputs":[{"name":"user","type":"address","internalType":"address"}],"outputs":[{"name":"eligible","type":"bool","internalType":"bool"},{"name":"tickets","type":"uint256","internalType":"uint256"}],"stateMutability":"view"},{"type":"function","name":"isDrawReady","inputs":[],"outputs":[{"name":"ready","type":"bool","internalType":"bool"}],"stateMutability":"view"},{"type":"function","name":"lastWinner","inputs":[],"outputs":[{"name":"","type":"address","internalType":"address"}],"stateMutability":"view"},{"type":"function","name":"nextDrawAt","inputs":[],"outputs":[{"name":"","type":"uint256","internalType":"uint256"}],"stateMutability":"view"},{"type":"function","name":"owner","inputs":[],"outputs":[{"name":"","type":"address","internalType":"address"}],"stateMutability":"view"},{"type":"function","name":"pendingDrawRequestId","inputs":[],"outputs":[{"name":"","type":"bytes32","internalType":"bytes32"}],"stateMutability":"view"},{"type":"function","name":"poolContract","inputs":[],"outputs":[{"name":"","type":"address","internalType":"address"}],"stateMutability":"view"},{"type":"function","name":"prizeBalance","inputs":[],"outputs":[{"name":"","type":"uint256","internalType":"uint256"}],"stateMutability":"view"},{"type":"function","name":"removeParticipant","inputs":[{"name":"user","type":"address","internalType":"address"},{"name":"tickets","type":"uint256","internalType":"uint256"}],"outputs":[],"stateMutability":"nonpayable"},{"type":"function","name":"renounceOwnership","inputs":[],"outputs":[],"stateMutability":"nonpayable"},{"type":"function","name":"reserveBps","inputs":[],"outputs":[{"name":"","type":"uint256","internalType":"uint256"}],"stateMutability":"view"},{"type":"function","name":"scheduleDraw","inputs":[],"outputs":[],"stateMutability":"nonpayable"},{"type":"function","name":"setDrawInterval","inputs":[{"name":"interval","type":"uint256","internalType":"uint256"}],"outputs":[],"stateMutability":"nonpayable"},{"type":"function","name":"setPoolContract","inputs":[{"name":"_poolContract","type":"address","internalType":"address"}],"outputs":[],"stateMutability":"nonpayable"},{"type":"function","name":"setRandomnessProvider","inputs":[{"name":"_vrfAdapter","type":"address","internalType":"address"}],"outputs":[],"stateMutability":"nonpayable"},{"type":"function","name":"transferOwnership","inputs":[{"name":"newOwner","type":"address","internalType":"address"}],"outputs":[],"stateMutability":"nonpayable"},{"type":"function","name":"vrfAdapter","inputs":[],"outputs":[{"name":"","type":"address","internalType":"contract IVRFAdapter"}],"stateMutability":"view"},{"type":"function","name":"wldToken","inputs":[],"outputs":[{"name":"","type":"address","internalType":"contract IERC20"}],"stateMutability":"view"},{"type":"event","name":"DrawCompleted","inputs":[{"name":"drawId","type":"uint256","indexed":true,"internalType":"uint256"},{"name":"winner","type":"address","indexed":false,"internalType":"address"},{"name":"prizeAmount","type":"uint256","indexed":false,"internalType":"uint256"},{"name":"participants","type":"uint256","indexed":false,"internalType":"uint256"}],"anonymous":false},{"type":"event","name":"DrawIntervalSet","inputs":[{"name":"newInterval","type":"uint256","indexed":false,"internalType":"uint256"}],"anonymous":false},{"type":"event","name":"DrawScheduled","inputs":[{"name":"drawId","type":"uint256","indexed":false,"internalType":"uint256"},{"name":"drawTime","type":"uint256","indexed":false,"internalType":"uint256"}],"anonymous":false},{"type":"event","name":"OwnershipTransferred","inputs":[{"name":"previousOwner","type":"address","indexed":true,"internalType":"address"},{"name":"newOwner","type":"address","indexed":true,"internalType":"address"}],"anonymous":false},{"type":"event","name":"PoolContractSet","inputs":[{"name":"poolContract","type":"address","indexed":true,"internalType":"address"}],"anonymous":false},{"type":"event","name":"RandomnessFulfilled","inputs":[{"name":"requestId","type":"bytes32","indexed":true,"internalType":"bytes32"},{"name":"randomness","type":"uint256","indexed":false,"internalType":"uint256"}],"anonymous":false},{"type":"event","name":"RandomnessRequested","inputs":[{"name":"requestId","type":"bytes32","indexed":true,"internalType":"bytes32"}],"anonymous":false},{"type":"event","name":"RandomnessRequested","inputs":[{"name":"drawId","type":"uint256","indexed":true,"internalType":"uint256"},{"name":"requestId","type":"bytes32","indexed":false,"internalType":"bytes32"}],"anonymous":false},{"type":"event","name":"VRFAdapterSet","inputs":[{"name":"vrfAdapter","type":"address","indexed":true,"internalType":"address"}],"anonymous":false},{"type":"event","name":"WinnerDrawn","inputs":[{"name":"winner","type":"address","indexed":true,"internalType":"address"},{"name":"amount","type":"uint256","indexed":false,"internalType":"uint256"}],"anonymous":false},{"type":"event","name":"WinnerSelected","inputs":[{"name":"drawId","type":"uint256","indexed":true,"internalType":"uint256"},{"name":"winner","type":"address","indexed":true,"internalType":"address"},{"name":"prizeAmount","type":"uint256","indexed":false,"internalType":"uint256"}],"anonymous":false},{"type":"event","name":"YieldAdded","inputs":[{"name":"amount","type":"uint256","indexed":false,"internalType":"uint256"}],"anonymous":false},{"type":"event","name":"YieldAdded","inputs":[{"name":"amount","type":"uint256","indexed":false,"internalType":"uint256"},{"name":"totalPrizePool","type":"uint256","indexed":false,"internalType":"uint256"}],"anonymous":false},{"type":"error","name":"OwnableInvalidOwner","inputs":[{"name":"owner","type":"address","internalType":"address"}]},{"type":"error","name":"OwnableUnauthorizedAccount","inputs":[{"name":"account","type":"address","internalType":"address"}]},{"type":"error","name":"ReentrancyGuardReentrantCall","inputs":[]},{"type":"error","name":"SafeERC20FailedOperation","inputs":[{"name":"token","type":"address","internalType":"address"}]}],"bytecode":{"object":"0x60a034620001f257601f6200184638819003918201601f191683019291906001600160401b03841183851017620001f7578160609284926040968752833981010312620001f25762000051816200020d565b6200006c8362000064602085016200020d565b93016200020d565b6001600090815592906001600160a01b03908116908115620001da57600180546001600160a01b0319808216851790925587519491939083167f8be0079c531659141344cd1fd0a4f28419497f9722a3daafe3b4186f6b6457e08880a36103e8600455816201518095866007551693841562000198575016918215620001545760805260025416176002554201908142116200014057506005555161162390816200022382396080518181816103be015281816104db0152818161076001528181610b90015281816113b801526114950152f35b634e487b7160e01b81526011600452602490fd5b855162461bcd60e51b815260206004820152601b60248201527f496e76616c6964205652462061646170746572206164647265737300000000006044820152606490fd5b62461bcd60e51b815260206004820152601960248201527f496e76616c696420574c4420746f6b656e2061646472657373000000000000006044820152606490fd5b8551631e4fbdf760e01b815260048101869052602490fd5b600080fd5b634e487b7160e01b600052604160045260246000fd5b51906001600160a01b0382168203620001f25756fe608060408181526004918236101561001657600080fd5b600092833560e01c91826301e7fefe146111d25750816303b0c6c614610c975781630bdb15cb146110145781630e6bf4f314610fec5781631a58b26214610f645781631f1f897f14610e335781633892544914610e1557816344d6de5614610dcf57816346f8479514610d9d57816357ea512314610d6757816359c3f3e014610cb65781636c6bf55114610c97578163715018a614610c3a578163748e19101461035757816388d52ef714610c115781638da5cb5b14610be857816399f8f1a114610bbf5781639be3783d14610b7b5781639e649db814610b57578163a8d4bb7514610b1f578163b15fbc1414610a6e578163b2185bb1146105ff578163bc06c4cc146105e0578163c8b2b546146104a6578163d1ed52cc14610487578163d709815414610421578163db2e21bc14610376578163ecfea5d514610357578163f2fde38b146102c7578163f5a9d5bb146101ce57508063fca6ec6a146101b05763fe1881841461018557600080fd5b346101ac57816003193601126101ac5760065490516001600160a01b039091168152602090f35b5080fd5b50346101ac57816003193601126101ac57602090600b549051908152f35b919050346102c35760203660031901126102c3578135916101ed611438565b821561028157610e10831061024a5750816020917fe33f99e4a0663965a6097f94bd788f3e2362b42c0a1e3a0c0c3ef6af71d412ad936007556005544210610238575b51908152a180f35b610242824261142b565b600555610230565b6020606492519162461bcd60e51b83528201526012602482015271125b9d195c9d985b081d1bdbc81cda1bdc9d60721b6044820152fd5b6020606492519162461bcd60e51b8352820152601f60248201527f496e74657276616c206d7573742062652067726561746572207468616e2030006044820152fd5b8280fd5b9050346102c35760203660031901126102c3576102e2611258565b906102eb611438565b6001600160a01b03918216928315610341575050600154826bffffffffffffffffffffffff60a01b821617600155167f8be0079c531659141344cd1fd0a4f28419497f9722a3daafe3b4186f6b6457e08380a380f35b51631e4fbdf760e01b8152908101849052602490fd5b5050346101ac57816003193601126101ac576020906005549051908152f35b9050346102c357826003193601126102c357610390611438565b6003549182156103e557836103e2848260035560ff19600a5416600a558260095560018060a01b03600154167f000000000000000000000000000000000000000000000000000000000000000061156c565b80f35b906020606492519162461bcd60e51b835282015260166024820152754e6f2062616c616e636520746f20776974686472617760501b6044820152fd5b9050823461048457602036600319011261048457506020608492519162461bcd60e51b83528201526024808201527f5072697a657320617265206175746f6d61746963616c6c79207472616e7366656044820152631c9c995960e21b6064820152fd5b80fd5b5050346101ac57816003193601126101ac576020906009549051908152f35b8383346101ac5760203660031901126101ac578235801561059d5781516323b872dd60e01b84523385523060245260448290527f000000000000000000000000000000000000000000000000000000000000000094602085606481808a5af1600186511481161561057e575b828552856060521561056057847f48eabbe005cc9847391758013fa6b6a12e9f6f1791556c8b4ebe723d153fc813858561054e8160035461142b565b8060035582519182526020820152a180f35b635274afe760e01b82526001600160a01b0386169082015260249150fd5b600181151661059457863b15153d151616610512565b823d87823e3d90fd5b815162461bcd60e51b8152602081860152601d60248201527f416d6f756e74206d7573742062652067726561746572207468616e20300000006044820152606490fd5b5050346101ac57816003193601126101ac576020906007549051908152f35b919050346102c357826003193601126102c3576002835414610a615760028355600a549260ff841615610a28576009549384156109e5576002548351634952217560e11b815285810187905260209660249390926001600160a01b03929083169089818781855afa9081156109db5787916109a1575b501561095f578260085416156109255761068d611464565b9485156108f2576003549189546127109081038181116108e057906106b38a92866112ea565b0496838c8c5194859384926302d8ca0160e11b84528301525afa9081156108d6578891610824575b505115610813576106ea611509565b9384169889156107e257600680546001600160a01b0319168b1790558583039283116107d157505092610784817f2353cf989d2e1e81efa8ff61925c2c5cc4014ecabe43c8c288f59c6e406380a79460609460019998976003556107506007544261142b565b60055560ff1916600a55876009557f000000000000000000000000000000000000000000000000000000000000000061156c565b610790600754426112ab565b9388857ffee5b04775e1cd2311ed22cd00f5d2403aff38ff6f71d6d393f51854ed6bc9868c8b51868152a38751918983528a83015287820152a25551908152f35b634e487b7160e01b88526011905286fd5b600e6064928c8b519362461bcd60e51b85528401528201526d24b73b30b634b2103bb4b73732b960911b6044820152fd5b634e487b7160e01b87526032895286fd5b90503d8089833e6108358183611273565b8101908b818303126108d257805167ffffffffffffffff918282116108b8570182601f820112156108ce5780519182116108bc57908c92918160051b916108808d5195840186611273565b84528d808501928201019283116108b857908d809201905b8382106108a95750505050386106db565b81518152908201908201610898565b8a80fd5b634e487b7160e01b8a5260418c52838afd5b8980fd5b8880fd5b89513d8a823e3d90fd5b634e487b7160e01b8a5260118c52838afd5b88600f6064928c8b519362461bcd60e51b85528401528201526e4e6f207061727469636970616e747360881b6044820152fd5b865162461bcd60e51b81528089018a905260158187015274141bdbdb0818dbdb9d1c9858dd081b9bdd081cd95d605a1b6044820152606490fd5b865162461bcd60e51b81528089018a90526018818701527f52616e646f6d6e657373206e6f742066756c66696c6c656400000000000000006044820152606490fd5b90508981813d83116109d4575b6109b88183611273565b810103126109d0575180151581036109d05738610675565b8680fd5b503d6109ae565b88513d89823e3d90fd5b825162461bcd60e51b8152602081860152601d60248201527f4e6f2070656e64696e672072616e646f6d6e65737320726571756573740000006044820152606490fd5b815162461bcd60e51b815260208185015260136024820152724e6f206472617720696e2070726f677265737360681b6044820152606490fd5b51633ee5aeb560e01b8152fd5b9050346102c35760203660031901126102c357610a89611258565b610a91611438565b6001600160a01b0316918215610adc575050600280546001600160a01b031916821790557f0edefbea2abde43ca16323fe38f8fb4de530f85711a5a548f0548ceb7a5c12a18280a280f35b906020606492519162461bcd60e51b8352820152601b60248201527f496e76616c6964205652462061646170746572206164647265737300000000006044820152fd5b5050346101ac57816003193601126101ac57606090600354906005549060018060a01b03600654169181519384526020840152820152f35b5050346101ac57816003193601126101ac5760209060ff600a541690519015158152f35b5050346101ac57816003193601126101ac57517f00000000000000000000000000000000000000000000000000000000000000006001600160a01b03168152602090f35b5050346101ac57816003193601126101ac5760025490516001600160a01b039091168152602090f35b5050346101ac57816003193601126101ac5760015490516001600160a01b039091168152602090f35b5050346101ac57816003193601126101ac5760085490516001600160a01b039091168152602090f35b8334610484578060031936011261048457610c53611438565b600180546001600160a01b0319811690915581906001600160a01b03167f8be0079c531659141344cd1fd0a4f28419497f9722a3daafe3b4186f6b6457e08280a380f35b5050346101ac57816003193601126101ac576020906003549051908152f35b9050346102c35760203660031901126102c357610cd1611258565b610cd9611438565b6001600160a01b0316918215610d24575050600880546001600160a01b031916821790557fdba98b510d2a2838266e27025302f468f770eba8bb1e6f0244c557e578dc2b898280a280f35b906020606492519162461bcd60e51b8352820152601d60248201527f496e76616c696420706f6f6c20636f6e747261637420616464726573730000006044820152fd5b5050346101ac57816003193601126101ac576020906005544210159081610d91575b519015158152f35b60035415159150610d89565b8284346104845760203660031901126104845750610dc1610dbc611258565b61137b565b825191151582526020820152f35b8284346104845760203660031901126104845750610def60a09235611313565b939490928151958652600180881b03166020860152840152151560608301526080820152f35b9050346102c357826003193601126102c35760209250549051908152f35b919050346102c357806003193601126102c3576002548235906001600160a01b03163303610f21576009548103610ee9577f9b0aa3f92f46e24caa76b000bdf0dd495b9b390c320cf6585ae10a12b7d09edb602083516024358152a260208151809363b2185bb160e01b82528186305af1908115610ee05750610eb4575080f35b610ed59060203d602011610ed9575b610ecd8183611273565b8101906112cb565b5080f35b503d610ec3565b513d84823e3d90fd5b815162461bcd60e51b81526020818501526012602482015271125b9d985b1a59081c995c5d595cdd08125160721b6044820152606490fd5b815162461bcd60e51b8152602081850152601c60248201527f4f6e6c792056524620616461707465722063616e2066756c66696c6c000000006044820152606490fd5b919050346102c357806003193601126102c357610f7f611258565b506008546001600160a01b03163303610f96578280f35b906020608492519162461bcd60e51b8352820152602a60248201527f4f6e6c7920706f6f6c20636f6e74726163742063616e2072656d6f7665207061604482015269727469636970616e747360b01b6064820152fd5b5050346101ac57816003193601126101ac5760209061100d600754426112ab565b9051908152f35b9050346102c357826003193601126102c35761102e611438565b600a5460ff811661118f576005544210611157576003541561111b5760ff19166001908117600a5542600b556002548351634b75abbb60e01b8152309381019390935260248301919091526020908290604490829087906001600160a01b03165af190811561110f5783916110dc575b506020817f587602b661da57eff43c58d2ebb4b7c66d08862f786faf29f390136b3309a128926009556110d3600754426112ab565b9351908152a280f35b90506020813d602011611107575b816110f760209383611273565b810103126102c35751602061109e565b3d91506110ea565b505051903d90823e3d90fd5b506020606492519162461bcd60e51b835282015260166024820152754e6f207072697a6520746f206469737472696275746560501b6044820152fd5b506020606492519162461bcd60e51b83528201526012602482015271111c985dc81b9bdd081c9958591e481e595d60721b6044820152fd5b506020606492519162461bcd60e51b8352820152601860248201527f4472617720616c726561647920696e2070726f677265737300000000000000006044820152fd5b84918434611254573660031901126102c3576111ec611258565b506008546001600160a01b03163303611203578280f35b62461bcd60e51b8252602090820152602760248201527f4f6e6c7920706f6f6c20636f6e74726163742063616e20616464207061727469604482015266636970616e747360c81b6064820152608490fd5b8380fd5b600435906001600160a01b038216820361126e57565b600080fd5b90601f8019910116810190811067ffffffffffffffff82111761129557604052565b634e487b7160e01b600052604160045260246000fd5b81156112b5570490565b634e487b7160e01b600052601260045260246000fd5b9081602091031261126e57516001600160a01b038116810361126e5790565b818102929181159184041417156112fd57565b634e487b7160e01b600052601160045260246000fd5b61131f600754426112ab565b1461133557600090600090600090600090600090565b600354600454906127109182038281116112fd57611352916112ea565b0460018060a01b0360065416916005549160ff600a54161591611373611464565b919493929190565b6008546001600160a01b0391908216611398575050600090600090565b81602460209260405194859384926370a0823160e01b84521660048301527f0000000000000000000000000000000000000000000000000000000000000000165afa600091816113f7575b506113f15750600090600090565b80151591565b9091506020813d602011611423575b8161141360209383611273565b8101031261126e575190386113e3565b3d9150611406565b919082018092116112fd57565b6001546001600160a01b0316330361144c57565b60405163118cdaa760e01b8152336004820152602490fd5b6008546001600160a01b039081168015611502576020906024604051809481936370a0823160e01b835260048301527f0000000000000000000000000000000000000000000000000000000000000000165afa600091816114ce575b506114cb5750600090565b90565b9091506020813d6020116114fa575b816114ea60209383611273565b8101031261126e575190386114c0565b3d91506114dd565b5050600090565b6008546001600160a01b0316806115205750600090565b602060049160405192838092638da5cb5b60e01b82525afa6000918161154b57506114cb5750600090565b61156591925060203d602011610ed957610ecd8183611273565b90386114c0565b60405163a9059cbb60e01b60009081526001600160a01b039384166004526024949094529260209060448180855af16001600051148116156115cd575b83604052156115b757505050565b635274afe760e01b835216600482015260249150fd5b60018115166115e357813b15153d1516166115a9565b833d6000823e3d90fdfea26469706673582212202754ed659018e1881a0596e3c79e2085a0b89a9aed510d0db03b84a2c82a73b364736f6c63430008180033","linkReferences":{}},"methodIdentifiers":{"addParticipant(address,uint256)":"01e7fefe","addYield(uint256)":"c8b2b546","claimPrize(uint256)":"d7098154","drawInProgress()":"9e649db8","drawInterval()":"bc06c4cc","drawStartTime()":"fca6ec6a","drawWinner()":"b2185bb1","emergencyWithdraw()":"db2e21bc","fulfillRandomness(bytes32,uint256)":"1f1f897f","getCurrentDrawId()":"0e6bf4f3","getCurrentPrizeAmount()":"03b0c6c6","getDrawInfo(uint256)":"44d6de56","getNextDrawTime()":"ecfea5d5","getPrizeInfo()":"a8d4bb75","getUserParticipation(address)":"46f84795","isDrawReady()":"57ea5123","lastWinner()":"fe188184","nextDrawAt()":"748e1910","owner()":"8da5cb5b","pendingDrawRequestId()":"d1ed52cc","poolContract()":"88d52ef7","prizeBalance()":"6c6bf551","removeParticipant(address,uint256)":"1a58b262","renounceOwnership()":"715018a6","reserveBps()":"38925449","scheduleDraw()":"0bdb15cb","setDrawInterval(uint256)":"f5a9d5bb","setPoolContract(address)":"59c3f3e0","setRandomnessProvider(address)":"b15fbc14","transferOwnership(address)":"f2fde38b","vrfAdapter()":"99f8f1a1","wldToken()":"9be3783d"},"id":2}