{"abi":[{"type":"constructor","inputs":[{"name":"initialOwner","type":"address","internalType":"address"},{"name":"_vrfCoordinator","type":"address","internalType":"address"},{"name":"_keyHash","type":"bytes32","internalType":"bytes32"},{"name":"_subscriptionId","type":"uint64","internalType":"uint64"}],"stateMutability":"nonpayable"},{"type":"function","name":"addAdmin","inputs":[{"name":"admin","type":"address","internalType":"address"}],"outputs":[],"stateMutability":"nonpayable"},{"type":"function","name":"addOperator","inputs":[{"name":"operator","type":"address","internalType":"address"}],"outputs":[],"stateMutability":"nonpayable"},{"type":"function","name":"admins","inputs":[{"name":"","type":"address","internalType":"address"}],"outputs":[{"name":"","type":"bool","internalType":"bool"}],"stateMutability":"view"},{"type":"function","name":"callbackGasLimit","inputs":[],"outputs":[{"name":"","type":"uint32","internalType":"uint32"}],"stateMutability":"view"},{"type":"function","name":"cancelRequest","inputs":[{"name":"requestId","type":"bytes32","internalType":"bytes32"}],"outputs":[],"stateMutability":"nonpayable"},{"type":"function","name":"getChainlinkRequestId","inputs":[{"name":"requestId","type":"bytes32","internalType":"bytes32"}],"outputs":[{"name":"chainlinkRequestId","type":"uint256","internalType":"uint256"}],"stateMutability":"view"},{"type":"function","name":"getRandomness","inputs":[{"name":"requestId","type":"bytes32","internalType":"bytes32"}],"outputs":[{"name":"randomness","type":"uint256[]","internalType":"uint256[]"}],"stateMutability":"view"},{"type":"function","name":"getRequestStatus","inputs":[{"name":"requestId","type":"bytes32","internalType":"bytes32"}],"outputs":[{"name":"exists","type":"bool","internalType":"bool"},{"name":"fulfilled","type":"bool","internalType":"bool"},{"name":"requester","type":"address","internalType":"address"}],"stateMutability":"view"},{"type":"function","name":"getSubscriptionDetails","inputs":[],"outputs":[{"name":"balance","type":"uint96","internalType":"uint96"},{"name":"reqCount","type":"uint64","internalType":"uint64"},{"name":"owner","type":"address","internalType":"address"},{"name":"consumers","type":"address[]","internalType":"address[]"}],"stateMutability":"view"},{"type":"function","name":"getVRFConfig","inputs":[],"outputs":[{"name":"_keyHash","type":"bytes32","internalType":"bytes32"},{"name":"_subscriptionId","type":"uint64","internalType":"uint64"},{"name":"_callbackGasLimit","type":"uint32","internalType":"uint32"}],"stateMutability":"view"},{"type":"function","name":"isAdmin","inputs":[{"name":"account","type":"address","internalType":"address"}],"outputs":[{"name":"","type":"bool","internalType":"bool"}],"stateMutability":"view"},{"type":"function","name":"isOperator","inputs":[{"name":"account","type":"address","internalType":"address"}],"outputs":[{"name":"","type":"bool","internalType":"bool"}],"stateMutability":"view"},{"type":"function","name":"isReady","inputs":[],"outputs":[{"name":"ready","type":"bool","internalType":"bool"}],"stateMutability":"view"},{"type":"function","name":"isRequestFulfilled","inputs":[{"name":"requestId","type":"bytes32","internalType":"bytes32"}],"outputs":[{"name":"fulfilled","type":"bool","internalType":"bool"}],"stateMutability":"view"},{"type":"function","name":"keyHash","inputs":[],"outputs":[{"name":"","type":"bytes32","internalType":"bytes32"}],"stateMutability":"view"},{"type":"function","name":"operators","inputs":[{"name":"","type":"address","internalType":"address"}],"outputs":[{"name":"","type":"bool","internalType":"bool"}],"stateMutability":"view"},{"type":"function","name":"owner","inputs":[],"outputs":[{"name":"","type":"address","internalType":"address"}],"stateMutability":"view"},{"type":"function","name":"pause","inputs":[],"outputs":[],"stateMutability":"nonpayable"},{"type":"function","name":"paused","inputs":[],"outputs":[{"name":"","type":"bool","internalType":"bool"}],"stateMutability":"view"},{"type":"function","name":"rawFulfillRandomWords","inputs":[{"name":"chainlinkRequestId","type":"uint256","internalType":"uint256"},{"name":"randomWords","type":"uint256[]","internalType":"uint256[]"}],"outputs":[],"stateMutability":"nonpayable"},{"type":"function","name":"recoverStuckRequest","inputs":[{"name":"chainlinkRequestId","type":"uint256","internalType":"uint256"}],"outputs":[],"stateMutability":"nonpayable"},{"type":"function","name":"removeAdmin","inputs":[{"name":"admin","type":"address","internalType":"address"}],"outputs":[],"stateMutability":"nonpayable"},{"type":"function","name":"removeOperator","inputs":[{"name":"operator","type":"address","internalType":"address"}],"outputs":[],"stateMutability":"nonpayable"},{"type":"function","name":"renounceOwnership","inputs":[],"outputs":[],"stateMutability":"nonpayable"},{"type":"function","name":"requestConfirmations","inputs":[],"outputs":[{"name":"","type":"uint16","internalType":"uint16"}],"stateMutability":"view"},{"type":"function","name":"requestRandomness","inputs":[{"name":"requester","type":"address","internalType":"address"},{"name":"numWords","type":"uint32","internalType":"uint32"}],"outputs":[{"name":"requestId","type":"bytes32","internalType":"bytes32"}],"stateMutability":"nonpayable"},{"type":"function","name":"subscriptionId","inputs":[],"outputs":[{"name":"","type":"uint64","internalType":"uint64"}],"stateMutability":"view"},{"type":"function","name":"transferOwnership","inputs":[{"name":"newOwner","type":"address","internalType":"address"}],"outputs":[],"stateMutability":"nonpayable"},{"type":"function","name":"unpause","inputs":[],"outputs":[],"stateMutability":"nonpayable"},{"type":"function","name":"updateRequestConfirmations","inputs":[{"name":"_requestConfirmations","type":"uint16","internalType":"uint16"}],"outputs":[],"stateMutability":"nonpayable"},{"type":"function","name":"updateVRFConfig","inputs":[{"name":"_keyHash","type":"bytes32","internalType":"bytes32"},{"name":"_subscriptionId","type":"uint64","internalType":"uint64"},{"name":"_callbackGasLimit","type":"uint32","internalType":"uint32"}],"outputs":[],"stateMutability":"nonpayable"},{"type":"function","name":"vrfCoordinator","inputs":[],"outputs":[{"name":"","type":"address","internalType":"contract VRFCoordinatorV2Interface"}],"stateMutability":"view"},{"type":"event","name":"AdminAdded","inputs":[{"name":"admin","type":"address","indexed":true,"internalType":"address"}],"anonymous":false},{"type":"event","name":"AdminRemoved","inputs":[{"name":"admin","type":"address","indexed":true,"internalType":"address"}],"anonymous":false},{"type":"event","name":"OperatorAdded","inputs":[{"name":"operator","type":"address","indexed":true,"internalType":"address"}],"anonymous":false},{"type":"event","name":"OperatorRemoved","inputs":[{"name":"operator","type":"address","indexed":true,"internalType":"address"}],"anonymous":false},{"type":"event","name":"OwnershipTransferred","inputs":[{"name":"previousOwner","type":"address","indexed":true,"internalType":"address"},{"name":"newOwner","type":"address","indexed":true,"internalType":"address"}],"anonymous":false},{"type":"event","name":"Paused","inputs":[{"name":"account","type":"address","indexed":false,"internalType":"address"}],"anonymous":false},{"type":"event","name":"RandomnessFulfilled","inputs":[{"name":"requestId","type":"bytes32","indexed":true,"internalType":"bytes32"},{"name":"randomness","type":"uint256","indexed":false,"internalType":"uint256"}],"anonymous":false},{"type":"event","name":"RandomnessRequested","inputs":[{"name":"requestId","type":"bytes32","indexed":true,"internalType":"bytes32"},{"name":"requester","type":"address","indexed":true,"internalType":"address"}],"anonymous":false},{"type":"event","name":"Unpaused","inputs":[{"name":"account","type":"address","indexed":false,"internalType":"address"}],"anonymous":false},{"type":"event","name":"VRFConfigUpdated","inputs":[{"name":"keyHash","type":"bytes32","indexed":false,"internalType":"bytes32"},{"name":"subscriptionId","type":"uint64","indexed":false,"internalType":"uint64"},{"name":"callbackGasLimit","type":"uint32","indexed":false,"internalType":"uint32"}],"anonymous":false},{"type":"error","name":"EnforcedPause","inputs":[]},{"type":"error","name":"ExpectedPause","inputs":[]},{"type":"error","name":"InsufficientFunds","inputs":[]},{"type":"error","name":"InvalidConfiguration","inputs":[]},{"type":"error","name":"InvalidRequestId","inputs":[{"name":"requestId","type":"bytes32","internalType":"bytes32"}]},{"type":"error","name":"NotAdmin","inputs":[{"name":"caller","type":"address","internalType":"address"}]},{"type":"error","name":"OwnableInvalidOwner","inputs":[{"name":"owner","type":"address","internalType":"address"}]},{"type":"error","name":"OwnableUnauthorizedAccount","inputs":[{"name":"account","type":"address","internalType":"address"}]},{"type":"error","name":"ReentrancyGuardReentrantCall","inputs":[]},{"type":"error","name":"Unauthorized","inputs":[{"name":"caller","type":"address","internalType":"address"}]},{"type":"error","name":"UnauthorizedFulfillment","inputs":[{"name":"caller","type":"address","internalType":"address"}]},{"type":"error","name":"VRFRequestFailed","inputs":[{"name":"reason","type":"string","internalType":"string"}]},{"type":"error","name":"ZeroAddress","inputs":[]}],"bytecode":{"object":"0x60a0346200016f576001600160401b03601f6200198d38819003918201601f19168401918383118584101762000174578085926080946040528339810103126200016f576200004e826200018a565b6200005c602084016200018a565b606060408501519401519283168093036200016f576001600160a01b0391821680156200015657600080546001600160a01b03198116831782558416907f8be0079c531659141344cd1fd0a4f28419497f9722a3daafe3b4186f6b6457e09080a3600180551691821562000144576c03000000000000000000000000926080526006556a030d4000000000000000006dffff000000000000000000000000199160018060601b031960075416171716176007556040516117ed9081620001a082396080518181816103ce01528181610af701528181610ffb015281816112da01526117150152f35b60405163d92e233d60e01b8152600490fd5b604051631e4fbdf760e01b815260006004820152602490fd5b600080fd5b634e487b7160e01b600052604160045260246000fd5b51906001600160a01b03821682036200016f5756fe6080604081815260048036101561001557600080fd5b600092833560e01c90816305b19402146113d45750806309c1ba2e146113ab5780630d5de6df1461129457806313e7c9d8146112565780631640d2f9146111cd5780631785f53c146111675780631fe543e314610f7d57806324d7806c14610f3357806324f7469714610f0d5780633f4ba83a14610e7a578063429b62e514610e3c57806345d0766414610df05780634b75abbb146109d557806350125546146108c45780635161b0d6146107915780635c975abb1461076c57806361728f391461074d5780636d70f7ae146106dc578063704802751461066c578063715018a6146106125780638456cb59146105775780638da5cb5b1461054f57806392a442ea146105215780639870d7fe1461047d5780639a5ea6a014610439578063a094a031146103fd578063a3e56fa8146103b9578063ac8a584a14610315578063ae03feca146102ec578063b0fb162f146102c2578063ba00f6c51461020c5763f2fde38b1461018357600080fd5b346102085760203660031901126102085761019c6114d9565b906101a5611695565b6001600160a01b039182169283156101f257505082546001600160a01b0319811683178455167f8be0079c531659141344cd1fd0a4f28419497f9722a3daafe3b4186f6b6457e08380a380f35b51631e4fbdf760e01b8152908101849052602490fd5b8280fd5b50346102085760203660031901126102085780359161ffff83168084036102be57338552600260205260ff828620541615806102aa575b6102945760038110908115610289575b5061027c5750506007805461ffff60601b191660609290921b61ffff60601b1691909117905580f35b5163c52a9bd360e01b8152fd5b60c891501138610253565b8151630bd4212160e11b81523381850152602490fd5b5084546001600160a01b0316331415610243565b8480fd5b5050346102e857816003193601126102e85760209061ffff60075460601c169051908152f35b5080fd5b503461020857602036600319011261020857816020938260029335825285522001549051908152f35b50346102085760203660031901126102085761032f6114d9565b90338452600260205260ff838520541615806103a5575b61038e57506001600160a01b03168083526003602052908220805460ff191690557f80c0b871b97b595b16a7741c1b06fed0c6f6f558639f18ccbce50724325dc40d8280a280f35b602490835190630bd4212160e11b82523390820152fd5b5083546001600160a01b0316331415610346565b5050346102e857816003193601126102e857517f00000000000000000000000000000000000000000000000000000000000000006001600160a01b03168152602090f35b5050346102e857816003193601126102e85760ff6020925460a01c16159081610429575b519015158152f35b90506104336116e2565b90610421565b82843461047a578060031936011261047a5750600654600754825191825267ffffffffffffffff8116602083015290911c63ffffffff166040820152606090f35b80fd5b509034610208576020366003190112610208576104986114d9565b338452600260205260ff8285205416158061050d575b610294576001600160a01b03169182156104ff575081835260036020528220805460ff191660011790557fac6fa858e9350a46cec16539926e0fde25b7629f84b5a72bffaae4df888ae86d8280a280f35b905163d92e233d60e01b8152fd5b5083546001600160a01b03163314156104ae565b503461020857602036600319011261020857816020938260ff933582528552205460081c1690519015158152f35b5050346102e857816003193601126102e857905490516001600160a01b039091168152602090f35b5034610208578260031936011261020857338352600260205260ff828420541615806105fe575b6105e8575060207f62e78cea01bee320cd4e420270b5ea74000d11b0c9f74754ebdbfc544b05a258916105cf6116c1565b835460ff60a01b1916600160a01b17845551338152a180f35b6024915190630bd4212160e11b82523390820152fd5b5082546001600160a01b031633141561059e565b833461047a578060031936011261047a5761062b611695565b80546001600160a01b03198116825581906001600160a01b03167f8be0079c531659141344cd1fd0a4f28419497f9722a3daafe3b4186f6b6457e08280a380f35b509034610208576020366003190112610208576106876114d9565b61068f611695565b6001600160a01b03169182156104ff575081835260026020528220805460ff191660011790557f44d6d25963f097ad14f29f06854a01f575648a1ef82f30e562ccd3889717e3398280a280f35b5050346102e85760203660031901126102e857602091906001600160a01b03806107046114d9565b16908184526003855260ff838520541693841561073b575b841561072e575b505050519015158152f35b5416149150388080610723565b600286528381205460ff16945061071c565b5050346102e857816003193601126102e8576020906006549051908152f35b5050346102e857816003193601126102e85760ff6020925460a01c1690519015158152f35b509190346102e85760603660031901126102e85782356024359167ffffffffffffffff83168084036102be576044359563ffffffff87168088036108c057338752600260205260ff848820541615806108ac575b6108965761c3508110908115610889575b5061087b57506006839055600780546bffffffffffffffffffffffff191690911786831b6bffffffff0000000000000000161790555190815267ffffffffffffffff909116602082015263ffffffff9092166040830152907fbb798ad5473a80c221bed0117a5ac972ac52e75af49ee7c7f2e49c53c4b4e2999080606081010390a180f35b825163c52a9bd360e01b8152fd5b622625a0915011386107f6565b8351630bd4212160e11b81523381840152602490fd5b5086546001600160a01b03163314156107e5565b8680fd5b509190346102e857602092836003193601126102085780359384845281815282842094855460ff8116156109be5760ff8160081c1661097b5760101c6001600160a01b039081163314159081610965575b81610957575b5061094157600261093e9596015486526005825285848120558552528220611658565b80f35b835163472511eb60e11b81523381850152602490fd5b90508554163314153861091b565b338752600284528587205460ff16159150610915565b50506064925191631bc0b74560e01b8352820152601960248201527f5265717565737420616c72656164792066756c66696c6c6564000000000000006044820152fd5b845163a48032d560e01b8152808501839052602490fd5b50913461047a578160031936011261047a576109ef6114d9565b9160249283359163ffffffff918284168094036102be57610a0e6116c1565b6001600160a01b0393818516908115610de05780158015610dd6575b610dc657610a366116e2565b15610db657600854946000198614610da4576001906001870160085585519060209889830198428a52438985015260609733891b898601526001600160601b031990891b16607485015260888401526088835260c083019167ffffffffffffffff998484108b851117610d9257838d818b9a999897958f97958f8f8a978582528a5190209e600654906007549384928d6305d3b1d360e41b8a5260c40152821660e48d01521c61ffff166101048b01521c16610124880152896101448801527f000000000000000000000000000000000000000000000000000000000000000016915a9260a493f19283928d94610d5d575b505050610be257505050505083903d600014610bd45750503d918211610bc1578083915192610b6083601f19601f84011601856114f4565b83523d858385013e9593919492955b51958694631bc0b74560e01b865285015284518093850152815b838110610baa57505060448094508284010152601f80199101168101030190fd5b808601820151878201604401528694508101610b89565b5050634e487b7160e01b82525060418352fd5b909192509492959391610b6f565b968a93958c8b99989698958751928c840184811086821117610d4b5789528b845288519660c0880188811087821117610d3957908b8f8f8f978e928e9c9b9a9960a08f849b9a9987526001815283810199868b528782019889528101988952608081019c8d52019d8e5283525220995115159260ff61ff008c549251151560081b169262010000600160b01b03905160101b169363ffffffff60b01b905160b01b1694169065ffffffffffff60d01b16171717178755600187019251918251948511610d28575050918b8a979593610cbe83859b99979561160e565b01978b528b8b20978b985b828a10610d1257505050507f24824956716588cf18c3cb557ee25fa952255246eb51235316882371d343c355949550600290519101558652600587528281872055519480a38152f35b81518a820155988301988b9850908d0190610cc9565b634e487b7160e01b8d52604190528bfd5b634e487b7160e01b8e5260418552838efd5b634e487b7160e01b8d5260418452828dfd5b9080929394503d8311610d8b575b610d7581856114f4565b81010312610d87575190388a81610b28565b8a80fd5b503d610d6b565b634e487b7160e01b8d5260418f528d8dfd5b634e487b7160e01b885260118a528888fd5b835163356680b760e01b81528990fd5b835163c52a9bd360e01b81528990fd5b5060018111610a2a565b835163d92e233d60e01b81528990fd5b50346102085760203660031901126102085760609281839235825260205220549080519160ff81161515835260ff8160081c161515602084015260018060a01b039060101c1690820152f35b5050346102e85760203660031901126102e85760209160ff9082906001600160a01b03610e676114d9565b1681526002855220541690519015158152f35b5034610208578260031936011261020857338352600260205260ff82842054161580610ef9575b6105e85782549060ff8260a01c1615610eeb575060ff60a01b19168255513381527f5db9ee0a495bf2e6ff9c91a7834c1ba4fdd244a5e8aa4e537bd38aeae4b073aa90602090a180f35b8251638dfc202b60e01b8152fd5b5082546001600160a01b0316331415610ea1565b5050346102e857816003193601126102e8576007548151911c63ffffffff168152602090f35b5050346102e85760203660031901126102e857602091906001600160a01b0380610f5b6114d9565b16908184526002855260ff838520541693841561072e57505050519015158152f35b508290346102e857826003193601126102e857803560249384359167ffffffffffffffff938484116111635736602385011215611163578381013591610fc28361152c565b90610fcf855192836114f4565b8382526020958683018a819660051b83010191368311610d87578b899101915b838310611153575050507f00000000000000000000000000000000000000000000000000000000000000006001600160a01b03163303905061113f5780885260058652848820549687156111295787895283875285892090815460ff811615801561111c575b611106576101009061ff001916178255600180920184519182116110f45761107d828261160e565b86908b52888b208b5b8381106110e3575050505050875260058552868481205551156110d157505190519081527f9b0aa3f92f46e24caa76b000bdf0dd495b9b390c320cf6585ae10a12b7d09edb9190a280f35b634e487b7160e01b8652603290528585fd5b825182820155918a01918401611086565b634e487b7160e01b8b52604186528b8bfd5b875163a48032d560e01b81528087018b90528c90fd5b5060ff8160081c16611055565b855163a48032d560e01b81528085018390528a90fd5b845162f8dcf560e31b815233818501528990fd5b8235815291810191899101610fef565b8580fd5b5050346102e85760203660031901126102e8576111826114d9565b61118a611695565b6001600160a01b03168083526002602052908220805460ff191690557fa3b62bc36326052d97ea62d63c3d60308ed4c3ea8ac079dd8499f1e9c4f80c0f8280a280f35b50903461020857602036600319011261020857338352600260205260ff81842054161580611242575b61122b5781358352600560205280832091825484816112125780f35b611223945584526020528220611658565b388080808480f35b602492505190630bd4212160e11b82523390820152fd5b5082546001600160a01b03163314156111f6565b5050346102e85760203660031901126102e85760209160ff9082906001600160a01b036112816114d9565b1681526003855220541690519015158152f35b50823461047a578060031936011261047a57600754835163523e3b4b60e11b815267ffffffffffffffff918216938101939093526001600160a01b0393909282816024817f000000000000000000000000000000000000000000000000000000000000000089165afa9283156113a057809286829383908497611371575b50829594939551976001600160601b0360808a01961689526020941660208901521690860152608060608601528351809252602060a086019401925b82811061135b5785850386f35b835187168552938101939281019260010161134e565b9295505092506113949194503d8086833e61138c81836114f4565b810190611558565b95929491939089611312565b8251903d90823e3d90fd5b5050346102e857816003193601126102e85760209067ffffffffffffffff600754169051908152f35b9390503461047a57602091826003193601126102e85780358083528184528483209586549160ff8316156114c557505060081c60ff16156114895750825160019485018054808352908352838320828501969491879190855b81811061147657505050826114439103836114f4565b8451948186019282875251809352850195925b8281106114635785870386f35b8351875295810195928101928401611456565b825484529284019291870191870161142d565b8351631bc0b74560e01b8152908101839052601560248201527414995c5d595cdd081b9bdd08199d5b199a5b1b1959605a1b6044820152606490fd5b63a48032d560e01b82528184015260249150fd5b600435906001600160a01b03821682036114ef57565b600080fd5b90601f8019910116810190811067ffffffffffffffff82111761151657604052565b634e487b7160e01b600052604160045260246000fd5b67ffffffffffffffff81116115165760051b60200190565b51906001600160a01b03821682036114ef57565b6080818303126114ef5780516001600160601b03811681036114ef5792602092838301519367ffffffffffffffff9485811681036114ef579461159d60408601611544565b9460608101519182116114ef57019180601f840112156114ef5782516115c28161152c565b936115d060405195866114f4565b818552838086019260051b8201019283116114ef578301905b8282106115f7575050505090565b83809161160384611544565b8152019101906115e9565b6801000000000000000082116115165780549180825582811061163057505050565b600091600052602060002092830192015b82811061164d57505050565b818155600101611641565b600090818155600180820180549084815581611678575b50505060020155565b845260208420908101905b8181101561166f578481558201611683565b6000546001600160a01b031633036116a957565b60405163118cdaa760e01b8152336004820152602490fd5b60ff60005460a01c166116d057565b60405163d93c066560e01b8152600490fd5b60075460405163523e3b4b60e11b815267ffffffffffffffff90911660048201526000906001600160a01b0382826024817f000000000000000000000000000000000000000000000000000000000000000085165afa918284918594611795575b5061174e5750505090565b6001600160601b03161561179057825b825181101561178a57308260208360051b8601015116146117815760010161175e565b50505050600190565b50505090565b505090565b9093506117ac91503d8086833e61138c81836114f4565b94915038905061174356fea2646970667358221220016ef68fcd78ba9723757bfba42f1e6323107c4f48006a719044d26450c3d52264736f6c63430008180033","linkReferences":{}},"methodIdentifiers":{"addAdmin(address)":"70480275","addOperator(address)":"9870d7fe","admins(address)":"429b62e5","callbackGasLimit()":"24f74697","cancelRequest(bytes32)":"50125546","getChainlinkRequestId(bytes32)":"ae03feca","getRandomness(bytes32)":"05b19402","getRequestStatus(bytes32)":"45d07664","getSubscriptionDetails()":"0d5de6df","getVRFConfig()":"9a5ea6a0","isAdmin(address)":"24d7806c","isOperator(address)":"6d70f7ae","isReady()":"a094a031","isRequestFulfilled(bytes32)":"92a442ea","keyHash()":"61728f39","operators(address)":"13e7c9d8","owner()":"8da5cb5b","pause()":"8456cb59","paused()":"5c975abb","rawFulfillRandomWords(uint256,uint256[])":"1fe543e3","recoverStuckRequest(uint256)":"1640d2f9","removeAdmin(address)":"1785f53c","removeOperator(address)":"ac8a584a","renounceOwnership()":"715018a6","requestConfirmations()":"b0fb162f","requestRandomness(address,uint32)":"4b75abbb","subscriptionId()":"09c1ba2e","transferOwnership(address)":"f2fde38b","unpause()":"3f4ba83a","updateRequestConfirmations(uint16)":"ba00f6c5","updateVRFConfig(bytes32,uint64,uint32)":"5161b0d6","vrfCoordinator()":"a3e56fa8"},"id":3}