{"abi":[{"type":"constructor","inputs":[{"name":"initialOwner","type":"address","internalType":"address"}],"stateMutability":"nonpayable"},{"type":"function","name":"addAdmin","inputs":[{"name":"admin","type":"address","internalType":"address"}],"outputs":[],"stateMutability":"nonpayable"},{"type":"function","name":"addOperator","inputs":[{"name":"operator","type":"address","internalType":"address"}],"outputs":[],"stateMutability":"nonpayable"},{"type":"function","name":"admins","inputs":[{"name":"","type":"address","internalType":"address"}],"outputs":[{"name":"","type":"bool","internalType":"bool"}],"stateMutability":"view"},{"type":"function","name":"autoFulfill","inputs":[],"outputs":[{"name":"","type":"bool","internalType":"bool"}],"stateMutability":"view"},{"type":"function","name":"callbackGasLimit","inputs":[],"outputs":[{"name":"","type":"uint32","internalType":"uint32"}],"stateMutability":"view"},{"type":"function","name":"cancelRequest","inputs":[{"name":"requestId","type":"bytes32","internalType":"bytes32"}],"outputs":[],"stateMutability":"nonpayable"},{"type":"function","name":"fulfillRequest","inputs":[{"name":"requestId","type":"bytes32","internalType":"bytes32"}],"outputs":[],"stateMutability":"nonpayable"},{"type":"function","name":"fulfillmentDelay","inputs":[],"outputs":[{"name":"","type":"uint256","internalType":"uint256"}],"stateMutability":"view"},{"type":"function","name":"getPendingRequests","inputs":[],"outputs":[{"name":"requestIds","type":"bytes32[]","internalType":"bytes32[]"}],"stateMutability":"view"},{"type":"function","name":"getRandomness","inputs":[{"name":"requestId","type":"bytes32","internalType":"bytes32"}],"outputs":[{"name":"randomness","type":"uint256[]","internalType":"uint256[]"}],"stateMutability":"view"},{"type":"function","name":"getRequestStatus","inputs":[{"name":"requestId","type":"bytes32","internalType":"bytes32"}],"outputs":[{"name":"exists","type":"bool","internalType":"bool"},{"name":"fulfilled","type":"bool","internalType":"bool"},{"name":"requester","type":"address","internalType":"address"}],"stateMutability":"view"},{"type":"function","name":"getVRFConfig","inputs":[],"outputs":[{"name":"_keyHash","type":"bytes32","internalType":"bytes32"},{"name":"_subscriptionId","type":"uint64","internalType":"uint64"},{"name":"_callbackGasLimit","type":"uint32","internalType":"uint32"}],"stateMutability":"view"},{"type":"function","name":"isAdmin","inputs":[{"name":"account","type":"address","internalType":"address"}],"outputs":[{"name":"","type":"bool","internalType":"bool"}],"stateMutability":"view"},{"type":"function","name":"isOperator","inputs":[{"name":"account","type":"address","internalType":"address"}],"outputs":[{"name":"","type":"bool","internalType":"bool"}],"stateMutability":"view"},{"type":"function","name":"isReady","inputs":[],"outputs":[{"name":"ready","type":"bool","internalType":"bool"}],"stateMutability":"view"},{"type":"function","name":"isRequestFulfilled","inputs":[{"name":"requestId","type":"bytes32","internalType":"bytes32"}],"outputs":[{"name":"fulfilled","type":"bool","internalType":"bool"}],"stateMutability":"view"},{"type":"function","name":"keyHash","inputs":[],"outputs":[{"name":"","type":"bytes32","internalType":"bytes32"}],"stateMutability":"view"},{"type":"function","name":"operators","inputs":[{"name":"","type":"address","internalType":"address"}],"outputs":[{"name":"","type":"bool","internalType":"bool"}],"stateMutability":"view"},{"type":"function","name":"owner","inputs":[],"outputs":[{"name":"","type":"address","internalType":"address"}],"stateMutability":"view"},{"type":"function","name":"pause","inputs":[],"outputs":[],"stateMutability":"nonpayable"},{"type":"function","name":"paused","inputs":[],"outputs":[{"name":"","type":"bool","internalType":"bool"}],"stateMutability":"view"},{"type":"function","name":"removeAdmin","inputs":[{"name":"admin","type":"address","internalType":"address"}],"outputs":[],"stateMutability":"nonpayable"},{"type":"function","name":"removeOperator","inputs":[{"name":"operator","type":"address","internalType":"address"}],"outputs":[],"stateMutability":"nonpayable"},{"type":"function","name":"renounceOwnership","inputs":[],"outputs":[],"stateMutability":"nonpayable"},{"type":"function","name":"requestRandomness","inputs":[{"name":"requester","type":"address","internalType":"address"},{"name":"numWords","type":"uint32","internalType":"uint32"}],"outputs":[{"name":"requestId","type":"bytes32","internalType":"bytes32"}],"stateMutability":"nonpayable"},{"type":"function","name":"setAutoFulfill","inputs":[{"name":"_autoFulfill","type":"bool","internalType":"bool"}],"outputs":[],"stateMutability":"nonpayable"},{"type":"function","name":"setFulfillmentDelay","inputs":[{"name":"_delay","type":"uint256","internalType":"uint256"}],"outputs":[],"stateMutability":"nonpayable"},{"type":"function","name":"subscriptionId","inputs":[],"outputs":[{"name":"","type":"uint64","internalType":"uint64"}],"stateMutability":"view"},{"type":"function","name":"transferOwnership","inputs":[{"name":"newOwner","type":"address","internalType":"address"}],"outputs":[],"stateMutability":"nonpayable"},{"type":"function","name":"unpause","inputs":[],"outputs":[],"stateMutability":"nonpayable"},{"type":"function","name":"updateVRFConfig","inputs":[{"name":"_keyHash","type":"bytes32","internalType":"bytes32"},{"name":"_subscriptionId","type":"uint64","internalType":"uint64"},{"name":"_callbackGasLimit","type":"uint32","internalType":"uint32"}],"outputs":[],"stateMutability":"nonpayable"},{"type":"event","name":"AdminAdded","inputs":[{"name":"admin","type":"address","indexed":true,"internalType":"address"}],"anonymous":false},{"type":"event","name":"AdminRemoved","inputs":[{"name":"admin","type":"address","indexed":true,"internalType":"address"}],"anonymous":false},{"type":"event","name":"OperatorAdded","inputs":[{"name":"operator","type":"address","indexed":true,"internalType":"address"}],"anonymous":false},{"type":"event","name":"OperatorRemoved","inputs":[{"name":"operator","type":"address","indexed":true,"internalType":"address"}],"anonymous":false},{"type":"event","name":"OwnershipTransferred","inputs":[{"name":"previousOwner","type":"address","indexed":true,"internalType":"address"},{"name":"newOwner","type":"address","indexed":true,"internalType":"address"}],"anonymous":false},{"type":"event","name":"Paused","inputs":[{"name":"account","type":"address","indexed":false,"internalType":"address"}],"anonymous":false},{"type":"event","name":"RandomnessFulfilled","inputs":[{"name":"requestId","type":"bytes32","indexed":true,"internalType":"bytes32"},{"name":"randomness","type":"uint256","indexed":false,"internalType":"uint256"}],"anonymous":false},{"type":"event","name":"RandomnessRequested","inputs":[{"name":"requestId","type":"bytes32","indexed":true,"internalType":"bytes32"},{"name":"requester","type":"address","indexed":true,"internalType":"address"}],"anonymous":false},{"type":"event","name":"Unpaused","inputs":[{"name":"account","type":"address","indexed":false,"internalType":"address"}],"anonymous":false},{"type":"event","name":"VRFConfigUpdated","inputs":[{"name":"keyHash","type":"bytes32","indexed":false,"internalType":"bytes32"},{"name":"subscriptionId","type":"uint64","indexed":false,"internalType":"uint64"},{"name":"callbackGasLimit","type":"uint32","indexed":false,"internalType":"uint32"}],"anonymous":false},{"type":"error","name":"EnforcedPause","inputs":[]},{"type":"error","name":"ExpectedPause","inputs":[]},{"type":"error","name":"InsufficientFunds","inputs":[]},{"type":"error","name":"InvalidConfiguration","inputs":[]},{"type":"error","name":"InvalidRequestId","inputs":[{"name":"requestId","type":"bytes32","internalType":"bytes32"}]},{"type":"error","name":"NotAdmin","inputs":[{"name":"caller","type":"address","internalType":"address"}]},{"type":"error","name":"OwnableInvalidOwner","inputs":[{"name":"owner","type":"address","internalType":"address"}]},{"type":"error","name":"OwnableUnauthorizedAccount","inputs":[{"name":"account","type":"address","internalType":"address"}]},{"type":"error","name":"ReentrancyGuardReentrantCall","inputs":[]},{"type":"error","name":"Unauthorized","inputs":[{"name":"caller","type":"address","internalType":"address"}]},{"type":"error","name":"UnauthorizedFulfillment","inputs":[{"name":"caller","type":"address","internalType":"address"}]},{"type":"error","name":"VRFRequestFailed","inputs":[{"name":"reason","type":"string","internalType":"string"}]},{"type":"error","name":"ZeroAddress","inputs":[]}],"bytecode":{"object":"0x60803461011057601f61164b38819003918201601f19168301916001600160401b038311848410176101155780849260209460405283398101031261011057516001600160a01b03808216918290036101105781156100f7576000548260018060a01b0319821617600055167f8be0079c531659141344cd1fd0a4f28419497f9722a3daafe3b4186f6b6457e0600080a360018080556006805460ff1916909117905560006007557ffe15f0f0ec6aecf3f4887ebe9be0f4e7bb688736814f0dfbd465dc9bfbf2e82d600855600980546001600160601b0319166a030d40000000000000000117905560405161151f908161012c8239f35b604051631e4fbdf760e01b815260006004820152602490fd5b600080fd5b634e487b7160e01b600052604160045260246000fdfe6080604081815260048036101561001557600080fd5b600092833560e01c90816305b19402146110dd5750806309c1ba2e146110b457806313e7c9d8146110765780631785f53c146110105780631b95608114610fc757806324d7806c14610f7d57806324f7469714610f575780633f4ba83a14610ec4578063429b62e514610e86578063432d013714610d9657806345d0766414610d4a5780634b75abbb14610adb5780634ea94e7714610a6057806350125546146109215780635161b0d6146108165780635c975abb146107f157806361728f39146107d25780636d70f7ae1461076157806370480275146106f1578063715018a614610697578063798977851461067857806380a1f712146104e05780638456cb59146104455780638da5cb5b1461041d57806392a442ea146103ef5780639870d7fe146103355780639a5ea6a0146102f1578063a094a031146102cd578063ac8a584a14610229578063dba41fdd146102015763f2fde38b1461017857600080fd5b346101fd5760203660031901126101fd576101916111e2565b9061019a611318565b6001600160a01b039182169283156101e757505082546001600160a01b0319811683178455167f8be0079c531659141344cd1fd0a4f28419497f9722a3daafe3b4186f6b6457e08380a380f35b51631e4fbdf760e01b8152908101849052602490fd5b8280fd5b50503461022557816003193601126102255760209060ff6006541690519015158152f35b5080fd5b50346101fd5760203660031901126101fd576102436111e2565b90338452600260205260ff838520541615806102b9575b6102a257506001600160a01b03168083526003602052908220805460ff191690557f80c0b871b97b595b16a7741c1b06fed0c6f6f558639f18ccbce50724325dc40d8280a280f35b602490835190630bd4212160e11b82523390820152fd5b5083546001600160a01b031633141561025a565b50503461022557816003193601126102255760ff6020925460a01c16159051908152f35b82843461033257806003193601126103325750600854600954825191825267ffffffffffffffff8116602083015290911c63ffffffff166040820152606090f35b80fd5b5090346101fd5760203660031901126101fd576103506111e2565b338452600260205260ff828520541615806103db575b6103c5576001600160a01b03169182156103b7575081835260036020528220805460ff191660011790557fac6fa858e9350a46cec16539926e0fde25b7629f84b5a72bffaae4df888ae86d8280a280f35b905163d92e233d60e01b8152fd5b8151630bd4212160e11b81523381850152602490fd5b5083546001600160a01b0316331415610366565b50346101fd5760203660031901126101fd57816020938260ff933582528552205460081c1690519015158152f35b505034610225578160031936011261022557905490516001600160a01b039091168152602090f35b50346101fd57826003193601126101fd57338352600260205260ff828420541615806104cc575b6104b6575060207f62e78cea01bee320cd4e420270b5ea74000d11b0c9f74754ebdbfc544b05a2589161049d6114c8565b835460ff60a01b1916600160a01b17845551338152a180f35b6024915190630bd4212160e11b82523390820152fd5b5082546001600160a01b031633141561046c565b50346101fd57826003193601126101fd57815190610ca082019367ffffffffffffffff948381108682111761066557845260649360648452602091610c80368487013780938196600554975b8881108061065c575b156105d657845186810190631d195cdd60e21b82526024838183015280825260608201908d838310908311176105c5575087525190208085528387528585205460ff80821691826105b7575b5050610597575b5061059290611235565b61052c565b876105b0916105aa610592949a8c6112ee565b52611235565b9690610588565b60081c161590503880610581565b634e487b7160e01b88526041875287fd5b5050509193929094506105e881611272565b92825b8281106106335750505083519383808695860192818752855180945286019401925b82811061061c57505050500390f35b83518552869550938101939281019260010161060d565b806106456001928499979896996112ee565b5161065082896112ee565b520195929493956105eb565b50818710610535565b506041602492634e487b7160e01b835252fd5b5050346102255781600319360112610225576020906007549051908152f35b83346103325780600319360112610332576106b0611318565b80546001600160a01b03198116825581906001600160a01b03167f8be0079c531659141344cd1fd0a4f28419497f9722a3daafe3b4186f6b6457e08280a380f35b5090346101fd5760203660031901126101fd5761070c6111e2565b610714611318565b6001600160a01b03169182156103b7575081835260026020528220805460ff191660011790557f44d6d25963f097ad14f29f06854a01f575648a1ef82f30e562ccd3889717e3398280a280f35b50503461022557602036600319011261022557602091906001600160a01b03806107896111e2565b16908184526003855260ff83852054169384156107c0575b84156107b3575b505050519015158152f35b54161491503880806107a8565b600286528381205460ff1694506107a1565b5050346102255781600319360112610225576020906008549051908152f35b50503461022557816003193601126102255760ff6020925460a01c1690519015158152f35b508290346102255760603660031901126102255780356024359167ffffffffffffffff831680840361091d576044359163ffffffff8316830361091957338652600260205260ff87872054161580610905575b6108ee57506008839055600980546bffffffffffffffffffffffff191690911782871b6bffffffff000000000000000016179055935190815267ffffffffffffffff909116602082015263ffffffff9092166040830152907fbb798ad5473a80c221bed0117a5ac972ac52e75af49ee7c7f2e49c53c4b4e2999080606081010390a180f35b602490875190630bd4212160e11b82523390820152fd5b5085546001600160a01b0316331415610869565b8580fd5b8480fd5b5091903461022557602090816003193601126101fd578335938484528083528184205460ff811615610a4a5760ff8160081c16610a075760101c6001600160a01b0390811633141590816109f1575b816109e3575b506109cd578394845282528220908282556001906001830190815491858155826109a5575b8580600287015580f35b855284209392919084015b8085106109bf5782939461099b565b9284559283019284926109b0565b602491519063472511eb60e11b82523390820152fd5b905084541633141538610976565b338652600285528386205460ff16159150610970565b50826064925191631bc0b74560e01b8352820152601960248201527f5265717565737420616c72656164792066756c66696c6c6564000000000000006044820152fd5b5084602492519163a48032d560e01b8352820152fd5b50346101fd5760203660031901126101fd57803591821515809303610ad757338452600260205260ff81852054161580610ac3575b610aac57505060ff80196006541691161760065580f35b602492505190630bd4212160e11b82523390820152fd5b5083546001600160a01b0316331415610a95565b8380fd5b5090346101fd57806003193601126101fd57610af56111e2565b916024359363ffffffff851680950361033257610b106114c8565b6001600160a01b038416918215610d3c5785158015610d32575b610d245760055495610b3b87611235565b6005558451956020978888019142835243888a01523360601b60608a01526bffffffffffffffffffffffff199060601b16607489015260888801526088875260c0870167ffffffffffffffff9188821083831117610d1157818852885190209760e00182811182821017610d1157875284815286519360c0850185811084821117610cfe579089949392918952600193600187528b8701908882528c838c8a01918c835260608b0193845260808b0196875260a08b0199428b528c52528b8a20985115159260ff61ff008b549251151560081b169262010000600160b01b03905160101b169363ffffffff60b01b905160b01b1694169065ffffffffffff60d01b16171717178655600186019151908151938411610ceb5750908a8392610c678c9998979695846112a4565b019086528a8620865b838110610cd75750505050509060027f24824956716588cf18c3cb557ee25fa952255246eb51235316882371d343c35593925191015580a360ff6006541680610ccd575b610cbf575b51908152f35b610cc882611344565b610cb9565b5060075415610cb4565b8251818301558b9850918c01918401610c70565b634e487b7160e01b885260419052602487fd5b634e487b7160e01b875260418252602487fd5b634e487b7160e01b865260418552602486fd5b835163c52a9bd360e01b8152fd5b50600a8611610b2a565b835163d92e233d60e01b8152fd5b50346101fd5760203660031901126101fd5760609281839235825260205220549080519160ff81161515835260ff8160081c161515602084015260018060a01b039060101c1690820152f35b50346101fd5760203660031901126101fd5780359182845281602052808420805460ff811615610e6f5760081c60ff16610e59576007548015159182610e2e575b5050610dea5783610de784611344565b80f35b9060206064925191631bc0b74560e01b8352820152601960248201527f46756c66696c6c6d656e742064656c6179206e6f74206d6574000000000000006044820152fd5b6002015490810191508110610e465743103880610dd7565b634e487b7160e01b855260118352602485fd5b5091602492519163a48032d560e01b8352820152fd5b825163a48032d560e01b8152808501869052602490fd5b5050346102255760203660031901126102255760209160ff9082906001600160a01b03610eb16111e2565b1681526002855220541690519015158152f35b50346101fd57826003193601126101fd57338352600260205260ff82842054161580610f43575b6104b65782549060ff8260a01c1615610f35575060ff60a01b19168255513381527f5db9ee0a495bf2e6ff9c91a7834c1ba4fdd244a5e8aa4e537bd38aeae4b073aa90602090a180f35b8251638dfc202b60e01b8152fd5b5082546001600160a01b0316331415610eeb565b5050346102255781600319360112610225576009548151911c63ffffffff168152602090f35b50503461022557602036600319011261022557602091906001600160a01b0380610fa56111e2565b16908184526002855260ff83852054169384156107b357505050519015158152f35b5090346101fd5760203660031901126101fd57338352600260205260ff81842054161580610ffc575b610aac57503560075580f35b5082546001600160a01b0316331415610ff0565b5050346102255760203660031901126102255761102b6111e2565b611033611318565b6001600160a01b03168083526002602052908220805460ff191690557fa3b62bc36326052d97ea62d63c3d60308ed4c3ea8ac079dd8499f1e9c4f80c0f8280a280f35b5050346102255760203660031901126102255760209160ff9082906001600160a01b036110a16111e2565b1681526003855220541690519015158152f35b50503461022557816003193601126102255760209067ffffffffffffffff600954169051908152f35b9390503461033257602091826003193601126102255780358083528184528483209586549160ff8316156111ce57505060081c60ff16156111925750825160019485018054808352908352838320828501969491879190855b81811061117f575050508261114c9103836111fd565b8451948186019282875251809352850195925b82811061116c5785870386f35b835187529581019592810192840161115f565b8254845292840192918701918701611136565b8351631bc0b74560e01b8152908101839052601560248201527414995c5d595cdd081b9bdd08199d5b199a5b1b1959605a1b6044820152606490fd5b63a48032d560e01b82528184015260249150fd5b600435906001600160a01b03821682036111f857565b600080fd5b90601f8019910116810190811067ffffffffffffffff82111761121f57604052565b634e487b7160e01b600052604160045260246000fd5b60001981146112445760010190565b634e487b7160e01b600052601160045260246000fd5b67ffffffffffffffff811161121f5760051b60200190565b9061127c8261125a565b61128960405191826111fd565b828152809261129a601f199161125a565b0190602036910137565b68010000000000000000821161121f578054918082558281106112c657505050565b600091600052602060002092830192015b8281106112e357505050565b8181556001016112d7565b80518210156113025760209160051b010190565b634e487b7160e01b600052603260045260246000fd5b6000546001600160a01b0316330361132c57565b60405163118cdaa760e01b8152336004820152602490fd5b600081815260049260209060048252604093604084209283549463ffffffff96878760b01c169461137486611272565b96835b8a81168881101561140a578451878101898152428288015244606083015260e084901b6001600160e01b03191660808301526814d5155097d4d1515160ba1b6084830152606d82529060a0810167ffffffffffffffff8111828210176113f6578e9492600194926113ee928a52519020918d6112ee565b520116611377565b8f896041602492634e487b7160e01b835252fd5b5050969498509850509250936101009061ff001916178355600180930192815167ffffffffffffffff81116114b45761144381866112a4565b85830180958552868520855b8381106114a3575050505050511561148f5750907f9b0aa3f92f46e24caa76b000bdf0dd495b9b390c320cf6585ae10a12b7d09edb9151604051908152a2565b634e487b7160e01b81526032600452602490fd5b82518282015591880191840161144f565b634e487b7160e01b84526041600452602484fd5b60ff60005460a01c166114d757565b60405163d93c066560e01b8152600490fdfea26469706673582212207e0a649e633302b0b00a6c250d0bcd91bb16bdfb0e70e475ef7a6095f920e78264736f6c63430008180033","linkReferences":{}},"methodIdentifiers":{"addAdmin(address)":"70480275","addOperator(address)":"9870d7fe","admins(address)":"429b62e5","autoFulfill()":"dba41fdd","callbackGasLimit()":"24f74697","cancelRequest(bytes32)":"50125546","fulfillRequest(bytes32)":"432d0137","fulfillmentDelay()":"79897785","getPendingRequests()":"80a1f712","getRandomness(bytes32)":"05b19402","getRequestStatus(bytes32)":"45d07664","getVRFConfig()":"9a5ea6a0","isAdmin(address)":"24d7806c","isOperator(address)":"6d70f7ae","isReady()":"a094a031","isRequestFulfilled(bytes32)":"92a442ea","keyHash()":"61728f39","operators(address)":"13e7c9d8","owner()":"8da5cb5b","pause()":"8456cb59","paused()":"5c975abb","removeAdmin(address)":"1785f53c","removeOperator(address)":"ac8a584a","renounceOwnership()":"715018a6","requestRandomness(address,uint32)":"4b75abbb","setAutoFulfill(bool)":"4ea94e77","setFulfillmentDelay(uint256)":"1b956081","subscriptionId()":"09c1ba2e","transferOwnership(address)":"f2fde38b","unpause()":"3f4ba83a","updateVRFConfig(bytes32,uint64,uint32)":"5161b0d6"},"id":4}