{"abi":[{"type":"constructor","inputs":[{"name":"_wldToken","type":"address","internalType":"address"},{"name":"_usdcToken","type":"address","internalType":"address"},{"name":"initialOwner","type":"address","internalType":"address"}],"stateMutability":"nonpayable"},{"type":"function","name":"addAdmin","inputs":[{"name":"admin","type":"address","internalType":"address"}],"outputs":[],"stateMutability":"nonpayable"},{"type":"function","name":"addOperator","inputs":[{"name":"operator","type":"address","internalType":"address"}],"outputs":[],"stateMutability":"nonpayable"},{"type":"function","name":"admins","inputs":[{"name":"","type":"address","internalType":"address"}],"outputs":[{"name":"","type":"bool","internalType":"bool"}],"stateMutability":"view"},{"type":"function","name":"currentStrategy","inputs":[],"outputs":[{"name":"","type":"uint8","internalType":"enum YieldAdapter.StrategyType"}],"stateMutability":"view"},{"type":"function","name":"deposit","inputs":[{"name":"amount","type":"uint256","internalType":"uint256"}],"outputs":[{"name":"shares","type":"uint256","internalType":"uint256"}],"stateMutability":"nonpayable"},{"type":"function","name":"emergencyWithdraw","inputs":[],"outputs":[{"name":"","type":"uint256","internalType":"uint256"}],"stateMutability":"nonpayable"},{"type":"function","name":"generateYield","inputs":[{"name":"amount","type":"uint256","internalType":"uint256"}],"outputs":[],"stateMutability":"nonpayable"},{"type":"function","name":"getAPY","inputs":[],"outputs":[{"name":"","type":"uint256","internalType":"uint256"}],"stateMutability":"view"},{"type":"function","name":"getShareValue","inputs":[],"outputs":[{"name":"","type":"uint256","internalType":"uint256"}],"stateMutability":"view"},{"type":"function","name":"getTotalDeposited","inputs":[],"outputs":[{"name":"","type":"uint256","internalType":"uint256"}],"stateMutability":"view"},{"type":"function","name":"getTotalShares","inputs":[],"outputs":[{"name":"","type":"uint256","internalType":"uint256"}],"stateMutability":"view"},{"type":"function","name":"getYield","inputs":[],"outputs":[{"name":"","type":"uint256","internalType":"uint256"}],"stateMutability":"view"},{"type":"function","name":"harvestYield","inputs":[],"outputs":[{"name":"","type":"uint256","internalType":"uint256"}],"stateMutability":"nonpayable"},{"type":"function","name":"isAdmin","inputs":[{"name":"account","type":"address","internalType":"address"}],"outputs":[{"name":"","type":"bool","internalType":"bool"}],"stateMutability":"view"},{"type":"function","name":"isOperator","inputs":[{"name":"account","type":"address","internalType":"address"}],"outputs":[{"name":"","type":"bool","internalType":"bool"}],"stateMutability":"view"},{"type":"function","name":"lpShares","inputs":[],"outputs":[{"name":"","type":"uint256","internalType":"uint256"}],"stateMutability":"view"},{"type":"function","name":"migrateStrategy","inputs":[{"name":"newStrategy","type":"address","internalType":"address"}],"outputs":[],"stateMutability":"nonpayable"},{"type":"function","name":"operators","inputs":[{"name":"","type":"address","internalType":"address"}],"outputs":[{"name":"","type":"bool","internalType":"bool"}],"stateMutability":"view"},{"type":"function","name":"owner","inputs":[],"outputs":[{"name":"","type":"address","internalType":"address"}],"stateMutability":"view"},{"type":"function","name":"pause","inputs":[],"outputs":[],"stateMutability":"nonpayable"},{"type":"function","name":"paused","inputs":[],"outputs":[{"name":"","type":"bool","internalType":"bool"}],"stateMutability":"view"},{"type":"function","name":"removeAdmin","inputs":[{"name":"admin","type":"address","internalType":"address"}],"outputs":[],"stateMutability":"nonpayable"},{"type":"function","name":"removeOperator","inputs":[{"name":"operator","type":"address","internalType":"address"}],"outputs":[],"stateMutability":"nonpayable"},{"type":"function","name":"renounceOwnership","inputs":[],"outputs":[],"stateMutability":"nonpayable"},{"type":"function","name":"setStrategy","inputs":[{"name":"strategy","type":"address","internalType":"address"}],"outputs":[],"stateMutability":"nonpayable"},{"type":"function","name":"setStrategyType","inputs":[{"name":"strategy","type":"uint8","internalType":"enum YieldAdapter.StrategyType"}],"outputs":[],"stateMutability":"nonpayable"},{"type":"function","name":"sharesOf","inputs":[{"name":"account","type":"address","internalType":"address"}],"outputs":[{"name":"","type":"uint256","internalType":"uint256"}],"stateMutability":"view"},{"type":"function","name":"stakedAmount","inputs":[],"outputs":[{"name":"","type":"uint256","internalType":"uint256"}],"stateMutability":"view"},{"type":"function","name":"strategyAddress","inputs":[],"outputs":[{"name":"","type":"address","internalType":"address"}],"stateMutability":"view"},{"type":"function","name":"totalDeposited","inputs":[],"outputs":[{"name":"","type":"uint256","internalType":"uint256"}],"stateMutability":"view"},{"type":"function","name":"totalShares","inputs":[],"outputs":[{"name":"","type":"uint256","internalType":"uint256"}],"stateMutability":"view"},{"type":"function","name":"transferOwnership","inputs":[{"name":"newOwner","type":"address","internalType":"address"}],"outputs":[],"stateMutability":"nonpayable"},{"type":"function","name":"unpause","inputs":[],"outputs":[],"stateMutability":"nonpayable"},{"type":"function","name":"usdcToken","inputs":[],"outputs":[{"name":"","type":"address","internalType":"contract IERC20"}],"stateMutability":"view"},{"type":"function","name":"withdraw","inputs":[{"name":"shares","type":"uint256","internalType":"uint256"}],"outputs":[{"name":"amount","type":"uint256","internalType":"uint256"}],"stateMutability":"nonpayable"},{"type":"function","name":"wldToken","inputs":[],"outputs":[{"name":"","type":"address","internalType":"contract IERC20"}],"stateMutability":"view"},{"type":"function","name":"yieldAmount","inputs":[],"outputs":[{"name":"","type":"uint256","internalType":"uint256"}],"stateMutability":"view"},{"type":"event","name":"AdminAdded","inputs":[{"name":"admin","type":"address","indexed":true,"internalType":"address"}],"anonymous":false},{"type":"event","name":"AdminRemoved","inputs":[{"name":"admin","type":"address","indexed":true,"internalType":"address"}],"anonymous":false},{"type":"event","name":"FundsDeposited","inputs":[{"name":"amount","type":"uint256","indexed":false,"internalType":"uint256"},{"name":"shares","type":"uint256","indexed":false,"internalType":"uint256"}],"anonymous":false},{"type":"event","name":"FundsWithdrawn","inputs":[{"name":"shares","type":"uint256","indexed":false,"internalType":"uint256"},{"name":"amount","type":"uint256","indexed":false,"internalType":"uint256"}],"anonymous":false},{"type":"event","name":"OperatorAdded","inputs":[{"name":"operator","type":"address","indexed":true,"internalType":"address"}],"anonymous":false},{"type":"event","name":"OperatorRemoved","inputs":[{"name":"operator","type":"address","indexed":true,"internalType":"address"}],"anonymous":false},{"type":"event","name":"OwnershipTransferred","inputs":[{"name":"previousOwner","type":"address","indexed":true,"internalType":"address"},{"name":"newOwner","type":"address","indexed":true,"internalType":"address"}],"anonymous":false},{"type":"event","name":"Paused","inputs":[{"name":"account","type":"address","indexed":false,"internalType":"address"}],"anonymous":false},{"type":"event","name":"StrategyChanged","inputs":[{"name":"oldStrategy","type":"address","indexed":false,"internalType":"address"},{"name":"newStrategy","type":"address","indexed":false,"internalType":"address"}],"anonymous":false},{"type":"event","name":"Unpaused","inputs":[{"name":"account","type":"address","indexed":false,"internalType":"address"}],"anonymous":false},{"type":"event","name":"YieldHarvested","inputs":[{"name":"amount","type":"uint256","indexed":false,"internalType":"uint256"}],"anonymous":false},{"type":"error","name":"EnforcedPause","inputs":[]},{"type":"error","name":"ExpectedPause","inputs":[]},{"type":"error","name":"InsufficientBalance","inputs":[{"name":"requested","type":"uint256","internalType":"uint256"},{"name":"available","type":"uint256","internalType":"uint256"}]},{"type":"error","name":"InvalidAmount","inputs":[{"name":"amount","type":"uint256","internalType":"uint256"}]},{"type":"error","name":"NotAdmin","inputs":[{"name":"caller","type":"address","internalType":"address"}]},{"type":"error","name":"OwnableInvalidOwner","inputs":[{"name":"owner","type":"address","internalType":"address"}]},{"type":"error","name":"OwnableUnauthorizedAccount","inputs":[{"name":"account","type":"address","internalType":"address"}]},{"type":"error","name":"ReentrancyGuardReentrantCall","inputs":[]},{"type":"error","name":"SafeERC20FailedOperation","inputs":[{"name":"token","type":"address","internalType":"address"}]},{"type":"error","name":"ZeroAddress","inputs":[]}],"bytecode":{"object":"0x6080346100fd57601f6114a838819003918201601f19168301916001600160401b03831184841017610102578084926060946040528339810103126100fd578061004a604092610118565b61005660208301610118565b6001600160a01b03939092849161006d9101610118565b169081156100e457600080546001600160a01b0319808216851783559386939290918416907f8be0079c531659141344cd1fd0a4f28419497f9722a3daafe3b4186f6b6457e09080a360018055169060045416176004551660018060a81b0319600554161760055560405161137b908161012d8239f35b604051631e4fbdf760e01b815260006004820152602490fd5b600080fd5b634e487b7160e01b600052604160045260246000fd5b51906001600160a01b03821682036100fd5756fe608060408181526004918236101561001657600080fd5b600092833560e01c91826311eac8551461114b5750816313e7c9d81461110c5781631785f53c146110a457816324d7806c146110575781632e1a7d4d14610eb157816333a100ca14610e2f578163373d613214610e105781633a98ef39146105e85781633f4ba83a14610d7c578163429b62e514610d3d578163437c328914610d19578163458e551e14610cab5781635c975abb14610c865781636a1ceb2d14610c445781636d70f7ae14610bd05781637048027514610b5c578163715018a614610aff5781637c262871146108d35781638456cb5914610a795781638da5cb5b14610a515781639870d7fe146109ac5781639a03230d1461091a5781639be3783d146108f2578163a04f6639146108d3578163ac8a584a1461082f578163b68ef55914610810578163b6b55f251461064d578163bc6b74ab14610624578163d2cbf7ad14610607578163d5002f2e146105e8578163db2e21bc146104b4578163dc18a4c014610495578163e8d991d114610389578163f2fde38b146102fe578163f5eb42dc146102c4578163fafa6c69146101dd575063ff50abdc146101bc57600080fd5b346101d957816003193601126101d9576020906009549051908152f35b5080fd5b919050346102c05760203660031901126102c0576001600160a01b0391803583811691908290036102bc57610210611238565b338552600260205260ff838620541615806102af575b6102985750906102927f254c88e7a2ea123aeeb89b7cc413fb949188fefcdb7584c4f3d493294daf65c5939261025a6112fd565b600680546001600160a01b0319811683179091559251939092166001600160a01b039081168452909116602083015281906040820190565b0390a180f35b602490835190630bd4212160e11b82523390820152fd5b5083855416331415610226565b8480fd5b8280fd5b9050346102c05760203660031901126102c057356001600160a01b038116908190036102c057828291602094526007845220549051908152f35b919050346102c05760203660031901126102c0576001600160a01b038235818116939192908490036102bc5761033261120c565b831561037357505082546001600160a01b0319811683178455167f8be0079c531659141344cd1fd0a4f28419497f9722a3daafe3b4186f6b6457e08380a380f35b51631e4fbdf760e01b8152908101849052602490fd5b8383346101d957816003193601126101d9576103a3611238565b6103ab611259565b60ff60055460a01c16600381101561048257600181036104555750600a54670de0b6b3a7640000810180911161044257600a556020925b600a5492600a558280610424575b50507feb2d114a827fe0da3db4c0e374010959cf461f7ed76987aeff51666dea9add9b838251848152a16001805551908152f35b905461043b919033906001600160a01b031661127c565b83826103f0565b634e487b7160e01b835260118452602483fd5b600214610465575b6020926103e2565b600a54670de0b6b3a7640000810180911161044257600a5561045d565b634e487b7160e01b835260218452602483fd5b5050346101d957816003193601126101d957602090600b549051908152f35b919050346102c057826003193601126102c0576104cf611238565b6104d7611259565b3383526020926002845260ff828220541615806105d4575b6105be576104fb6112fd565b825482516370a0823160e01b815230818601526001600160a01b03909116908581602481855afa9485156105b4578395610553575b50508361053e91339061127c565b8060095580600855600a556001805551908152f35b9091945085903d87116105ac575b601f8201601f191683019067ffffffffffffffff8211848310176105995750869183918652810103126101d957519261053e38610530565b634e487b7160e01b855260419052602484fd5b3d9150610561565b84513d85823e3d90fd5b8151630bd4212160e11b81523381850152602490fd5b5080546001600160a01b03163314156104ef565b5050346101d957816003193601126101d9576020906008549051908152f35b5050346101d957816003193601126101d957602090516101f48152f35b5050346101d957816003193601126101d95760065490516001600160a01b039091168152602090f35b8383346101d95760203660031901126101d957823561066a611238565b610672611259565b80156107fa57835482516323b872dd60e01b85523386523060245260448390526001600160a01b03909116919060208560648180875af192600193848751148116156107dc575b82865286606052156107c857505060085493846107a8576106eb8280965b6106e3856009546111ff565b6009556111ff565b60085533815260076020528381206107048682546111ff565b905560ff60055460a01c169060038210156107955750602095507f26679fa1f3868c950e9362f1106cf73f3318de0280e0411a3c68e4b463eadd4f91849184810361077a575061076381851c61075a81846111b9565b50600b546111ff565b600b555b81519081528587820152a1805551908152f35b6002036107675761078d81600c546111ff565b600c55610767565b634e487b7160e01b815260218752602490fd5b6106eb6107c16107b88785611170565b60095490611199565b80966106d7565b635274afe760e01b82528187015260249150fd5b848115166107f157813b15153d1516166106b9565b823d88823e3d90fd5b83906024925191633728b83d60e01b8352820152fd5b5050346101d957816003193601126101d9576020906009549051908152f35b919050346102c05760203660031901126102c05781356001600160a01b0381811693918490036102bc57338552600260205260ff83862054161590816108c5575b506108af575081835260036020528220805460ff191690557f80c0b871b97b595b16a7741c1b06fed0c6f6f558639f18ccbce50724325dc40d8280a280f35b6024915190630bd4212160e11b82523390820152fd5b905084541633141538610870565b5050346101d957816003193601126101d957602090600a549051908152f35b9050346102c057826003193601126102c0575490516001600160a01b03909116815260209150f35b9050346102c05760203660031901126102c05780359160038310156109a857338452600260205260ff81852054161580610994575b61097d57505061095d611238565b6005805460ff60a01b191660a09290921b60ff60a01b1691909117905580f35b602492505190630bd4212160e11b82523390820152fd5b5083546001600160a01b031633141561094f565b8380fd5b919050346102c05760203660031901126102c05781356001600160a01b0381811693918490036102bc57338552600260205260ff8386205416159081610a43575b506108af578215610a35575081835260036020528220805460ff191660011790557fac6fa858e9350a46cec16539926e0fde25b7629f84b5a72bffaae4df888ae86d8280a280f35b905163d92e233d60e01b8152fd5b9050845416331415386109ed565b5050346101d957816003193601126101d957905490516001600160a01b039091168152602090f35b9050346102c057826003193601126102c057338352600260205260ff82842054161580610aeb575b6108af575060207f62e78cea01bee320cd4e420270b5ea74000d11b0c9f74754ebdbfc544b05a25891610ad2611238565b835460ff60a01b1916600160a01b17845551338152a180f35b5082546001600160a01b0316331415610aa1565b8334610b595780600319360112610b5957610b1861120c565b80546001600160a01b03198116825581906001600160a01b03167f8be0079c531659141344cd1fd0a4f28419497f9722a3daafe3b4186f6b6457e08280a380f35b80fd5b919050346102c05760203660031901126102c05781356001600160a01b03811692908390036109a857610b8d61120c565b8215610a35575081835260026020528220805460ff191660011790557f44d6d25963f097ad14f29f06854a01f575648a1ef82f30e562ccd3889717e3398280a280f35b839150346101d95760203660031901126101d9576001600160a01b03929035838116908190036102c0576020938184526003855260ff8385205416938415610c32575b8415610c25575b505050519015158152f35b5416149150838080610c1a565b600286528381205460ff169450610c13565b8383346101d957816003193601126101d95760ff60055460a01c169051916003821015610c7357602083838152f35b634e487b7160e01b815260218452602490fd5b5050346101d957816003193601126101d95760ff6020925460a01c1690519015158152f35b9050346102c05760203660031901126102c057803591338452600260205260ff81852054161580610d05575b61097d5783610cff84610ce8611238565b610cf481600a546111ff565b600a556009546111ff565b60095580f35b5083546001600160a01b0316331415610cd7565b5050346101d957816003193601126101d957602090610d366111c6565b9051908152f35b9050346102c05760203660031901126102c057356001600160a01b038116908190036102c057818360ff92602095526002855220541690519015158152f35b9050346102c057826003193601126102c057338352600260205260ff82842054161580610dfc575b6108af5782549060ff8260a01c1615610dee575060ff60a01b19168255513381527f5db9ee0a495bf2e6ff9c91a7834c1ba4fdd244a5e8aa4e537bd38aeae4b073aa90602090a180f35b8251638dfc202b60e01b8152fd5b5082546001600160a01b0316331415610da4565b5050346101d957816003193601126101d957602090600c549051908152f35b919050346102c05760203660031901126102c0576001600160a01b0391803583811691908290036102bc57338552600260205260ff83862054161580610ea4575b6102985750906102927f254c88e7a2ea123aeeb89b7cc413fb949188fefcdb7584c4f3d493294daf65c5939261025a611238565b5083855416331415610e70565b90508234610b59576020366003190112610b5957813591610ed0611238565b610ed8611259565b82156110405733825260076020528382205480841161102457506008548084116110245760ff60055460a01c1660038110156110115793610fcb86947fd66662c0ded9e58fd31d5e44944bcfd07ffc15e6927ecc1382e7941cb7bd24c49460209894886001610f9a9a14600014610fe0575050610f6d600b54610f67610f5e8288611170565b60085490611199565b906111b9565b600b555b8460095492610fa286610f848682611170565b610f916008548092611199565b9c8d80986111b9565b6009556111b9565b60085533815260078b5220610fb88582546111b9565b90555433906001600160a01b031661127c565b81519081528486820152a16001805551908152f35b600214610fee575b50610f71565b61100890610f67600c54916110038389611170565b611199565b600c5589610fe8565b634e487b7160e01b845260218352602484fd5b915091604493519263cf47918160e01b84528301526024820152fd5b8351633728b83d60e01b8152908101839052602490fd5b839150346101d95760203660031901126101d9576001600160a01b03929035838116908190036102c0576020938184526002855260ff8385205416938415610c2557505050519015158152f35b9050346102c05760203660031901126102c057356001600160a01b03811691908290036102c0576110d361120c565b81835260026020528220805460ff191690557fa3b62bc36326052d97ea62d63c3d60308ed4c3ea8ac079dd8499f1e9c4f80c0f8280a280f35b9050346102c05760203660031901126102c057356001600160a01b038116908190036102c057818360ff92602095526003855220541690519015158152f35b8490346101d957816003193601126101d9576005546001600160a01b03168152602090f35b8181029291811591840414171561118357565b634e487b7160e01b600052601160045260246000fd5b81156111a3570490565b634e487b7160e01b600052601260045260246000fd5b9190820391821161118357565b60085480156111f95760095490670de0b6b3a764000091828102928184041490151715611183576111f691611199565b90565b50600090565b9190820180921161118357565b6000546001600160a01b0316330361122057565b60405163118cdaa760e01b8152336004820152602490fd5b60ff60005460a01c1661124757565b60405163d93c066560e01b8152600490fd5b60026001541461126a576002600155565b604051633ee5aeb560e01b8152600490fd5b60405163a9059cbb60e01b60009081526001600160a01b039384166004526024949094529260209060448180855af16001600051148116156112dd575b83604052156112c757505050565b635274afe760e01b835216600482015260249150fd5b60018115166112f357813b15153d1516166112b9565b833d6000823e3d90fd5b60ff60055460a01c16600381101561132f576001810361131f57506000600b55565b60021461132857565b6000600c55565b634e487b7160e01b600052602160045260246000fdfea264697066735822122039eb8e35811a79b6c9084ea7eeb4224eb7659e21d4e0620829407f273d02582564736f6c63430008180033","linkReferences":{}},"methodIdentifiers":{"addAdmin(address)":"70480275","addOperator(address)":"9870d7fe","admins(address)":"429b62e5","currentStrategy()":"6a1ceb2d","deposit(uint256)":"b6b55f25","emergencyWithdraw()":"db2e21bc","generateYield(uint256)":"458e551e","getAPY()":"d2cbf7ad","getShareValue()":"437c3289","getTotalDeposited()":"b68ef559","getTotalShares()":"d5002f2e","getYield()":"7c262871","harvestYield()":"e8d991d1","isAdmin(address)":"24d7806c","isOperator(address)":"6d70f7ae","lpShares()":"dc18a4c0","migrateStrategy(address)":"fafa6c69","operators(address)":"13e7c9d8","owner()":"8da5cb5b","pause()":"8456cb59","paused()":"5c975abb","removeAdmin(address)":"1785f53c","removeOperator(address)":"ac8a584a","renounceOwnership()":"715018a6","setStrategy(address)":"33a100ca","setStrategyType(uint8)":"9a03230d","sharesOf(address)":"f5eb42dc","stakedAmount()":"373d6132","strategyAddress()":"bc6b74ab","totalDeposited()":"ff50abdc","totalShares()":"3a98ef39","transferOwnership(address)":"f2fde38b","unpause()":"3f4ba83a","usdcToken()":"11eac855","withdraw(uint256)":"2e1a7d4d","wldToken()":"9be3783d","yieldAmount()":"a04f6639"},"id":3}